"8=FIX.4.2|9=128|35=D|1=CLIENT57|11=HMtWvd|21=3|38=1337900|40=2|44=0.74749102461495|54=1|55=BTU|60=20151204-14:30:00.000|107=Peabody Energy Corp|10=039|"
"8=FIX.4.2|9=124|35=D|1=CLIENT249|11=I8Feqd|21=3|38=20900|40=2|44=47.96475794714856|54=1|55=LNG|60=20151204-14:30:00.000|107=Cheniere Energy|10=160|"
"8=FIX.4.2|9=127|35=D|1=CLIENT10|11=DGzYvS|21=3|38=170900|40=2|44=58.53182121828298|54=1|55=VLO|60=20151204-14:30:00.000|107=Valero Energy Corp|10=183|"
"8=FIX.4.2|9=129|35=D|1=CLIENT54|11=3hcEn9|21=3|38=8900|40=2|44=113.1152089193191|54=2|55=UNH|60=20151204-14:30:00.000|107=Unitedhealth Group Inc|10=172|"
"8=FIX.4.2|9=125|35=D|1=CLIENT29|11=4Zst0J|21=3|38=94900|40=2|44=10.53949754064671|54=2|55=CNX|60=20151204-14:30:00.000|107=Consol Energy Inc|10=222|"
"8=FIX.4.2|9=130|35=D|1=CLIENT36|11=uptXAS|21=3|38=628900|40=2|44=1.59027697802002|54=2|55=OREX|60=20151204-14:30:00.000|107=Orexigen Therapeutics|10=153|"
"8=FIX.4.2|9=133|35=D|1=CLIENT51|11=OM9g7v|21=3|38=63000|40=2|44=15.89393340956721|54=2|55=AEO|60=20151204-14:30:00.000|107=American Eagle Outfitters|10=250|"
"8=FIX.4.2|9=126|35=D|1=CLIENT44|11=bac79K|21=3|38=60800|40=2|44=16.46575396953179|54=2|55=KND|60=20151204-14:30:00.000|107=Kindred Healthcare|10=105|"
"8=FIX.4.2|9=120|35=D|1=CLIENT21|11=VLlHs9|21=3|38=93200|40=2|44=107.31647699511402|54=1|55=CMI|60=20151204-14:30:00.000|107=Cummins Inc|10=218|"
"8=FIX.4.2|9=116|35=D|1=CLIENT18|11=tKBoUB|21=3|38=313300|40=2|44=31.9183671221767|54=2|55=PPL|60=20151204-14:30:00.000|107=PPL Corp|10=082|"
"8=FIX.4.2|9=121|35=D|1=CLIENT35|11=s0XCIa|21=3|38=4000|40=2|44=252.85366153511416|54=1|55=TSLA|60=20151204-14:30:00.000|107=Tesla Motors|10=108|"
"8=FIX.4.2|9=137|35=D|1=CLIENT1|11=0jpK5Z|21=3|38=453900|40=2|44=22.03564997761128|54=1|55=XPO|60=20151204-14:30:00.000|107=Express-1 Expedited Solutions|10=155|"
"8=FIX.4.2|9=134|35=D|1=CLIENT46|11=VTJ45y|21=3|38=42800|40=2|44=23.4177201650256|54=2|55=BKD|60=20151204-14:30:00.000|107=Brookdale Senior Living Inc|10=020|"
"8=FIX.4.2|9=129|35=D|1=CLIENT38|11=fBXRJE|21=3|38=25500|40=2|44=39.22080960358744|54=2|55=THC|60=20151204-14:30:00.000|107=Tenet Healthcare Corp|10=082|"
"8=FIX.4.2|9=124|35=D|1=CLIENT30|11=wiNEtM|21=3|38=49000|40=2|44=20.43703832731823|54=1|55=FINL|60=20151204-14:30:00.000|107=The Finish Line|10=089|"
"8=FIX.4.2|9=121|35=D|1=CLIENT83|11=W9uO9V|21=3|38=343300|40=2|44=2.9134583561319|54=2|55=MNKD|60=20151204-14:30:00.000|107=Mannkind Corp|10=125|"
"8=FIX.4.2|9=120|35=D|1=CLIENT28|11=x2OqFq|21=3|38=82800|40=2|44=12.08602366510513|54=2|55=SPLS|60=20151204-14:30:00.000|107=Staples Inc|10=045|"
"8=FIX.4.2|9=127|35=D|1=CLIENT251|11=zHI1nS|21=3|38=10100|40=2|44=99.8890264874939|54=2|55=DIS|60=20151204-14:30:00.000|107=Walt Disney Company|10=207|"
"8=FIX.4.2|9=132|35=D|1=CLIENT39|11=USZsnC|21=3|38=29800|40=2|44=33.61649937288086|54=1|55=BWC|60=20151204-14:30:00.000|107=Babcock & Wilcox Company|10=085|"
"8=FIX.4.2|9=140|35=D|1=CLIENT59|11=LnjTf9|21=3|38=78800|40=2|44=12.69702189475493|54=2|55=PAH|60=20151204-14:30:00.000|107=Platform Specialty Products Corp|10=006|"
"8=FIX.4.2|9=125|35=D|1=CLIENT49|11=ZaaQU4|21=3|38=110100|40=2|44=9.08511482721419|54=1|55=NBR|60=20151204-14:30:00.000|107=Nabors Industries|10=064|"
"8=FIX.4.2|9=133|35=D|1=CLIENT137|11=QfwJed|21=3|38=112400|40=2|44=8.9020639822142|54=2|55=SRC|60=20151204-14:30:00.000|107=Spirit Realty Capital Inc|10=003|"
"8=FIX.4.2|9=124|35=D|1=CLIENT30|11=dDaxlS|21=3|38=12600|40=2|44=79.64326588939375|54=2|55=ESRX|60=20151204-14:30:00.000|107=Express Scripts|10=073|"
"8=FIX.4.2|9=138|35=D|1=CLIENT46|11=ZIFEhN|21=3|38=57100|40=2|44=17.51476608279909|54=2|55=KN|60=20151204-14:30:00.000|107=Knowles Corporation Common Stoc|10=042|"
"8=FIX.4.2|9=132|35=D|1=CLIENT5|11=zAI0Mg|21=3|38=236000|40=2|44=42.37763810716435|54=1|55=CYH|60=20151204-14:30:00.000|107=Community Health Systems|10=219|"
"8=FIX.4.2|9=118|35=D|1=CLIENT51|11=eXC9v4|21=3|38=47100|40=2|44=21.26320302008842|54=1|55=MAT|60=20151204-14:30:00.001|107=Mattel Inc|10=017|"
"8=FIX.4.2|9=131|35=D|1=CLIENT54|11=uSQygT|21=3|38=73400|40=2|44=13.62474016180485|54=1|55=JNS|60=20151204-14:30:00.001|107=Janus Capital Group Inc|10=058|"
"8=FIX.4.2|9=118|35=D|1=CLIENT12|11=QD36TP|21=3|38=86500|40=2|44=115.67907963625689|54=2|55=HD|60=20151204-14:30:00.001|107=Home Depot|10=226|"
"8=FIX.4.2|9=121|35=D|1=CLIENT41|11=ZRlrGI|21=3|38=23000|40=2|44=43.52756538445765|54=1|55=MDP|60=20151204-14:30:00.001|107=Meredith Corp|10=162|"
"8=FIX.4.2|9=132|35=D|1=CLIENT8|11=jah1Km|21=3|38=310600|40=2|44=32.19646485317256|54=1|55=BWC|60=20151204-14:30:00.001|107=Babcock & Wilcox Company|10=052|"
"8=FIX.4.2|9=115|35=D|1=CLIENT40|11=EaeukP|21=3|38=30900|40=2|44=32.3661671195884|54=2|55=PPL|60=20151204-14:30:00.001|107=PPL Corp|10=089|"
"8=FIX.4.2|9=134|35=D|1=CLIENT37|11=oz3EAk|21=3|38=26500|40=2|44=37.77275986278602|54=1|55=LUV|60=20151204-14:30:00.001|107=Southwest Airlines Company|10=001|"
"8=FIX.4.2|9=138|35=D|1=CLIENT46|11=RM2YTS|21=3|38=15500|40=2|44=64.8356091968456|54=1|55=MNK|60=20151204-14:30:00.001|107=Mallinckrodt Plc Ordinary Share|10=250|"
"8=FIX.4.2|9=132|35=D|1=CLIENT12|11=w3yXkH|21=3|38=727500|40=2|44=13.74711753979809|54=1|55=CIM|60=20151204-14:30:00.001|107=Chimera Investment Corp|10=196|"
"8=FIX.4.2|9=136|35=D|1=CLIENT176|11=UqfTq4|21=3|38=42900|40=2|44=23.31963599694414|54=1|55=BKD|60=20151204-14:30:00.001|107=Brookdale Senior Living Inc|10=229|"
"8=FIX.4.2|9=131|35=D|1=CLIENT50|11=suFE0J|21=3|38=29600|40=2|44=33.8852252048692|54=2|55=BAX|60=20151204-14:30:00.001|107=Baxter International Inc|10=115|"
"8=FIX.4.2|9=136|35=D|1=CLIENT16|11=LSj6DT|21=3|38=184800|40=2|44=54.12979410558712|54=2|55=UAL|60=20151204-14:30:00.001|107=United Continental Holdings|10=026|"
"8=FIX.4.2|9=130|35=D|1=CLIENT33|11=utDIfJ|21=3|38=8800|40=2|44=114.52441479626596|54=2|55=UNH|60=20151204-14:30:00.001|107=Unitedhealth Group Inc|10=034|"
"8=FIX.4.2|9=127|35=D|1=CLIENT57|11=hOIxDI|21=3|38=59900|40=2|44=16.72157899659704|54=1|55=NEM|60=20151204-14:30:00.001|107=Newmont Mining Corp|10=234|"
"8=FIX.4.2|9=132|35=D|1=CLIENT38|11=ZTwUrI|21=3|38=54900|40=2|44=18.23676577020921|54=1|55=AGNC|60=20151204-14:30:00.001|107=American Capital Agency|10=140|"
"8=FIX.4.2|9=117|35=D|1=CLIENT9|11=1uT9yX|21=3|38=86900|40=2|44=115.18418191825903|54=2|55=HD|60=20151204-14:30:00.001|107=Home Depot|10=006|"
"8=FIX.4.2|9=121|35=D|1=CLIENT53|11=DurRJw|21=3|38=36500|40=2|44=27.4411726055235|54=2|55=GLNG|60=20151204-14:30:00.001|107=Golar Lng Ltd|10=101|"
"8=FIX.4.2|9=118|35=D|1=CLIENT11|11=XhQjAy|21=3|38=699300|40=2|44=14.30077592365346|54=2|55=ESV|60=20151204-14:30:00.001|107=Ensco Plc|10=087|"
"8=FIX.4.2|9=128|35=D|1=CLIENT27|11=NF7XeH|21=3|38=74300|40=2|44=13.47081226681167|54=2|55=ASNA|60=20151204-14:30:00.001|107=Ascena Retail Group|10=178|"
"8=FIX.4.2|9=132|35=D|1=CLIENT5|11=miao0e|21=3|38=239500|40=2|44=41.75810160914347|54=2|55=CYH|60=20151204-14:30:00.001|107=Community Health Systems|10=050|"
"8=FIX.4.2|9=122|35=D|1=CLIENT60|11=Az2o24|21=3|38=38300|40=2|44=26.14559265065927|54=2|55=GLNG|60=20151204-14:30:00.001|107=Golar Lng Ltd|10=044|"
"8=FIX.4.2|9=128|35=D|1=CLIENT27|11=ClvS6R|21=3|38=10000|40=2|44=100.22512269289952|54=2|55=DIS|60=20151204-14:30:00.001|107=Walt Disney Company|10=230|"
"8=FIX.4.2|9=117|35=D|1=CLIENT7|11=fbsmal|21=3|38=91900|40=2|44=108.88097456489187|54=2|55=AET|60=20151204-14:30:00.001|107=Aetna Inc|10=087|"
"8=FIX.4.2|9=120|35=D|1=CLIENT37|11=hZYJ1S|21=3|38=136400|40=2|44=7.33584241841077|54=2|55=ODP|60=20151204-14:30:00.001|107=Office Depot|10=244|"
"8=FIX.4.2|9=122|35=D|1=CLIENT35|11=kAPySp|21=3|38=36100|40=2|44=27.73248731980627|54=2|55=GLNG|60=20151204-14:30:00.001|107=Golar Lng Ltd|10=162|"
"8=FIX.4.2|9=127|35=D|1=CLIENT6|11=xZgsNH|21=3|38=6082300|40=2|44=1.64412407530347|54=1|55=BTU|60=20151204-14:30:00.002|107=Peabody Energy Corp|10=234|"
"8=FIX.4.2|9=120|35=D|1=CLIENT233|11=bFmpzk|21=3|38=61900|40=2|44=16.15955246380437|54=1|55=GLW|60=20151204-14:30:00.002|107=Corning Inc|10=083|"
"8=FIX.4.2|9=130|35=D|1=CLIENT14|11=D6ssBV|21=3|38=601100|40=2|44=16.63844626984446|54=2|55=WETF|60=20151204-14:30:00.002|107=Wisdomtree Invstmnts|10=063|"
"8=FIX.4.2|9=129|35=D|1=CLIENT205|11=LB7m0d|21=3|38=42000|40=2|44=23.8306443660421|54=2|55=SBH|60=20151204-14:30:00.002|107=Sally Beauty Holdings|10=061|"
"8=FIX.4.2|9=125|35=D|1=CLIENT23|11=R99PKN|21=3|38=274500|40=2|44=36.43848133318504|54=1|55=NOV|60=20151204-14:30:00.002|107=National-Oilwell|10=207|"
"8=FIX.4.2|9=142|35=D|1=CLIENT7|11=50RsOF|21=3|38=206900|40=2|44=48.35441161750659|54=1|55=DD|60=20151204-14:30:00.002|107=E.I. Du Pont De Nemours and Company|10=176|"
"8=FIX.4.2|9=135|35=D|1=CLIENT33|11=Qfy1w2|21=3|38=530500|40=2|44=1.8852935087857|54=1|55=CLF|60=20151204-14:30:00.002|107=Cliffs Natural Resources Inc|10=223|"
"8=FIX.4.2|9=121|35=D|1=CLIENT34|11=KEaLvT|21=3|38=4000|40=2|44=253.47079653398947|54=1|55=TSLA|60=20151204-14:30:00.002|107=Tesla Motors|10=167|"
"8=FIX.4.2|9=140|35=D|1=CLIENT39|11=F9Mc8w|21=3|38=79500|40=2|44=12.59006859597367|54=1|55=PAH|60=20151204-14:30:00.002|107=Platform Specialty Products Corp|10=207|"
"8=FIX.4.2|9=125|35=D|1=CLIENT12|11=WvVQ7D|21=3|38=227400|40=2|44=43.97535818871317|54=2|55=VIAB|60=20151204-14:30:00.002|107=Viacom Inc Cl B|10=219|"
"8=FIX.4.2|9=129|35=D|1=CLIENT6|11=NZPKM6|21=3|38=165000|40=2|44=60.632963780522|54=1|55=APC|60=20151204-14:30:00.002|107=Anadarko Petroleum Corp|10=170|"
"8=FIX.4.2|9=124|35=D|1=CLIENT209|11=5nkBRJ|21=3|38=51300|40=2|44=19.5166582030827|54=1|55=FINL|60=20151204-14:30:00.002|107=The Finish Line|10=030|"
"8=FIX.4.2|9=128|35=D|1=CLIENT16|11=GUi3G8|21=3|38=560200|40=2|44=17.8512923409897|54=2|55=FITB|60=20151204-14:30:00.002|107=Fifth Third Bancorp|10=157|"
"8=FIX.4.2|9=118|35=D|1=CLIENT1|11=TzWyZY|21=3|38=440600|40=2|44=22.69847418421272|54=1|55=MAT|60=20151204-14:30:00.002|107=Mattel Inc|10=151|"
"8=FIX.4.2|9=126|35=D|1=CLIENT23|11=RolC0U|21=3|38=1027600|40=2|44=9.73197938369752|54=1|55=NBR|60=20151204-14:30:00.002|107=Nabors Industries|10=145|"
"8=FIX.4.2|9=130|35=D|1=CLIENT60|11=VTH6V1|21=3|38=460800|40=2|44=2.17035980477683|54=1|55=SNTA|60=20151204-14:30:00.002|107=Synta Pharmaceuticals|10=241|"
"8=FIX.4.2|9=120|35=D|1=CLIENT49|11=JtB9m6|21=3|38=81000|40=2|44=12.35658993091525|54=1|55=SPLS|60=20151204-14:30:00.002|107=Staples Inc|10=251|"
"8=FIX.4.2|9=142|35=D|1=CLIENT49|11=L7kkUJ|21=3|38=21100|40=2|44=47.44446210155298|54=1|55=DD|60=20151204-14:30:00.002|107=E.I. Du Pont De Nemours and Company|10=223|"
"8=FIX.4.2|9=132|35=D|1=CLIENT99|11=zCiuhq|21=3|38=40400|40=2|44=24.75292150522734|54=2|55=FOX|60=20151204-14:30:00.002|107=21St Century Fox Class B|10=028|"
"8=FIX.4.2|9=124|35=D|1=CLIENT84|11=bbCJRP|21=3|38=100700|40=2|44=9.9350646575559|54=2|55=NBR|60=20151204-14:30:00.002|107=Nabors Industries|10=035|"
"8=FIX.4.2|9=123|35=D|1=CLIENT53|11=JaIOXO|21=3|38=48000|40=2|44=20.87265639491778|54=2|55=P|60=20151204-14:30:00.002|107=Pandora Media Inc|10=013|"
"8=FIX.4.2|9=134|35=D|1=CLIENT19|11=2efD43|21=3|38=1148200|40=2|44=8.70986999732698|54=1|55=SRC|60=20151204-14:30:00.002|107=Spirit Realty Capital Inc|10=207|"
"8=FIX.4.2|9=138|35=D|1=CLIENT33|11=qnZdKh|21=3|38=77100|40=2|44=12.97112233483007|54=2|55=BEE|60=20151204-14:30:00.002|107=Strategic Hotels & Resorts Inc|10=159|"
"8=FIX.4.2|9=132|35=D|1=CLIENT60|11=WQw45x|21=3|38=23700|40=2|44=42.25662817038718|54=1|55=CYH|60=20151204-14:30:00.002|107=Community Health Systems|10=250|"
"8=FIX.4.2|9=123|35=D|1=CLIENT57|11=AJKxQX|21=3|38=2000|40=2|44=505.90194852018107|54=1|55=AMZN|60=20151204-14:30:00.002|107=Amazon.Com Inc|10=212|"
"8=FIX.4.2|9=142|35=D|1=CLIENT56|11=cyVCEU|21=3|38=14900|40=2|44=67.25903400282009|54=2|55=ENDP|60=20151204-14:30:00.003|107=Endo Pharmaceuticals Holdings Inc|10=068|"
"8=FIX.4.2|9=118|35=D|1=CLIENT56|11=dDAEsW|21=3|38=47200|40=2|44=21.21825465521988|54=1|55=MAT|60=20151204-14:30:00.003|107=Mattel Inc|10=072|"
"8=FIX.4.2|9=130|35=D|1=CLIENT51|11=jRZCII|21=3|38=494300|40=2|44=2.02327277504136|54=1|55=AMD|60=20151204-14:30:00.003|107=Advanced Micro Devices|10=135|"
"8=FIX.4.2|9=122|35=D|1=CLIENT17|11=Qy6OlP|21=3|38=39700|40=2|44=252.11352774498226|54=2|55=TSLA|60=20151204-14:30:00.003|107=Tesla Motors|10=217|"
"8=FIX.4.2|9=116|35=D|1=CLIENT51|11=BYWm4R|21=3|38=19600|40=2|44=51.05802079942623|54=2|55=M|60=20151204-14:30:00.003|107=Macy's Inc|10=084|"
"8=FIX.4.2|9=139|35=D|1=CLIENT3|11=ZtjqbE|21=3|38=810700|40=2|44=12.33597131370024|54=2|55=NRZ|60=20151204-14:30:00.003|107=New Residential Investment Corp|10=195|"
"8=FIX.4.2|9=133|35=D|1=CLIENT220|11=SWY1pq|21=3|38=15600|40=2|44=64.1048305793182|54=1|55=OXY|60=20151204-14:30:00.003|107=Occidental Petroleum Corp|10=086|"
"8=FIX.4.2|9=140|35=D|1=CLIENT104|11=pqNn22|21=3|38=16500|40=2|44=60.88776565784402|54=1|55=CTSH|60=20151204-14:30:00.003|107=Cognizant Technology Solutions|10=011|"
"8=FIX.4.2|9=120|35=D|1=CLIENT30|11=2iprz7|21=3|38=77700|40=2|44=12.87478201943304|54=1|55=SPLS|60=20151204-14:30:00.003|107=Staples Inc|10=070|"
"8=FIX.4.2|9=126|35=D|1=CLIENT28|11=dh0Olv|21=3|38=14300|40=2|44=70.38178866228648|54=1|55=DG|60=20151204-14:30:00.003|107=Dollar General Corp|10=125|"
"8=FIX.4.2|9=119|35=D|1=CLIENT22|11=pJC1QU|21=3|38=225000|40=2|44=44.45015836621056|54=1|55=QRVO|60=20151204-14:30:00.003|107=Qorvo Inc|10=087|"
"8=FIX.4.2|9=143|35=D|1=CLIENT22|11=qR6yQT|21=3|38=206100|40=2|44=48.52398332998417|54=2|55=DD|60=20151204-14:30:00.003|107=E.I. Du Pont De Nemours and Company|10=064|"
"8=FIX.4.2|9=138|35=D|1=CLIENT76|11=TM4k8W|21=3|38=13300|40=2|44=75.30240223814084|54=2|55=HCA|60=20151204-14:30:00.003|107=Hca Holdings Inc. Common Stock|10=208|"
"8=FIX.4.2|9=137|35=D|1=CLIENT58|11=VNRnVK|21=3|38=68400|40=2|44=14.6365507302931|54=2|55=BEE|60=20151204-14:30:00.003|107=Strategic Hotels & Resorts Inc|10=048|"
"8=FIX.4.2|9=121|35=D|1=CLIENT58|11=CGV7aL|21=3|38=13300|40=2|44=75.24675784938931|54=2|55=FL|60=20151204-14:30:00.003|107=Footlocker Inc|10=127|"
"8=FIX.4.2|9=133|35=D|1=CLIENT22|11=ZCP2Qg|21=3|38=297400|40=2|44=33.63245578793101|54=1|55=CVC|60=20151204-14:30:00.003|107=Cablevision Systems Corp|10=232|"
"8=FIX.4.2|9=138|35=D|1=CLIENT50|11=47E3RT|21=3|38=13400|40=2|44=75.12460628753881|54=2|55=HCA|60=20151204-14:30:00.003|107=Hca Holdings Inc. Common Stock|10=151|"
"8=FIX.4.2|9=121|35=D|1=CLIENT48|11=GnyZXc|21=3|38=29600|40=2|44=33.79362463756464|54=1|55=XON|60=20151204-14:30:00.003|107=Intrexon Corp|10=024|"
"8=FIX.4.2|9=122|35=D|1=CLIENT14|11=jnjlrw|21=3|38=285800|40=2|44=35.00161937524165|54=1|55=XON|60=20151204-14:30:00.003|107=Intrexon Corp|10=136|"
"8=FIX.4.2|9=143|35=D|1=CLIENT206|11=LqFrCo|21=3|38=20900|40=2|44=48.05794010260236|54=1|55=DD|60=20151204-14:30:00.003|107=E.I. Du Pont De Nemours and Company|10=057|"
"8=FIX.4.2|9=125|35=D|1=CLIENT40|11=lxoJrQ|21=3|38=108100|40=2|44=9.25683608298444|54=1|55=CNX|60=20151204-14:30:00.003|107=Consol Energy Inc|10=069|"
"8=FIX.4.2|9=127|35=D|1=CLIENT16|11=I18EH9|21=3|38=167800|40=2|44=59.61910632955265|54=2|55=VLO|60=20151204-14:30:00.003|107=Valero Energy Corp|10=024|"
"8=FIX.4.2|9=117|35=D|1=CLIENT34|11=YnDt1d|21=3|38=9300|40=2|44=108.18253482300317|54=2|55=AET|60=20151204-14:30:00.003|107=Aetna Inc|10=204|"
"8=FIX.4.2|9=116|35=D|1=CLIENT179|11=aJQHW3|21=3|38=73100|40=2|44=13.69271465435719|54=2|55=KBH|60=20151204-14:30:00.003|107=KB Home|10=221|"
"8=FIX.4.2|9=117|35=D|1=CLIENT71|11=9Byn5d|21=3|38=8700|40=2|44=115.06369486647527|54=2|55=HD|60=20151204-14:30:00.003|107=Home Depot|10=003|"
"8=FIX.4.2|9=120|35=D|1=CLIENT7|11=iknPgN|21=3|38=726200|40=2|44=13.77180092783536|54=2|55=CPN|60=20151204-14:30:00.004|107=Calpine Corp|10=097|"
"8=FIX.4.2|9=124|35=D|1=CLIENT56|11=oL7PU4|21=3|38=23500|40=2|44=42.60670480286713|54=1|55=VIAB|60=20151204-14:30:00.004|107=Viacom Inc Cl B|10=122|"
"8=FIX.4.2|9=143|35=D|1=CLIENT260|11=MN3Foe|21=3|38=21300|40=2|44=47.15700513201752|54=2|55=DD|60=20151204-14:30:00.004|107=E.I. Du Pont De Nemours and Company|10=240|"
"8=FIX.4.2|9=142|35=D|1=CLIENT35|11=m7HFPU|21=3|38=21300|40=2|44=47.07177070732411|54=2|55=DD|60=20151204-14:30:00.004|107=E.I. Du Pont De Nemours and Company|10=182|"
"8=FIX.4.2|9=136|35=D|1=CLIENT34|11=Xx0yLA|21=3|38=23300|40=2|44=43.09358504653597|54=2|55=WWAV|60=20151204-14:30:00.004|107=The Whitewave Foods Company|10=031|"
"8=FIX.4.2|9=133|35=D|1=CLIENT1|11=0ByOiI|21=3|38=689400|40=2|44=14.50685361455617|54=2|55=AEO|60=20151204-14:30:00.004|107=American Eagle Outfitters|10=006|"
"8=FIX.4.2|9=134|35=D|1=CLIENT102|11=aqy0Ro|21=3|38=65100|40=2|44=15.37882530971593|54=2|55=AEO|60=20151204-14:30:00.004|107=American Eagle Outfitters|10=131|"
"8=FIX.4.2|9=140|35=D|1=CLIENT24|11=AjqEe8|21=3|38=772700|40=2|44=12.94230929195631|54=2|55=NRZ|60=20151204-14:30:00.004|107=New Residential Investment Corp|10=179|"
"8=FIX.4.2|9=127|35=D|1=CLIENT24|11=fFtGVy|21=3|38=-29955600|40=2|44=-0.33382542679989|54=2|55=HK|60=20151204-14:30:00.004|107=Halcon Resources|10=157|"
"8=FIX.4.2|9=140|35=D|1=CLIENT239|11=JDD1IL|21=3|38=63400|40=2|44=15.77871727702242|54=1|55=SNH|60=20151204-14:30:00.004|107=Senior Housing Properties Trust|10=121|"
"8=FIX.4.2|9=139|35=D|1=CLIENT38|11=Ye4IV8|21=3|38=15600|40=2|44=64.33638464995478|54=1|55=MNK|60=20151204-14:30:00.004|107=Mallinckrodt Plc Ordinary Share|10=049|"
"8=FIX.4.2|9=128|35=D|1=CLIENT14|11=0PdBhm|21=3|38=191200|40=2|44=52.31441455977875|54=2|55=HOG|60=20151204-14:30:00.004|107=Harley-Davidson Inc|10=223|"
"8=FIX.4.2|9=127|35=D|1=CLIENT56|11=01TZOe|21=3|38=51700|40=2|44=19.3620717083338|54=1|55=FITB|60=20151204-14:30:00.004|107=Fifth Third Bancorp|10=111|"
"8=FIX.4.2|9=132|35=D|1=CLIENT14|11=qGTD4B|21=3|38=400500|40=2|44=24.97423584889516|54=1|55=ETFC|60=20151204-14:30:00.004|107=E*Trade Financial Corp|10=160|"
"8=FIX.4.2|9=121|35=D|1=CLIENT31|11=CPHild|21=3|38=44800|40=2|44=22.34926239779514|54=1|55=JBL|60=20151204-14:30:00.004|107=Jabil Circuit|10=139|"
"8=FIX.4.2|9=122|35=D|1=CLIENT126|11=Lcexuv|21=3|38=47100|40=2|44=21.24445031976683|54=2|55=JBL|60=20151204-14:30:00.004|107=Jabil Circuit|10=023|"
"8=FIX.4.2|9=124|35=D|1=CLIENT25|11=yMo8DA|21=3|38=8710400|40=2|44=1.14806099059344|54=2|55=HK|60=20151204-14:30:00.004|107=Halcon Resources|10=174|"
"8=FIX.4.2|9=130|35=D|1=CLIENT17|11=KzExJE|21=3|38=267900|40=2|44=37.33356139611061|54=1|55=THC|60=20151204-14:30:00.004|107=Tenet Healthcare Corp|10=170|"
"8=FIX.4.2|9=129|35=D|1=CLIENT43|11=mCkb6Y|21=3|38=35300|40=2|44=28.35291151575779|54=1|55=CLR|60=20151204-14:30:00.004|107=Continental Resources|10=025|"
"8=FIX.4.2|9=131|35=D|1=CLIENT19|11=keHH7C|21=3|38=77600|40=2|44=128.88850547038675|54=1|55=BRK.B|60=20151204-14:30:00.004|107=Berkshire Hath Hld B|10=022|"
"8=FIX.4.2|9=122|35=D|1=CLIENT138|11=6k5vjy|21=3|38=4000|40=2|44=253.20575677366813|54=2|55=TSLA|60=20151204-14:30:00.004|107=Tesla Motors|10=249|"
"8=FIX.4.2|9=132|35=D|1=CLIENT68|11=c4RGgD|21=3|38=39700|40=2|44=25.24710422757018|54=1|55=FOX|60=20151204-14:30:00.004|107=21St Century Fox Class B|10=136|"
"8=FIX.4.2|9=125|35=D|1=CLIENT55|11=FKXdlb|21=3|38=107500|40=2|44=9.30961224939924|54=2|55=CNX|60=20151204-14:30:00.004|107=Consol Energy Inc|10=005|"
"8=FIX.4.2|9=128|35=D|1=CLIENT12|11=uFwz0X|21=3|38=100800|40=2|44=99.28162876638096|54=1|55=DIS|60=20151204-14:30:00.004|107=Walt Disney Company|10=055|"
"8=FIX.4.2|9=142|35=D|1=CLIENT214|11=1Lvx7f|21=3|38=14800|40=2|44=67.6948782336055|54=2|55=ENDP|60=20151204-14:30:00.004|107=Endo Pharmaceuticals Holdings Inc|10=079|"
"8=FIX.4.2|9=139|35=D|1=CLIENT45|11=mFpabw|21=3|38=45300|40=2|44=22.11882544197107|54=2|55=BRX|60=20151204-14:30:00.005|107=Brixmor Property Group Inc. Com|10=078|"
"8=FIX.4.2|9=139|35=D|1=CLIENT58|11=mAxgWK|21=3|38=73700|40=2|44=13.58177098094971|54=2|55=NRZ|60=20151204-14:30:00.005|107=New Residential Investment Corp|10=203|"
"8=FIX.4.2|9=141|35=D|1=CLIENT23|11=SrFjkZ|21=3|38=776100|40=2|44=12.88552419856165|54=1|55=PAH|60=20151204-14:30:00.005|107=Platform Specialty Products Corp|10=082|"
"8=FIX.4.2|9=121|35=D|1=CLIENT210|11=vEoKTd|21=3|38=13600|40=2|44=73.8755552899283|54=1|55=FL|60=20151204-14:30:00.005|107=Footlocker Inc|10=224|"
"8=FIX.4.2|9=136|35=D|1=CLIENT12|11=R8ezc4|21=3|38=419400|40=2|44=23.84689125699136|54=1|55=BKD|60=20151204-14:30:00.005|107=Brookdale Senior Living Inc|10=192|"
"8=FIX.4.2|9=118|35=D|1=CLIENT24|11=taFZie|21=3|38=445100|40=2|44=22.4686482049891|54=1|55=MAT|60=20151204-14:30:00.005|107=Mattel Inc|10=149|"
"8=FIX.4.2|9=124|35=D|1=CLIENT13|11=VIlyjx|21=3|38=6869200|40=2|44=1.45578439906417|54=2|55=HK|60=20151204-14:30:00.005|107=Halcon Resources|10=053|"
"8=FIX.4.2|9=137|35=D|1=CLIENT35|11=0qvAdn|21=3|38=61400|40=2|44=16.29759402948683|54=1|55=SWFT|60=20151204-14:30:00.005|107=Swift Transportation Company|10=083|"
"8=FIX.4.2|9=135|35=D|1=CLIENT25|11=10jnC2|21=3|38=265600|40=2|44=37.65765114819978|54=2|55=LUV|60=20151204-14:30:00.005|107=Southwest Airlines Company|10=220|"
"8=FIX.4.2|9=116|35=D|1=CLIENT52|11=IjDpHU|21=3|38=69700|40=2|44=14.34925744245827|54=1|55=DDR|60=20151204-14:30:00.005|107=Ddr Corp|10=128|"
"8=FIX.4.2|9=142|35=D|1=CLIENT38|11=kqxHC0|21=3|38=20700|40=2|44=48.52286571872418|54=2|55=DD|60=20151204-14:30:00.005|107=E.I. Du Pont De Nemours and Company|10=009|"
"8=FIX.4.2|9=133|35=D|1=CLIENT10|11=wXQM4A|21=3|38=307500|40=2|44=32.53068326042627|54=2|55=BWC|60=20151204-14:30:00.005|107=Babcock & Wilcox Company|10=033|"
"8=FIX.4.2|9=122|35=D|1=CLIENT59|11=s0Prja|21=3|38=433700|40=2|44=2.30594881074908|54=2|55=MNKD|60=20151204-14:30:00.005|107=Mannkind Corp|10=015|"
"8=FIX.4.2|9=112|35=D|1=CLIENT60|11=sCAhUr|21=3|38=38100|40=2|44=26.2658123188129|54=2|55=CA|60=20151204-14:30:00.005|107=CA Inc|10=247|"
"8=FIX.4.2|9=143|35=D|1=CLIENT247|11=W1afnJ|21=3|38=20700|40=2|44=48.42559908953721|54=2|55=DD|60=20151204-14:30:00.005|107=E.I. Du Pont De Nemours and Company|10=055|"
"8=FIX.4.2|9=133|35=D|1=CLIENT12|11=H6T8M3|21=3|38=311300|40=2|44=32.12761917101319|54=2|55=BWC|60=20151204-14:30:00.005|107=Babcock & Wilcox Company|10=191|"
"8=FIX.4.2|9=124|35=D|1=CLIENT204|11=W47LUx|21=3|38=47200|40=2|44=21.19627711523523|54=1|55=P|60=20151204-14:30:00.005|107=Pandora Media Inc|10=021|"
"8=FIX.4.2|9=136|35=D|1=CLIENT33|11=Ca3ASm|21=3|38=43600|40=2|44=22.9510183716247|54=2|55=XPO|60=20151204-14:30:00.005|107=Express-1 Expedited Solutions|10=083|"
"8=FIX.4.2|9=132|35=D|1=CLIENT136|11=hWQotO|21=3|38=29800|40=2|44=33.6279415337302|54=1|55=BWC|60=20151204-14:30:00.005|107=Babcock & Wilcox Company|10=091|"
"8=FIX.4.2|9=123|35=D|1=CLIENT22|11=2yiwJW|21=3|38=3193300|40=2|44=3.13160435964478|54=1|55=MNKD|60=20151204-14:30:00.005|107=Mannkind Corp|10=047|"
"8=FIX.4.2|9=119|35=D|1=CLIENT293|11=jeTgW3|21=3|38=19700|40=2|44=50.87224343744452|54=1|55=ETN|60=20151204-14:30:00.005|107=Eaton Corp|10=168|"
"8=FIX.4.2|9=126|35=D|1=CLIENT21|11=XJA4HR|21=3|38=403400|40=2|44=24.79162795343655|54=1|55=JNPR|60=20151204-14:30:00.005|107=Juniper Networks|10=066|"
"8=FIX.4.2|9=137|35=D|1=CLIENT49|11=cHDYVW|21=3|38=75000|40=2|44=13.3443554401217|54=2|55=BEE|60=20151204-14:30:00.005|107=Strategic Hotels & Resorts Inc|10=020|"
"8=FIX.4.2|9=117|35=D|1=CLIENT35|11=mczzHf|21=3|38=8700|40=2|44=115.83276645586626|54=1|55=HD|60=20151204-14:30:00.005|107=Home Depot|10=124|"
"8=FIX.4.2|9=123|35=D|1=CLIENT20|11=1QeJLe|21=3|38=494000|40=2|44=20.24341995541384|54=2|55=SYMC|60=20151204-14:30:00.005|107=Symantec Corp|10=008|"
"8=FIX.4.2|9=132|35=D|1=CLIENT34|11=9jdBui|21=3|38=30900|40=2|44=32.41152332990008|54=1|55=CVC|60=20151204-14:30:00.006|107=Cablevision Systems Corp|10=244|"
"8=FIX.4.2|9=122|35=D|1=CLIENT50|11=qQGFCt|21=3|38=13600|40=2|44=73.68136911720214|54=2|55=DE|60=20151204-14:30:00.006|107=Deere & Company|10=108|"
"8=FIX.4.2|9=116|35=D|1=CLIENT43|11=uuEWTQ|21=3|38=10500|40=2|44=95.89017041205649|54=2|55=CVS|60=20151204-14:30:00.006|107=CVS Corp|10=124|"
"8=FIX.4.2|9=134|35=D|1=CLIENT30|11=NQkdcV|21=3|38=11900|40=2|44=84.605934244311|54=2|55=WBA|60=20151204-14:30:00.006|107=Walgreens Boots Alliance Inc|10=153|"
"8=FIX.4.2|9=134|35=D|1=CLIENT59|11=e5Is9k|21=3|38=27100|40=2|44=37.01149192329051|54=2|55=LUV|60=20151204-14:30:00.006|107=Southwest Airlines Company|10=216|"
"8=FIX.4.2|9=131|35=D|1=CLIENT245|11=snmMHe|21=3|38=53400|40=2|44=18.72681144452937|54=2|55=CNP|60=20151204-14:30:00.006|107=Centerpoint Energy Inc|10=118|"
"8=FIX.4.2|9=117|35=D|1=CLIENT27|11=amqD0k|21=3|38=72100|40=2|44=13.87277902696358|54=2|55=ESV|60=20151204-14:30:00.006|107=Ensco Plc|10=028|"
"8=FIX.4.2|9=123|35=D|1=CLIENT13|11=SiYfzl|21=3|38=175600|40=2|44=56.97723414912257|54=1|55=AMBA|60=20151204-14:30:00.006|107=Ambarella Inc|10=045|"
"8=FIX.4.2|9=134|35=D|1=CLIENT3|11=OLy5gN|21=3|38=273400|40=2|44=36.58134185071724|54=2|55=LUV|60=20151204-14:30:00.006|107=Southwest Airlines Company|10=223|"
"8=FIX.4.2|9=135|35=D|1=CLIENT16|11=rP9EMR|21=3|38=10598300|40=2|44=0.94355605381721|54=2|55=EXXI|60=20151204-14:30:00.006|107=Energy Xxi [Bermuda] Ltd|10=235|"
"8=FIX.4.2|9=136|35=D|1=CLIENT16|11=O4Zill|21=3|38=438400|40=2|44=22.81173152082044|54=1|55=BKD|60=20151204-14:30:00.006|107=Brookdale Senior Living Inc|10=196|"
"8=FIX.4.2|9=129|35=D|1=CLIENT16|11=Yk4Aw9|21=3|38=716300|40=2|44=13.96254025975605|54=1|55=ASNA|60=20151204-14:30:00.006|107=Ascena Retail Group|10=007|"
"8=FIX.4.2|9=132|35=D|1=CLIENT51|11=TYZxi2|21=3|38=997300|40=2|44=1.0027378022258|54=1|55=EXXI|60=20151204-14:30:00.006|107=Energy Xxi [Bermuda] Ltd|10=135|"
"8=FIX.4.2|9=117|35=D|1=CLIENT17|11=ZnLTJn|21=3|38=103300|40=2|44=96.85370358952692|54=2|55=CVS|60=20151204-14:30:00.006|107=CVS Corp|10=181|"
"8=FIX.4.2|9=139|35=D|1=CLIENT15|11=PGEoqX|21=3|38=591300|40=2|44=16.91360697494978|54=1|55=KN|60=20151204-14:30:00.006|107=Knowles Corporation Common Stoc|10=153|"
"8=FIX.4.2|9=126|35=D|1=CLIENT51|11=RMrrBy|21=3|38=485400|40=2|44=2.0605134368106|54=1|55=BTU|60=20151204-14:30:00.006|107=Peabody Energy Corp|10=181|"
"8=FIX.4.2|9=120|35=D|1=CLIENT218|11=Fm1Ynd|21=3|38=21500|40=2|44=46.54359300349206|54=1|55=MET|60=20151204-14:30:00.006|107=Metlife Inc|10=227|"
"8=FIX.4.2|9=124|35=D|1=CLIENT20|11=hrnGmx|21=3|38=8424300|40=2|44=1.18704231359402|54=1|55=PLUG|60=20151204-14:30:00.006|107=Plug Power Inc|10=148|"
"8=FIX.4.2|9=135|35=D|1=CLIENT3|11=XVOW4t|21=3|38=184100|40=2|44=54.31929403399825|54=2|55=UAL|60=20151204-14:30:00.006|107=United Continental Holdings|10=014|"
"8=FIX.4.2|9=132|35=D|1=CLIENT50|11=ZArCyS|21=3|38=39100|40=2|44=25.61599247407256|54=2|55=FOX|60=20151204-14:30:00.006|107=21St Century Fox Class B|10=206|"
"8=FIX.4.2|9=123|35=D|1=CLIENT276|11=J6RwuO|21=3|38=294000|40=2|44=3.40193506383544|54=1|55=MNKD|60=20151204-14:30:00.006|107=Mannkind Corp|10=018|"
"8=FIX.4.2|9=127|35=D|1=CLIENT53|11=km4Czg|21=3|38=367800|40=2|44=2.71930610739644|54=1|55=HL|60=20151204-14:30:00.006|107=Hecla Mining Company|10=235|"
"8=FIX.4.2|9=117|35=D|1=CLIENT32|11=tUEBn9|21=3|38=71200|40=2|44=14.05093304857553|54=2|55=ESV|60=20151204-14:30:00.006|107=Ensco Plc|10=220|"
"8=FIX.4.2|9=119|35=D|1=CLIENT2|11=onGjO8|21=3|38=115800|40=2|44=86.38052680072462|54=1|55=DXCM|60=20151204-14:30:00.006|107=Dexcom Inc|10=163|"
"8=FIX.4.2|9=123|35=D|1=CLIENT58|11=h1CZ0I|21=3|38=48000|40=2|44=20.85481223929512|54=2|55=P|60=20151204-14:30:00.006|107=Pandora Media Inc|10=198|"
"8=FIX.4.2|9=132|35=D|1=CLIENT41|11=CYkrdR|21=3|38=23600|40=2|44=42.49173085103118|54=1|55=EMR|60=20151204-14:30:00.007|107=Emerson Electric Company|10=231|"
"8=FIX.4.2|9=127|35=D|1=CLIENT219|11=JKVhKw|21=3|38=17000|40=2|44=58.83774533177797|54=1|55=VLO|60=20151204-14:30:00.007|107=Valero Energy Corp|10=192|"
"8=FIX.4.2|9=123|35=D|1=CLIENT41|11=oiOCDE|21=3|38=50900|40=2|44=19.66247624327224|54=1|55=P|60=20151204-14:30:00.007|107=Pandora Media Inc|10=008|"
"8=FIX.4.2|9=118|35=D|1=CLIENT1|11=fu8RPW|21=3|38=199700|40=2|44=50.09125161555749|54=1|55=ETN|60=20151204-14:30:00.007|107=Eaton Corp|10=110|"
"8=FIX.4.2|9=139|35=D|1=CLIENT27|11=T8hl9E|21=3|38=72600|40=2|44=13.79007574458664|54=1|55=NRZ|60=20151204-14:30:00.007|107=New Residential Investment Corp|10=114|"
"8=FIX.4.2|9=124|35=D|1=CLIENT209|11=XdTeLN|21=3|38=18200|40=2|44=55.10790881501928|54=2|55=SLH|60=20151204-14:30:00.007|107=Solera Holdings|10=177|"
"8=FIX.4.2|9=131|35=D|1=CLIENT9|11=XdPaXU|21=3|38=402600|40=2|44=24.84263077343471|54=2|55=HRTX|60=20151204-14:30:00.007|107=Heron Therapeutics Inc|10=109|"
"8=FIX.4.2|9=137|35=D|1=CLIENT28|11=vHQOLL|21=3|38=44100|40=2|44=22.69269910616167|54=2|55=XPO|60=20151204-14:30:00.007|107=Express-1 Expedited Solutions|10=179|"
"8=FIX.4.2|9=132|35=D|1=CLIENT52|11=bbx4wH|21=3|38=30700|40=2|44=32.58817562113115|54=2|55=CVC|60=20151204-14:30:00.007|107=Cablevision Systems Corp|10=003|"
"8=FIX.4.2|9=119|35=D|1=CLIENT235|11=3XMvEW|21=3|38=47300|40=2|44=21.14845537687539|54=2|55=MAT|60=20151204-14:30:00.007|107=Mattel Inc|10=121|"
"8=FIX.4.2|9=128|35=D|1=CLIENT22|11=rnds8R|21=3|38=100400|40=2|44=99.60072971268137|54=2|55=DIS|60=20151204-14:30:00.007|107=Walt Disney Company|10=056|"
"8=FIX.4.2|9=122|35=D|1=CLIENT16|11=ubyK5y|21=3|38=453800|40=2|44=22.03730031688224|54=2|55=JBL|60=20151204-14:30:00.007|107=Jabil Circuit|10=228|"
"8=FIX.4.2|9=131|35=D|1=CLIENT41|11=5FUBp5|21=3|38=24300|40=2|44=41.2721401514786|54=1|55=CYH|60=20151204-14:30:00.007|107=Community Health Systems|10=112|"
"8=FIX.4.2|9=140|35=D|1=CLIENT61|11=Z1Hnxg|21=3|38=83200|40=2|44=12.03178550557101|54=1|55=PAH|60=20151204-14:30:00.007|107=Platform Specialty Products Corp|10=234|"
"8=FIX.4.2|9=133|35=D|1=CLIENT78|11=XSjY7u|21=3|38=2200|40=2|44=462.1918592380142|54=1|55=REGN|60=20151204-14:30:00.007|107=Regeneron Pharmaceuticals|10=182|"
"8=FIX.4.2|9=129|35=D|1=CLIENT4|11=E2C7KM|21=3|38=586000|40=2|44=17.0676627122323|54=2|55=CNP|60=20151204-14:30:00.007|107=Centerpoint Energy Inc|10=078|"
"8=FIX.4.2|9=140|35=D|1=CLIENT285|11=0pHzjx|21=3|38=342900|40=2|44=2.91702913754887|54=2|55=CRC|60=20151204-14:30:00.007|107=California Resources Corporatio|10=059|"
"8=FIX.4.2|9=118|35=D|1=CLIENT33|11=SMsG1n|21=3|38=22600|40=2|44=44.34652256702904|54=2|55=QRVO|60=20151204-14:30:00.007|107=Qorvo Inc|10=086|"
"8=FIX.4.2|9=128|35=D|1=CLIENT285|11=rSiEyx|21=3|38=1242500|40=2|44=0.8048802847323|54=2|55=BTU|60=20151204-14:30:00.007|107=Peabody Energy Corp|10=077|"
"8=FIX.4.2|9=134|35=D|1=CLIENT28|11=V58pzq|21=3|38=100300|40=2|44=9.97965463108269|54=2|55=HBAN|60=20151204-14:30:00.007|107=Huntington Bancshares Inc|10=142|"
"8=FIX.4.2|9=127|35=D|1=CLIENT9|11=eY1Ded|21=3|38=4661900|40=2|44=2.14505021017216|54=2|55=HL|60=20151204-14:30:00.007|107=Hecla Mining Company|10=163|"
"8=FIX.4.2|9=127|35=D|1=CLIENT55|11=jWRAUD|21=3|38=10100|40=2|44=99.96151869219271|54=2|55=DIS|60=20151204-14:30:00.007|107=Walt Disney Company|10=190|"
"8=FIX.4.2|9=126|35=D|1=CLIENT22|11=FgiEIH|21=3|38=1130600|40=2|44=8.84498668896734|54=1|55=NBR|60=20151204-14:30:00.007|107=Nabors Industries|10=145|"
"8=FIX.4.2|9=119|35=D|1=CLIENT51|11=I1roI7|21=3|38=21500|40=2|44=46.60601178665881|54=1|55=MET|60=20151204-14:30:00.007|107=Metlife Inc|10=141|"
"8=FIX.4.2|9=130|35=D|1=CLIENT241|11=JRwdFt|21=3|38=26000|40=2|44=38.56104742982358|54=2|55=THC|60=20151204-14:30:00.007|107=Tenet Healthcare Corp|10=206|"
"8=FIX.4.2|9=138|35=D|1=CLIENT52|11=Kl2Akz|21=3|38=15600|40=2|44=64.3440655067657|54=2|55=MNK|60=20151204-14:30:00.008|107=Mallinckrodt Plc Ordinary Share|10=050|"
"8=FIX.4.2|9=139|35=D|1=CLIENT94|11=OJ2MDF|21=3|38=686000|40=2|44=1.45781445816288|54=2|55=CRC|60=20151204-14:30:00.008|107=California Resources Corporatio|10=113|"
"8=FIX.4.2|9=119|35=D|1=CLIENT39|11=7piV3Z|21=3|38=61700|40=2|44=16.22594461268065|54=1|55=GLW|60=20151204-14:30:00.008|107=Corning Inc|10=186|"
"8=FIX.4.2|9=120|35=D|1=CLIENT47|11=6j2mqF|21=3|38=152200|40=2|44=6.57062193822176|54=2|55=ODP|60=20151204-14:30:00.008|107=Office Depot|10=006|"
"8=FIX.4.2|9=129|35=D|1=CLIENT232|11=t99T1s|21=3|38=10000|40=2|44=100.53388446439054|54=2|55=DIS|60=20151204-14:30:00.008|107=Walt Disney Company|10=252|"
"8=FIX.4.2|9=123|35=D|1=CLIENT290|11=goaKtI|21=3|38=17800|40=2|44=56.41512056039063|54=2|55=AMBA|60=20151204-14:30:00.008|107=Ambarella Inc|10=000|"
"8=FIX.4.2|9=119|35=D|1=CLIENT49|11=blT0Tr|21=3|38=52300|40=2|44=19.15251907945859|54=2|55=INSM|60=20151204-14:30:00.008|107=Insmed Inc|10=199|"
"8=FIX.4.2|9=123|35=D|1=CLIENT17|11=36yx6Z|21=3|38=379700|40=2|44=26.33880557970262|54=2|55=GLNG|60=20151204-14:30:00.008|107=Golar Lng Ltd|10=153|"
"8=FIX.4.2|9=121|35=D|1=CLIENT1|11=fg1N7o|21=3|38=180500|40=2|44=55.42050266407523|54=1|55=GIS|60=20151204-14:30:00.008|107=General Mills|10=106|"
"8=FIX.4.2|9=126|35=D|1=CLIENT59|11=YWANY7|21=3|38=16800|40=2|44=59.75513033425382|54=2|55=VLO|60=20151204-14:30:00.008|107=Valero Energy Corp|10=058|"
"8=FIX.4.2|9=135|35=D|1=CLIENT35|11=uoMZAh|21=3|38=44100|40=2|44=22.71608219108664|54=2|55=BKD|60=20151204-14:30:00.008|107=Brookdale Senior Living Inc|10=176|"
"8=FIX.4.2|9=134|35=D|1=CLIENT20|11=apGaSJ|21=3|38=1035800|40=2|44=9.65475636405668|54=1|55=MRVL|60=20151204-14:30:00.008|107=Marvell Technology Group|10=153|"
"8=FIX.4.2|9=131|35=D|1=CLIENT43|11=gXsT93|21=3|38=38200|40=2|44=26.1948923935568|54=1|55=FOX|60=20151204-14:30:00.008|107=21St Century Fox Class B|10=124|"
"8=FIX.4.2|9=116|35=D|1=CLIENT35|11=U9C2WA|21=3|38=10400|40=2|44=96.97751056641314|54=1|55=CVS|60=20151204-14:30:00.008|107=CVS Corp|10=241|"
"8=FIX.4.2|9=133|35=D|1=CLIENT276|11=1B0fZ0|21=3|38=24200|40=2|44=41.39655763642678|54=2|55=CYH|60=20151204-14:30:00.008|107=Community Health Systems|10=214|"
"8=FIX.4.2|9=134|35=D|1=CLIENT5|11=SCgvr3|21=3|38=264300|40=2|44=37.83932974136673|54=2|55=LUV|60=20151204-14:30:00.008|107=Southwest Airlines Company|10=012|"
"8=FIX.4.2|9=122|35=D|1=CLIENT56|11=G8PaER|21=3|38=17700|40=2|44=56.74070052387721|54=1|55=AMBA|60=20151204-14:30:00.008|107=Ambarella Inc|10=093|"
"8=FIX.4.2|9=135|35=D|1=CLIENT202|11=luo2l0|21=3|38=102200|40=2|44=9.78886182643226|54=2|55=HBAN|60=20151204-14:30:00.008|107=Huntington Bancshares Inc|10=183|"
"8=FIX.4.2|9=121|35=D|1=CLIENT96|11=teFMMi|21=3|38=23700|40=2|44=42.28857280933749|54=2|55=MDP|60=20151204-14:30:00.008|107=Meredith Corp|10=197|"
"8=FIX.4.2|9=124|35=D|1=CLIENT16|11=ty3sAG|21=3|38=207900|40=2|44=48.11457575938662|54=2|55=LNG|60=20151204-14:30:00.008|107=Cheniere Energy|10=182|"
"8=FIX.4.2|9=132|35=D|1=CLIENT51|11=UcpGVn|21=3|38=30900|40=2|44=32.39024694460431|54=2|55=CVC|60=20151204-14:30:00.008|107=Cablevision Systems Corp|10=010|"
"8=FIX.4.2|9=121|35=D|1=CLIENT36|11=KQJPoZ|21=3|38=17700|40=2|44=56.62835924239319|54=2|55=GIS|60=20151204-14:30:00.008|107=General Mills|10=150|"
"8=FIX.4.2|9=138|35=D|1=CLIENT46|11=OIX0RS|21=3|38=13200|40=2|44=76.25654853963289|54=2|55=HCA|60=20151204-14:30:00.008|107=Hca Holdings Inc. Common Stock|10=234|"
"8=FIX.4.2|9=128|35=D|1=CLIENT40|11=JVeowv|21=3|38=72100|40=2|44=13.87565764566106|54=1|55=ASNA|60=20151204-14:30:00.008|107=Ascena Retail Group|10=077|"
"8=FIX.4.2|9=133|35=D|1=CLIENT55|11=2fHq6v|21=3|38=115800|40=2|44=8.63632562692627|54=2|55=MRVL|60=20151204-14:30:00.008|107=Marvell Technology Group|10=079|"
"8=FIX.4.2|9=122|35=D|1=CLIENT11|11=aE8Lw0|21=3|38=278200|40=2|44=35.94745813990646|54=2|55=KR|60=20151204-14:30:00.009|107=Kroger Company|10=217|"
"8=FIX.4.2|9=125|35=D|1=CLIENT7|11=5He2uJ|21=3|38=970300|40=2|44=10.30672654568725|54=2|55=CNX|60=20151204-14:30:00.009|107=Consol Energy Inc|10=192|"
"8=FIX.4.2|9=121|35=D|1=CLIENT16|11=SycwY5|21=3|38=849900|40=2|44=11.76613965233855|54=2|55=SPLS|60=20151204-14:30:00.009|107=Staples Inc|10=153|"
"8=FIX.4.2|9=123|35=D|1=CLIENT27|11=jpsXeS|21=3|38=21400|40=2|44=46.77521174424793|54=1|55=LNG|60=20151204-14:30:00.009|107=Cheniere Energy|10=182|"
"8=FIX.4.2|9=123|35=D|1=CLIENT139|11=ZdQxTN|21=3|38=36600|40=2|44=27.32194632482268|54=2|55=GLNG|60=20151204-14:30:00.009|107=Golar Lng Ltd|10=207|"
"8=FIX.4.2|9=137|35=D|1=CLIENT34|11=5OZnD3|21=3|38=45500|40=2|44=21.98353694390493|54=1|55=XPO|60=20151204-14:30:00.009|107=Express-1 Expedited Solutions|10=136|"
"8=FIX.4.2|9=128|35=D|1=CLIENT22|11=DNwX7S|21=3|38=219000|40=2|44=45.66333998266376|54=2|55=DAL|60=20151204-14:30:00.009|107=Delta Air Lines Inc|10=069|"
"8=FIX.4.2|9=128|35=D|1=CLIENT53|11=lQeO6d|21=3|38=82500|40=2|44=12.12379642491958|54=2|55=ASNA|60=20151204-14:30:00.009|107=Ascena Retail Group|10=255|"
"8=FIX.4.2|9=124|35=D|1=CLIENT43|11=sowJ4A|21=3|38=49300|40=2|44=20.31542459228181|54=2|55=FINL|60=20151204-14:30:00.009|107=The Finish Line|10=079|"
"8=FIX.4.2|9=137|35=D|1=CLIENT256|11=GzQTVj|21=3|38=124900|40=2|44=8.00764528218544|54=1|55=TWO|60=20151204-14:30:00.009|107=Two Harbors Investments Corp|10=195|"
"8=FIX.4.2|9=125|35=D|1=CLIENT43|11=XbW7ct|21=3|38=26300|40=2|44=38.10668962404117|54=2|55=DVN|60=20151204-14:30:00.009|107=Devon Energy Corp|10=010|"
"8=FIX.4.2|9=133|35=D|1=CLIENT12|11=zivJal|21=3|38=311400|40=2|44=32.12188006810117|54=2|55=BWC|60=20151204-14:30:00.009|107=Babcock & Wilcox Company|10=165|"
"8=FIX.4.2|9=128|35=D|1=CLIENT23|11=U4SuyO|21=3|38=594600|40=2|44=16.81870968142011|54=2|55=NEM|60=20151204-14:30:00.009|107=Newmont Mining Corp|10=027|"
"8=FIX.4.2|9=120|35=D|1=CLIENT30|11=QANlKE|21=3|38=157400|40=2|44=6.35722131344446|54=2|55=ODP|60=20151204-14:30:00.009|107=Office Depot|10=226|"
"8=FIX.4.2|9=142|35=D|1=CLIENT52|11=2cRoPc|21=3|38=21400|40=2|44=46.84467139117066|54=1|55=DD|60=20151204-14:30:00.009|107=E.I. Du Pont De Nemours and Company|10=251|"
"8=FIX.4.2|9=139|35=D|1=CLIENT59|11=vaKsPm|21=3|38=15600|40=2|44=64.43250535262692|54=1|55=MNK|60=20151204-14:30:00.009|107=Mallinckrodt Plc Ordinary Share|10=169|"
"8=FIX.4.2|9=133|35=D|1=CLIENT21|11=jE5G2g|21=3|38=307400|40=2|44=32.53513892328682|54=1|55=BWC|60=20151204-14:30:00.009|107=Babcock & Wilcox Company|10=018|"
"8=FIX.4.2|9=121|35=D|1=CLIENT24|11=eZAjsf|21=3|38=748700|40=2|44=13.35674416273659|54=1|55=CPN|60=20151204-14:30:00.009|107=Calpine Corp|10=156|"
"8=FIX.4.2|9=130|35=D|1=CLIENT237|11=s2VqPP|21=3|38=67100|40=2|44=14.90470724235045|54=2|55=WETF|60=20151204-14:30:00.009|107=Wisdomtree Invstmnts|10=079|"
"8=FIX.4.2|9=132|35=D|1=CLIENT18|11=As4P8d|21=3|38=237700|40=2|44=42.08677732027849|54=2|55=PCRX|60=20151204-14:30:00.009|107=Pacira Pharmaceuticals|10=162|"
"8=FIX.4.2|9=137|35=D|1=CLIENT30|11=5qrf1e|21=3|38=56900|40=2|44=17.5979394530535|54=2|55=KN|60=20151204-14:30:00.009|107=Knowles Corporation Common Stoc|10=044|"
"8=FIX.4.2|9=125|35=D|1=CLIENT49|11=JxMZCQ|21=3|38=102600|40=2|44=9.75424520912482|54=2|55=CNX|60=20151204-14:30:00.009|107=Consol Energy Inc|10=227|"
"8=FIX.4.2|9=136|35=D|1=CLIENT1|11=iJATPM|21=3|38=667400|40=2|44=14.9851768710179|54=2|55=SWFT|60=20151204-14:30:00.009|107=Swift Transportation Company|10=222|"
"8=FIX.4.2|9=122|35=D|1=CLIENT33|11=MDK1uE|21=3|38=12500|40=2|44=80.147465408974|54=1|55=ESRX|60=20151204-14:30:00.009|107=Express Scripts|10=093|"
"8=FIX.4.2|9=127|35=D|1=CLIENT48|11=GhDNTp|21=3|38=61000|40=2|44=16.412773373954|54=2|55=WETF|60=20151204-14:30:00.009|107=Wisdomtree Invstmnts|10=188|"
"8=FIX.4.2|9=124|35=D|1=CLIENT66|11=KW5It9|21=3|38=48200|40=2|44=20.74820720182119|54=1|55=FINL|60=20151204-14:30:00.010|107=The Finish Line|10=251|"
"8=FIX.4.2|9=128|35=D|1=CLIENT14|11=0bBeut|21=3|38=738200|40=2|44=13.5472214684924|54=2|55=ASNA|60=20151204-14:30:00.010|107=Ascena Retail Group|10=005|"
"8=FIX.4.2|9=120|35=D|1=CLIENT186|11=Lz63Ax|21=3|38=13200|40=2|44=76.03700363615475|54=2|55=YUM|60=20151204-14:30:00.010|107=Yum! Brands|10=165|"
"8=FIX.4.2|9=136|35=D|1=CLIENT35|11=xbVvZA|21=3|38=45300|40=2|44=22.0957059395197|54=1|55=XPO|60=20151204-14:30:00.010|107=Express-1 Expedited Solutions|10=199|"
"8=FIX.4.2|9=134|35=D|1=CLIENT118|11=BMZyo0|21=3|38=114300|40=2|44=8.75023696618891|54=1|55=MRVL|60=20151204-14:30:00.010|107=Marvell Technology Group|10=124|"
"8=FIX.4.2|9=132|35=D|1=CLIENT55|11=H9iFyP|21=3|38=13500|40=2|44=74.38076046655354|54=2|55=AXP|60=20151204-14:30:00.010|107=American Express Company|10=202|"
"8=FIX.4.2|9=138|35=D|1=CLIENT57|11=p1Moxn|21=3|38=13300|40=2|44=75.60443461792465|54=2|55=HCA|60=20151204-14:30:00.010|107=Hca Holdings Inc. Common Stock|10=085|"
"8=FIX.4.2|9=135|35=D|1=CLIENT178|11=dKGLXd|21=3|38=88900|40=2|44=11.25023885586238|54=2|55=HBAN|60=20151204-14:30:00.010|107=Huntington Bancshares Inc|10=163|"
"8=FIX.4.2|9=118|35=D|1=CLIENT17|11=f8o2Ii|21=3|38=686500|40=2|44=14.56782208060252|54=1|55=ESV|60=20151204-14:30:00.010|107=Ensco Plc|10=015|"
"8=FIX.4.2|9=120|35=D|1=CLIENT102|11=3JUyLV|21=3|38=58600|40=2|44=17.08700777849903|54=1|55=GLW|60=20151204-14:30:00.010|107=Corning Inc|10=219|"
"8=FIX.4.2|9=127|35=D|1=CLIENT55|11=OfhSxf|21=3|38=14600|40=2|44=68.9220150330551|54=2|55=TROW|60=20151204-14:30:00.010|107=T. Rowe Price Group|10=159|"
"8=FIX.4.2|9=117|35=D|1=CLIENT32|11=BgmvaU|21=3|38=9300|40=2|44=107.63331355516266|54=2|55=AET|60=20151204-14:30:00.010|107=Aetna Inc|10=253|"
"8=FIX.4.2|9=127|35=D|1=CLIENT35|11=5mTZ37|21=3|38=51300|40=2|44=19.5046360601059|54=1|55=FITB|60=20151204-14:30:00.010|107=Fifth Third Bancorp|10=086|"
"8=FIX.4.2|9=120|35=D|1=CLIENT22|11=mfxAFM|21=3|38=615400|40=2|44=16.25025760858804|54=2|55=GLW|60=20151204-14:30:00.010|107=Corning Inc|10=002|"
"8=FIX.4.2|9=119|35=D|1=CLIENT58|11=t7apv1|21=3|38=235200|40=2|44=4.25303380350639|54=2|55=TROX|60=20151204-14:30:00.010|107=Tronox Inc|10=243|"
"8=FIX.4.2|9=126|35=D|1=CLIENT21|11=8LM4fR|21=3|38=1072000|40=2|44=9.32860265867284|54=2|55=CNX|60=20151204-14:30:00.010|107=Consol Energy Inc|10=207|"
"8=FIX.4.2|9=126|35=D|1=CLIENT39|11=X5TS9D|21=3|38=16700|40=2|44=60.05428321105029|54=2|55=VLO|60=20151204-14:30:00.010|107=Valero Energy Corp|10=001|"
"8=FIX.4.2|9=131|35=D|1=CLIENT27|11=KpaBBp|21=3|38=16400|40=2|44=61.16871288651252|54=2|55=APC|60=20151204-14:30:00.010|107=Anadarko Petroleum Corp|10=089|"
"8=FIX.4.2|9=131|35=D|1=CLIENT20|11=kkz7hX|21=3|38=561400|40=2|44=17.815391692518|54=2|55=AGNC|60=20151204-14:30:00.010|107=American Capital Agency|10=099|"
"8=FIX.4.2|9=137|35=D|1=CLIENT144|11=dPkukE|21=3|38=17600|40=2|44=57.13879718379815|54=1|55=AIG|60=20151204-14:30:00.010|107=American International Group|10=233|"
"8=FIX.4.2|9=132|35=D|1=CLIENT185|11=IkFl4i|21=3|38=1117500|40=2|44=0.89492486302346|54=1|55=AMD|60=20151204-14:30:00.010|107=Advanced Micro Devices|10=019|"
"8=FIX.4.2|9=127|35=D|1=CLIENT34|11=ZMdlhM|21=3|38=10100|40=2|44=99.54419278773126|54=2|55=DIS|60=20151204-14:30:00.010|107=Walt Disney Company|10=243|"
"8=FIX.4.2|9=132|35=D|1=CLIENT37|11=05fwEA|21=3|38=47400|40=2|44=21.11200156938358|54=1|55=STWD|60=20151204-14:30:00.010|107=Starwood Property Trust|10=222|"
"8=FIX.4.2|9=117|35=D|1=CLIENT41|11=dLaaWn|21=3|38=8700|40=2|44=115.76845067294452|54=2|55=HD|60=20151204-14:30:00.010|107=Home Depot|10=054|"
"8=FIX.4.2|9=138|35=D|1=CLIENT6|11=zIzqHR|21=3|38=605700|40=2|44=16.51203631256363|54=1|55=KN|60=20151204-14:30:00.010|107=Knowles Corporation Common Stoc|10=115|"
"8=FIX.4.2|9=133|35=D|1=CLIENT224|11=BvMVmk|21=3|38=30600|40=2|44=32.75422659412185|54=1|55=CVC|60=20151204-14:30:00.011|107=Cablevision Systems Corp|10=057|"
"8=FIX.4.2|9=124|35=D|1=CLIENT16|11=ygIUor|21=3|38=214700|40=2|44=46.59356850284182|54=2|55=LNG|60=20151204-14:30:00.011|107=Cheniere Energy|10=235|"
"8=FIX.4.2|9=139|35=D|1=CLIENT58|11=FMCUUW|21=3|38=134400|40=2|44=7.44046313811302|54=2|55=TTPH|60=20151204-14:30:00.011|107=Tetraphase Pharmaceuticals Inc|10=083|"
"8=FIX.4.2|9=124|35=D|1=CLIENT57|11=JNnbOz|21=3|38=23200|40=2|44=43.11172681899972|54=1|55=VIAB|60=20151204-14:30:00.011|107=Viacom Inc Cl B|10=234|"
"8=FIX.4.2|9=127|35=D|1=CLIENT56|11=xuxdV1|21=3|38=21900|40=2|44=45.66945218709788|54=1|55=DAL|60=20151204-14:30:00.011|107=Delta Air Lines Inc|10=123|"
"8=FIX.4.2|9=125|35=D|1=CLIENT46|11=cH82oK|21=3|38=10500|40=2|44=95.24673885588143|54=1|55=BLUE|60=20151204-14:30:00.011|107=Bluebird Bio Inc|10=103|"
"8=FIX.4.2|9=123|35=D|1=CLIENT103|11=Nl8dsh|21=3|38=17900|40=2|44=56.09342328055327|54=2|55=AMBA|60=20151204-14:30:00.011|107=Ambarella Inc|10=238|"
"8=FIX.4.2|9=140|35=D|1=CLIENT10|11=0LVGoN|21=3|38=715000|40=2|44=13.98609127229189|54=2|55=NRZ|60=20151204-14:30:00.011|107=New Residential Investment Corp|10=133|"
"8=FIX.4.2|9=133|35=D|1=CLIENT23|11=G6CURx|21=3|38=292800|40=2|44=34.16455119210369|54=1|55=BAX|60=20151204-14:30:00.011|107=Baxter International Inc|10=196|"
"8=FIX.4.2|9=130|35=D|1=CLIENT36|11=ZWtGDm|21=3|38=8800|40=2|44=113.86281913571607|54=2|55=UNH|60=20151204-14:30:00.011|107=Unitedhealth Group Inc|10=022|"
"8=FIX.4.2|9=121|35=D|1=CLIENT35|11=KCC7T1|21=3|38=17900|40=2|44=56.10294759073082|54=2|55=GIS|60=20151204-14:30:00.011|107=General Mills|10=022|"
"8=FIX.4.2|9=133|35=D|1=CLIENT24|11=cg1g0x|21=3|38=68800|40=2|44=145.36990944110943|54=1|55=ALXN|60=20151204-14:30:00.011|107=Alexion Pharmaceuticals|10=067|"
"8=FIX.4.2|9=130|35=D|1=CLIENT33|11=CxSvgn|21=3|38=750400|40=2|44=1.33268764063559|54=2|55=SNTA|60=20151204-14:30:00.011|107=Synta Pharmaceuticals|10=152|"
"8=FIX.4.2|9=139|35=D|1=CLIENT3|11=xkrJCA|21=3|38=155800|40=2|44=64.19773732047167|54=2|55=MNK|60=20151204-14:30:00.011|107=Mallinckrodt Plc Ordinary Share|10=122|"
"8=FIX.4.2|9=126|35=D|1=CLIENT10|11=q8VD4c|21=3|38=276000|40=2|44=36.23733599565194|54=2|55=FAST|60=20151204-14:30:00.011|107=Fastenal Company|10=044|"
"8=FIX.4.2|9=138|35=D|1=CLIENT56|11=LLZvO0|21=3|38=56700|40=2|44=17.65861225532993|54=1|55=KN|60=20151204-14:30:00.011|107=Knowles Corporation Common Stoc|10=045|"
"8=FIX.4.2|9=139|35=D|1=CLIENT43|11=WaE7UL|21=3|38=348700|40=2|44=2.86799302159289|54=1|55=CRC|60=20151204-14:30:00.011|107=California Resources Corporatio|10=161|"
"8=FIX.4.2|9=125|35=D|1=CLIENT16|11=PsiPgu|21=3|38=236200|40=2|44=42.34788994215877|54=2|55=VIAB|60=20151204-14:30:00.011|107=Viacom Inc Cl B|10=078|"
"8=FIX.4.2|9=128|35=D|1=CLIENT27|11=pkxNKC|21=3|38=54400|40=2|44=18.39389992843784|54=1|55=FITB|60=20151204-14:30:00.011|107=Fifth Third Bancorp|10=042|"
"8=FIX.4.2|9=124|35=D|1=CLIENT14|11=c9YRQV|21=3|38=483600|40=2|44=20.67867175550358|54=2|55=P|60=20151204-14:30:00.011|107=Pandora Media Inc|10=063|"
"8=FIX.4.2|9=133|35=D|1=CLIENT12|11=hLQApS|21=3|38=529000|40=2|44=18.90390261936741|54=2|55=AGNC|60=20151204-14:30:00.011|107=American Capital Agency|10=140|"
"8=FIX.4.2|9=117|35=D|1=CLIENT47|11=hDrbxq|21=3|38=77600|40=2|44=12.89966171280195|54=1|55=ESV|60=20151204-14:30:00.011|107=Ensco Plc|10=102|"
"8=FIX.4.2|9=132|35=D|1=CLIENT37|11=BqNoWi|21=3|38=13500|40=2|44=74.59177373124312|54=1|55=AXP|60=20151204-14:30:00.011|107=American Express Company|10=250|"
"8=FIX.4.2|9=126|35=D|1=CLIENT40|11=6gtkJo|21=3|38=59200|40=2|44=16.9164115990957|54=2|55=NEM|60=20151204-14:30:00.011|107=Newmont Mining Corp|10=207|"
"8=FIX.4.2|9=134|35=D|1=CLIENT18|11=qXfan7|21=3|38=679700|40=2|44=14.71419350951346|54=2|55=AEO|60=20151204-14:30:00.011|107=American Eagle Outfitters|10=132|"
"8=FIX.4.2|9=136|35=D|1=CLIENT53|11=usrFUo|21=3|38=18000|40=2|44=55.80999599376401|54=2|55=AIG|60=20151204-14:30:00.012|107=American International Group|10=213|"
"8=FIX.4.2|9=138|35=D|1=CLIENT275|11=ifGZSS|21=3|38=45900|40=2|44=21.79599131349459|54=1|55=XPO|60=20151204-14:30:00.012|107=Express-1 Expedited Solutions|10=020|"
"8=FIX.4.2|9=127|35=D|1=CLIENT27|11=NI7rnz|21=3|38=59600|40=2|44=16.78946333219375|54=2|55=NEM|60=20151204-14:30:00.012|107=Newmont Mining Corp|10=001|"
"8=FIX.4.2|9=135|35=D|1=CLIENT4|11=Z2KoBN|21=3|38=422800|40=2|44=23.65682895926355|54=2|55=BKD|60=20151204-14:30:00.012|107=Brookdale Senior Living Inc|10=101|"
"8=FIX.4.2|9=133|35=D|1=CLIENT51|11=v5Wpz1|21=3|38=107000|40=2|44=9.34811020081711|54=1|55=MRVL|60=20151204-14:30:00.012|107=Marvell Technology Group|10=067|"
"8=FIX.4.2|9=142|35=D|1=CLIENT30|11=329CYH|21=3|38=21200|40=2|44=47.38476524197824|54=2|55=DD|60=20151204-14:30:00.012|107=E.I. Du Pont De Nemours and Company|10=113|"
"8=FIX.4.2|9=117|35=D|1=CLIENT31|11=LQmtGm|21=3|38=8800|40=2|44=114.86295510759014|54=2|55=HD|60=20151204-14:30:00.012|107=Home Depot|10=043|"
"8=FIX.4.2|9=117|35=D|1=CLIENT47|11=0cExUn|21=3|38=70600|40=2|44=14.16755811894127|54=1|55=ESV|60=20151204-14:30:00.012|107=Ensco Plc|10=005|"
"8=FIX.4.2|9=121|35=D|1=CLIENT26|11=a1fVC5|21=3|38=29700|40=2|44=33.72473318930486|54=2|55=XON|60=20151204-14:30:00.012|107=Intrexon Corp|10=146|"
"8=FIX.4.2|9=132|35=D|1=CLIENT55|11=FwwdGQ|21=3|38=23900|40=2|44=41.91188316940107|54=1|55=CYH|60=20151204-14:30:00.012|107=Community Health Systems|10=042|"
"8=FIX.4.2|9=122|35=D|1=CLIENT27|11=98EUHQ|21=3|38=47700|40=2|44=20.9754493227867|54=1|55=ALLY|60=20151204-14:30:00.012|107=Ally Financial|10=174|"
"8=FIX.4.2|9=125|35=D|1=CLIENT46|11=WPPJct|21=3|38=27400|40=2|44=36.51312495692602|54=2|55=DVN|60=20151204-14:30:00.012|107=Devon Energy Corp|10=000|"
"8=FIX.4.2|9=128|35=D|1=CLIENT19|11=NPAKAf|21=3|38=101000|40=2|44=99.06550691700497|54=2|55=DIS|60=20151204-14:30:00.012|107=Walt Disney Company|10=199|"
"8=FIX.4.2|9=123|35=D|1=CLIENT51|11=XSQc9Y|21=3|38=31700|40=2|44=31.57427832768847|54=1|55=FE|60=20151204-14:30:00.012|107=Firstenergy Corp|10=145|"
"8=FIX.4.2|9=143|35=D|1=CLIENT24|11=rq5rQ6|21=3|38=147500|40=2|44=67.83313915631418|54=2|55=ENDP|60=20151204-14:30:00.012|107=Endo Pharmaceuticals Holdings Inc|10=129|"
"8=FIX.4.2|9=138|35=D|1=CLIENT40|11=yTdGk4|21=3|38=37000|40=2|44=27.04489981365736|54=2|55=DISCA|60=20151204-14:30:00.012|107=Discovery Communications Inc|10=041|"
"8=FIX.4.2|9=140|35=D|1=CLIENT23|11=BcKOWL|21=3|38=153100|40=2|44=65.32177939610855|54=1|55=MNK|60=20151204-14:30:00.012|107=Mallinckrodt Plc Ordinary Share|10=093|"
"8=FIX.4.2|9=134|35=D|1=CLIENT21|11=jh4SvX|21=3|38=1010800|40=2|44=9.89362292065971|54=1|55=MRVL|60=20151204-14:30:00.012|107=Marvell Technology Group|10=157|"
"8=FIX.4.2|9=119|35=D|1=CLIENT33|11=NRT3W1|21=3|38=21200|40=2|44=47.32910050430224|54=1|55=MET|60=20151204-14:30:00.012|107=Metlife Inc|10=063|"
"8=FIX.4.2|9=134|35=D|1=CLIENT170|11=qGjhue|21=3|38=63800|40=2|44=15.69437079784821|54=1|55=AEO|60=20151204-14:30:00.012|107=American Eagle Outfitters|10=184|"
"8=FIX.4.2|9=137|35=D|1=CLIENT34|11=tkoa77|21=3|38=34200|40=2|44=29.31091050061195|54=1|55=GT|60=20151204-14:30:00.012|107=Goodyear Tire & Rubber Company|10=026|"
"8=FIX.4.2|9=143|35=D|1=CLIENT12|11=JfWZRU|21=3|38=147500|40=2|44=67.81311862214122|54=1|55=ENDP|60=20151204-14:30:00.012|107=Endo Pharmaceuticals Holdings Inc|10=102|"
"8=FIX.4.2|9=139|35=D|1=CLIENT14|11=w7j4ay|21=3|38=132900|40=2|44=75.28138204347044|54=1|55=HCA|60=20151204-14:30:00.012|107=Hca Holdings Inc. Common Stock|10=096|"
"8=FIX.4.2|9=127|35=D|1=CLIENT55|11=BVE7GY|21=3|38=51300|40=2|44=19.5107323945411|54=1|55=FITB|60=20151204-14:30:00.012|107=Fifth Third Bancorp|10=084|"
"8=FIX.4.2|9=127|35=D|1=CLIENT28|11=Frbe3V|21=3|38=22500|40=2|44=44.49381641129796|54=1|55=DAL|60=20151204-14:30:00.012|107=Delta Air Lines Inc|10=037|"
"8=FIX.4.2|9=129|35=D|1=CLIENT254|11=LqUfzi|21=3|38=72900|40=2|44=13.72546016847389|54=2|55=ASNA|60=20151204-14:30:00.013|107=Ascena Retail Group|10=130|"
"8=FIX.4.2|9=139|35=D|1=CLIENT23|11=pWh0BK|21=3|38=566900|40=2|44=17.64238936098363|54=2|55=KN|60=20151204-14:30:00.013|107=Knowles Corporation Common Stoc|10=108|"
"8=FIX.4.2|9=136|35=D|1=CLIENT2|11=MyGkKd|21=3|38=1245900|40=2|44=8.02675120288981|54=2|55=TWO|60=20151204-14:30:00.013|107=Two Harbors Investments Corp|10=140|"
"8=FIX.4.2|9=130|35=D|1=CLIENT140|11=CBW69H|21=3|38=25800|40=2|44=38.82096168278312|54=1|55=NWL|60=20151204-14:30:00.013|107=Newell Rubbermaid Inc|10=059|"
"8=FIX.4.2|9=138|35=D|1=CLIENT54|11=DWWct9|21=3|38=74100|40=2|44=13.50461483571399|54=2|55=BEE|60=20151204-14:30:00.013|107=Strategic Hotels & Resorts Inc|10=099|"
"8=FIX.4.2|9=121|35=D|1=CLIENT35|11=1LHSwE|21=3|38=74600|40=2|44=13.42209214031457|54=1|55=PE|60=20151204-14:30:00.013|107=Parsley Energy|10=135|"
"8=FIX.4.2|9=118|35=D|1=CLIENT12|11=6ObeKs|21=3|38=750700|40=2|44=13.32249540596494|54=2|55=ESV|60=20151204-14:30:00.013|107=Ensco Plc|10=045|"
"8=FIX.4.2|9=129|35=D|1=CLIENT37|11=mKA6Ak|21=3|38=42200|40=2|44=23.73175136199809|54=2|55=SBH|60=20151204-14:30:00.013|107=Sally Beauty Holdings|10=111|"
"8=FIX.4.2|9=126|35=D|1=CLIENT15|11=qTwg9b|21=3|38=981100|40=2|44=10.19365845066184|54=1|55=NBR|60=20151204-14:30:00.013|107=Nabors Industries|10=203|"
"8=FIX.4.2|9=135|35=D|1=CLIENT243|11=G6F2Fn|21=3|38=26300|40=2|44=38.12629554561761|54=2|55=LUV|60=20151204-14:30:00.013|107=Southwest Airlines Company|10=192|"
"8=FIX.4.2|9=118|35=D|1=CLIENT116|11=vZJJxH|21=3|38=68200|40=2|44=14.67419489689129|54=2|55=ESV|60=20151204-14:30:00.013|107=Ensco Plc|10=091|"
"8=FIX.4.2|9=127|35=D|1=CLIENT34|11=hBFzrc|21=3|38=10200|40=2|44=98.93179157936459|54=1|55=DIS|60=20151204-14:30:00.013|107=Walt Disney Company|10=020|"
"8=FIX.4.2|9=123|35=D|1=CLIENT52|11=mRsFuK|21=3|38=48900|40=2|44=20.48781378304283|54=1|55=P|60=20151204-14:30:00.013|107=Pandora Media Inc|10=084|"
"8=FIX.4.2|9=122|35=D|1=CLIENT17|11=lT39uQ|21=3|38=235800|40=2|44=42.41671818600985|54=1|55=MDP|60=20151204-14:30:00.013|107=Meredith Corp|10=181|"
"8=FIX.4.2|9=123|35=D|1=CLIENT13|11=yoeTXR|21=3|38=371500|40=2|44=26.92193300943552|54=2|55=GLNG|60=20151204-14:30:00.013|107=Golar Lng Ltd|10=222|"
"8=FIX.4.2|9=136|35=D|1=CLIENT133|11=fBQsED|21=3|38=45000|40=2|44=22.23402339339204|54=2|55=BKD|60=20151204-14:30:00.013|107=Brookdale Senior Living Inc|10=145|"
"8=FIX.4.2|9=131|35=D|1=CLIENT33|11=0MxaTD|21=3|38=16400|40=2|44=61.30517238850313|54=2|55=APC|60=20151204-14:30:00.013|107=Anadarko Petroleum Corp|10=042|"
"8=FIX.4.2|9=127|35=D|1=CLIENT3|11=O2gKEx|21=3|38=8619100|40=2|44=1.16022351828916|54=1|55=HL|60=20151204-14:30:00.013|107=Hecla Mining Company|10=158|"
"8=FIX.4.2|9=122|35=D|1=CLIENT12|11=Zmyfjs|21=3|38=39500|40=2|44=253.15829945426896|54=2|55=TSLA|60=20151204-14:30:00.013|107=Tesla Motors|10=093|"
"8=FIX.4.2|9=129|35=D|1=CLIENT41|11=Yqb3cf|21=3|38=26500|40=2|44=37.74487029709527|54=1|55=THC|60=20151204-14:30:00.013|107=Tenet Healthcare Corp|10=162|"
"8=FIX.4.2|9=118|35=D|1=CLIENT12|11=2TPQnx|21=3|38=619400|40=2|44=16.14510187604674|54=1|55=OLN|60=20151204-14:30:00.013|107=Olin Corp|10=049|"
"8=FIX.4.2|9=132|35=D|1=CLIENT28|11=5RJqSU|21=3|38=23800|40=2|44=42.06549614142411|54=1|55=CYH|60=20151204-14:30:00.013|107=Community Health Systems|10=219|"
"8=FIX.4.2|9=119|35=D|1=CLIENT207|11=ntmoMq|21=3|38=20100|40=2|44=49.98152614902765|54=1|55=ETN|60=20151204-14:30:00.013|107=Eaton Corp|10=010|"
"8=FIX.4.2|9=123|35=D|1=CLIENT41|11=bmKBpW|21=3|38=73700|40=2|44=13.57310266758718|54=2|55=LC|60=20151204-14:30:00.013|107=Lendingclub Corp|10=151|"
"8=FIX.4.2|9=124|35=D|1=CLIENT31|11=zLQwga|21=3|38=12400|40=2|44=80.87017524919197|54=2|55=ESRX|60=20151204-14:30:00.013|107=Express Scripts|10=082|"
"8=FIX.4.2|9=128|35=D|1=CLIENT8|11=c9ps1U|21=3|38=519000|40=2|44=19.26835972096091|54=2|55=FITB|60=20151204-14:30:00.014|107=Fifth Third Bancorp|10=243|"
"8=FIX.4.2|9=134|35=D|1=CLIENT2|11=JfsIWH|21=3|38=313300|40=2|44=31.9226151789335|54=2|55=AMTD|60=20151204-14:30:00.014|107=TD Ameritrade Holding Corp|10=014|"
"8=FIX.4.2|9=141|35=D|1=CLIENT60|11=iesrMN|21=3|38=14800|40=2|44=67.8685818722748|54=1|55=ENDP|60=20151204-14:30:00.014|107=Endo Pharmaceuticals Holdings Inc|10=107|"
"8=FIX.4.2|9=132|35=D|1=CLIENT38|11=MfSVPA|21=3|38=24100|40=2|44=41.58016529304857|54=1|55=CYH|60=20151204-14:30:00.014|107=Community Health Systems|10=232|"
"8=FIX.4.2|9=133|35=D|1=CLIENT45|11=qrjQBK|21=3|38=109600|40=2|44=9.12712285319144|54=1|55=MRVL|60=20151204-14:30:00.014|107=Marvell Technology Group|10=107|"
"8=FIX.4.2|9=122|35=D|1=CLIENT23|11=6XMscT|21=3|38=238900|40=2|44=41.86665291145537|54=2|55=MDP|60=20151204-14:30:00.014|107=Meredith Corp|10=206|"
"8=FIX.4.2|9=120|35=D|1=CLIENT13|11=j9Xmrx|21=3|38=627700|40=2|44=15.93335330424779|54=2|55=GLW|60=20151204-14:30:00.014|107=Corning Inc|10=064|"
"8=FIX.4.2|9=136|35=D|1=CLIENT31|11=nSm92J|21=3|38=11900|40=2|44=84.62536026081759|54=1|55=WBA|60=20151204-14:30:00.014|107=Walgreens Boots Alliance Inc|10=200|"
"8=FIX.4.2|9=128|35=D|1=CLIENT234|11=DomU8l|21=3|38=18800|40=2|44=53.44251289932485|54=1|55=HOG|60=20151204-14:30:00.014|107=Harley-Davidson Inc|10=002|"
"8=FIX.4.2|9=136|35=D|1=CLIENT23|11=1NhAYf|21=3|38=453500|40=2|44=22.05097192563773|54=2|55=BKD|60=20151204-14:30:00.014|107=Brookdale Senior Living Inc|10=155|"
"8=FIX.4.2|9=125|35=D|1=CLIENT14|11=kxXVQg|21=3|38=947800|40=2|44=10.5517389175362|54=1|55=CNX|60=20151204-14:30:00.014|107=Consol Energy Inc|10=052|"
"8=FIX.4.2|9=135|35=D|1=CLIENT3|11=lR9JIZ|21=3|38=440000|40=2|44=22.72861146080582|54=1|55=BKD|60=20151204-14:30:00.014|107=Brookdale Senior Living Inc|10=085|"
"8=FIX.4.2|9=136|35=D|1=CLIENT40|11=JaPjeB|21=3|38=104000|40=2|44=9.62401372535778|54=2|55=TWO|60=20151204-14:30:00.014|107=Two Harbors Investments Corp|10=102|"
"8=FIX.4.2|9=122|35=D|1=CLIENT53|11=0f8N0n|21=3|38=25000|40=2|44=40.12880603725864|54=2|55=FLS|60=20151204-14:30:00.014|107=Flowserve Corp|10=205|"
"8=FIX.4.2|9=125|35=D|1=CLIENT6|11=pOyojl|21=3|38=1971600|40=2|44=5.07217243850592|54=1|55=AMKR|60=20151204-14:30:00.014|107=Amkor Technology|10=168|"
"8=FIX.4.2|9=120|35=D|1=CLIENT8|11=3rUPYM|21=3|38=1596700|40=2|44=6.26307763723796|54=1|55=ODP|60=20151204-14:30:00.014|107=Office Depot|10=020|"
"8=FIX.4.2|9=121|35=D|1=CLIENT28|11=Ik4h1Q|21=3|38=4000|40=2|44=252.60405192251307|54=1|55=TSLA|60=20151204-14:30:00.014|107=Tesla Motors|10=083|"
"8=FIX.4.2|9=127|35=D|1=CLIENT24|11=tfvhOf|21=3|38=-30501800|40=2|44=-0.32784751167237|54=2|55=HK|60=20151204-14:30:00.014|107=Halcon Resources|10=179|"
"8=FIX.4.2|9=127|35=D|1=CLIENT48|11=xwGZJ4|21=3|38=692200|40=2|44=1.44477796087554|54=2|55=BTU|60=20151204-14:30:00.014|107=Peabody Energy Corp|10=219|"
"8=FIX.4.2|9=122|35=D|1=CLIENT11|11=UaAaIq|21=3|38=39700|40=2|44=252.26228272392567|54=1|55=TSLA|60=20151204-14:30:00.014|107=Tesla Motors|10=221|"
"8=FIX.4.2|9=134|35=D|1=CLIENT58|11=yjxEiW|21=3|38=26400|40=2|44=37.97921220503564|54=2|55=LUV|60=20151204-14:30:00.014|107=Southwest Airlines Company|10=070|"
"8=FIX.4.2|9=122|35=D|1=CLIENT21|11=5qE653|21=3|38=444100|40=2|44=22.51956956418248|54=1|55=JBL|60=20151204-14:30:00.014|107=Jabil Circuit|10=048|"
"8=FIX.4.2|9=119|35=D|1=CLIENT32|11=anWb43|21=3|38=40100|40=2|44=24.99441043644934|54=2|55=CTL|60=20151204-14:30:00.014|107=Centurylink|10=046|"
"8=FIX.4.2|9=123|35=D|1=CLIENT13|11=FPTDs4|21=3|38=195800|40=2|44=51.07787386064204|54=1|55=BRCM|60=20151204-14:30:00.014|107=Broadcom Corp|10=209|"
"8=FIX.4.2|9=135|35=D|1=CLIENT14|11=jftzaV|21=3|38=941300|40=2|44=10.62401607806053|54=2|55=HBAN|60=20151204-14:30:00.014|107=Huntington Bancshares Inc|10=249|"
"8=FIX.4.2|9=116|35=D|1=CLIENT36|11=rRF5Lc|21=3|38=10300|40=2|44=97.09752182567635|54=2|55=CVS|60=20151204-14:30:00.015|107=CVS Corp|10=075|"
"8=FIX.4.2|9=140|35=D|1=CLIENT38|11=XvEvgn|21=3|38=82700|40=2|44=12.09956976243751|54=1|55=PAH|60=20151204-14:30:00.015|107=Platform Specialty Products Corp|10=072|"
"8=FIX.4.2|9=121|35=D|1=CLIENT11|11=O7liIG|21=3|38=101900|40=2|44=98.17392847605961|54=1|55=INCY|60=20151204-14:30:00.015|107=Incyte Corp|10=061|"
"8=FIX.4.2|9=131|35=D|1=CLIENT58|11=kfIQtp|21=3|38=1440700|40=2|44=0.69413042564374|54=1|55=AMD|60=20151204-14:30:00.015|107=Advanced Micro Devices|10=041|"
"8=FIX.4.2|9=142|35=D|1=CLIENT42|11=CiS2in|21=3|38=15000|40=2|44=66.96336332700682|54=1|55=ENDP|60=20151204-14:30:00.015|107=Endo Pharmaceuticals Holdings Inc|10=063|"
"8=FIX.4.2|9=135|35=D|1=CLIENT152|11=8f1mnJ|21=3|38=106000|40=2|44=9.43909911742329|54=1|55=HBAN|60=20151204-14:30:00.015|107=Huntington Bancshares Inc|10=136|"
"8=FIX.4.2|9=129|35=D|1=CLIENT3|11=T1eYrD|21=3|38=618200|40=2|44=16.17836653774025|54=1|55=WETF|60=20151204-14:30:00.015|107=Wisdomtree Invstmnts|10=024|"
"8=FIX.4.2|9=138|35=D|1=CLIENT37|11=rqyV8k|21=3|38=72200|40=2|44=13.85234776178798|54=1|55=BEE|60=20151204-14:30:00.015|107=Strategic Hotels & Resorts Inc|10=200|"
"8=FIX.4.2|9=122|35=D|1=CLIENT18|11=EonnCv|21=3|38=296500|40=2|44=33.72811420341282|54=2|55=XON|60=20151204-14:30:00.015|107=Intrexon Corp|10=058|"
"8=FIX.4.2|9=119|35=D|1=CLIENT26|11=hE3W0y|21=3|38=13000|40=2|44=77.48513009513168|54=2|55=YUM|60=20151204-14:30:00.015|107=Yum! Brands|10=118|"
"8=FIX.4.2|9=133|35=D|1=CLIENT74|11=2eVRcS|21=3|38=101600|40=2|44=9.85155524180872|54=1|55=MRVL|60=20151204-14:30:00.015|107=Marvell Technology Group|10=059|"
"8=FIX.4.2|9=130|35=D|1=CLIENT23|11=gTSstd|21=3|38=259800|40=2|44=38.49292151821438|54=2|55=THC|60=20151204-14:30:00.015|107=Tenet Healthcare Corp|10=254|"
"8=FIX.4.2|9=118|35=D|1=CLIENT21|11=0goL7g|21=3|38=92900|40=2|44=107.67804782746046|54=1|55=AET|60=20151204-14:30:00.015|107=Aetna Inc|10=244|"
"8=FIX.4.2|9=122|35=D|1=CLIENT42|11=RLNBxR|21=3|38=37100|40=2|44=27.01368716387581|54=2|55=GLNG|60=20151204-14:30:00.015|107=Golar Lng Ltd|10=099|"
"8=FIX.4.2|9=122|35=D|1=CLIENT41|11=4FBjEV|21=3|38=248900|40=2|44=4.01862854241728|54=1|55=MNKD|60=20151204-14:30:00.015|107=Mannkind Corp|10=151|"
"8=FIX.4.2|9=120|35=D|1=CLIENT11|11=8k0iSe|21=3|38=3479400|40=2|44=2.874102226883|54=1|55=AVP|60=20151204-14:30:00.015|107=Avon Products|10=113|"
"8=FIX.4.2|9=117|35=D|1=CLIENT31|11=Zae70D|21=3|38=76000|40=2|44=13.16365415189716|54=1|55=ESV|60=20151204-14:30:00.015|107=Ensco Plc|10=182|"
"8=FIX.4.2|9=139|35=D|1=CLIENT31|11=EbAEXA|21=3|38=15700|40=2|44=63.97158159981377|54=2|55=MNK|60=20151204-14:30:00.015|107=Mallinckrodt Plc Ordinary Share|10=043|"
"8=FIX.4.2|9=137|35=D|1=CLIENT50|11=kbTBtS|21=3|38=13300|40=2|44=75.5675697830967|54=2|55=HCA|60=20151204-14:30:00.015|107=Hca Holdings Inc. Common Stock|10=026|"
"8=FIX.4.2|9=121|35=D|1=CLIENT27|11=zjrs1d|21=3|38=47200|40=2|44=21.22047875897841|54=1|55=JBL|60=20151204-14:30:00.015|107=Jabil Circuit|10=217|"
"8=FIX.4.2|9=117|35=D|1=CLIENT37|11=FPNuVf|21=3|38=77700|40=2|44=12.88353669735339|54=1|55=ESV|60=20151204-14:30:00.015|107=Ensco Plc|10=028|"
"8=FIX.4.2|9=130|35=D|1=CLIENT27|11=iiQyuZ|21=3|38=39600|40=2|44=25.2750959873464|54=2|55=HRTX|60=20151204-14:30:00.015|107=Heron Therapeutics Inc|10=157|"
"8=FIX.4.2|9=120|35=D|1=CLIENT35|11=8fhDGL|21=3|38=70700|40=2|44=14.15774803208863|54=2|55=GNTX|60=20151204-14:30:00.015|107=Gentex Corp|10=003|"
"8=FIX.4.2|9=117|35=D|1=CLIENT88|11=1jWYxy|21=3|38=9400|40=2|44=107.28145235473659|54=1|55=AET|60=20151204-14:30:00.015|107=Aetna Inc|10=016|"
"8=FIX.4.2|9=137|35=D|1=CLIENT55|11=yK1f4l|21=3|38=43700|40=2|44=22.93440966059342|54=2|55=XPO|60=20151204-14:30:00.015|107=Express-1 Expedited Solutions|10=183|"
"8=FIX.4.2|9=131|35=D|1=CLIENT251|11=0nwLhP|21=3|38=40500|40=2|44=24.7167433894356|54=2|55=HRTX|60=20151204-14:30:00.016|107=Heron Therapeutics Inc|10=111|"
"8=FIX.4.2|9=128|35=D|1=CLIENT7|11=M6h1i2|21=3|38=551000|40=2|44=18.15106776409452|54=1|55=WU|60=20151204-14:30:00.016|107=Western Union Company|10=052|"
"8=FIX.4.2|9=134|35=D|1=CLIENT29|11=LGXGXp|21=3|38=19500|40=2|44=51.4831057754057|54=2|55=DFS|60=20151204-14:30:00.016|107=Discover Financial Services|10=186|"
"8=FIX.4.2|9=136|35=D|1=CLIENT34|11=aUvLTF|21=3|38=119800|40=2|44=8.35202623557179|54=1|55=TWO|60=20151204-14:30:00.016|107=Two Harbors Investments Corp|10=122|"
"8=FIX.4.2|9=135|35=D|1=CLIENT42|11=znKo7l|21=3|38=19100|40=2|44=52.58987894598875|54=2|55=UAL|60=20151204-14:30:00.016|107=United Continental Holdings|10=119|"
"8=FIX.4.2|9=131|35=D|1=CLIENT37|11=HoUxuh|21=3|38=40700|40=2|44=24.60009233134602|54=2|55=HRTX|60=20151204-14:30:00.016|107=Heron Therapeutics Inc|10=160|"
"8=FIX.4.2|9=121|35=D|1=CLIENT2|11=7okL5G|21=3|38=239700|40=2|44=41.72657585468397|54=1|55=MDP|60=20151204-14:30:00.016|107=Meredith Corp|10=124|"
"8=FIX.4.2|9=130|35=D|1=CLIENT8|11=cxRkfi|21=3|38=4191200|40=2|44=2.38596629089125|54=1|55=AMD|60=20151204-14:30:00.016|107=Advanced Micro Devices|10=030|"
"8=FIX.4.2|9=133|35=D|1=CLIENT276|11=JTE7y1|21=3|38=30700|40=2|44=32.62009231507043|54=1|55=BWC|60=20151204-14:30:00.016|107=Babcock & Wilcox Company|10=001|"
"8=FIX.4.2|9=119|35=D|1=CLIENT26|11=46Wkob|21=3|38=149500|40=2|44=6.6894607900251|54=2|55=ODP|60=20151204-14:30:00.016|107=Office Depot|10=232|"
"8=FIX.4.2|9=125|35=D|1=CLIENT3|11=t5pCXs|21=3|38=22831400|40=2|44=0.43799463913145|54=2|55=FCEL|60=20151204-14:30:00.016|107=Fuelcell Energy|10=245|"
"8=FIX.4.2|9=133|35=D|1=CLIENT44|11=zkCH02|21=3|38=108800|40=2|44=9.19520142728417|54=2|55=SRC|60=20151204-14:30:00.016|107=Spirit Realty Capital Inc|10=167|"
"8=FIX.4.2|9=121|35=D|1=CLIENT27|11=RVW4lk|21=3|38=23300|40=2|44=43.00496531136114|54=1|55=MDP|60=20151204-14:30:00.016|107=Meredith Corp|10=131|"
"8=FIX.4.2|9=129|35=D|1=CLIENT16|11=4cZilV|21=3|38=1002900|40=2|44=9.97169143924412|54=2|55=MTG|60=20151204-14:30:00.016|107=Mgic Investment Corp|10=134|"
"8=FIX.4.2|9=119|35=D|1=CLIENT39|11=wvufNy|21=3|38=16900|40=2|44=59.1840891161941|54=1|55=CERN|60=20151204-14:30:00.016|107=Cerner Corp|10=110|"
"8=FIX.4.2|9=127|35=D|1=CLIENT8|11=1kiI7O|21=3|38=4407800|40=2|44=2.26872293861331|54=2|55=HL|60=20151204-14:30:00.016|107=Hecla Mining Company|10=145|"
"8=FIX.4.2|9=128|35=D|1=CLIENT13|11=i0bJWG|21=3|38=4432600|40=2|44=2.25604033339402|54=2|55=HL|60=20151204-14:30:00.016|107=Hecla Mining Company|10=184|"
"8=FIX.4.2|9=139|35=D|1=CLIENT34|11=E63Huo|21=3|38=73700|40=2|44=13.5781983274854|54=1|55=PAH|60=20151204-14:30:00.016|107=Platform Specialty Products Corp|10=152|"
"8=FIX.4.2|9=130|35=D|1=CLIENT243|11=Muv2zi|21=3|38=16400|40=2|44=61.137752955738|54=2|55=APC|60=20151204-14:30:00.016|107=Anadarko Petroleum Corp|10=107|"
"8=FIX.4.2|9=142|35=D|1=CLIENT47|11=OecAXZ|21=3|38=21400|40=2|44=46.88555422013143|54=1|55=DD|60=20151204-14:30:00.016|107=E.I. Du Pont De Nemours and Company|10=242|"
"8=FIX.4.2|9=123|35=D|1=CLIENT50|11=89qGG5|21=3|38=49000|40=2|44=20.42250056681156|54=2|55=P|60=20151204-14:30:00.016|107=Pandora Media Inc|10=172|"
"8=FIX.4.2|9=125|35=D|1=CLIENT16|11=ACbsx9|21=3|38=498400|40=2|44=20.06724191170597|54=2|55=FINL|60=20151204-14:30:00.016|107=The Finish Line|10=125|"
"8=FIX.4.2|9=131|35=D|1=CLIENT59|11=F43GyX|21=3|38=38500|40=2|44=26.02675731441149|54=1|55=HRTX|60=20151204-14:30:00.016|107=Heron Therapeutics Inc|10=029|"
"8=FIX.4.2|9=131|35=D|1=CLIENT210|11=IXbbAc|21=3|38=8900|40=2|44=113.49579527381192|54=2|55=UNH|60=20151204-14:30:00.016|107=Unitedhealth Group Inc|10=059|"
"8=FIX.4.2|9=127|35=D|1=CLIENT41|11=Q80WIT|21=3|38=129800|40=2|44=7.70428765834759|54=2|55=SPF|60=20151204-14:30:00.016|107=Standard Pacific LP|10=050|"
"8=FIX.4.2|9=134|35=D|1=CLIENT50|11=8SF007|21=3|38=27000|40=2|44=37.05218981629806|54=1|55=LUV|60=20151204-14:30:00.017|107=Southwest Airlines Company|10=079|"
"8=FIX.4.2|9=117|35=D|1=CLIENT21|11=gnu5TS|21=3|38=103300|40=2|44=96.83224938485307|54=1|55=CVS|60=20151204-14:30:00.017|107=CVS Corp|10=177|"
"8=FIX.4.2|9=124|35=D|1=CLIENT13|11=e9AEie|21=3|38=651700|40=2|44=15.34527165797642|54=2|55=ATW|60=20151204-14:30:00.017|107=Atwood Oceanics|10=149|"
"8=FIX.4.2|9=139|35=D|1=CLIENT4|11=j5iGG7|21=3|38=153200|40=2|44=65.28243164658443|54=1|55=MNK|60=20151204-14:30:00.017|107=Mallinckrodt Plc Ordinary Share|10=031|"
"8=FIX.4.2|9=120|35=D|1=CLIENT54|11=0pYxXD|21=3|38=88100|40=2|44=11.35321146341035|54=2|55=SPLS|60=20151204-14:30:00.017|107=Staples Inc|10=025|"
"8=FIX.4.2|9=120|35=D|1=CLIENT2|11=kESfJp|21=3|38=39600|40=2|44=252.7563018497196|54=1|55=TSLA|60=20151204-14:30:00.017|107=Tesla Motors|10=145|"
"8=FIX.4.2|9=135|35=D|1=CLIENT37|11=ckWu6H|21=3|38=18400|40=2|44=54.42972378897819|54=2|55=UAL|60=20151204-14:30:00.017|107=United Continental Holdings|10=067|"
"8=FIX.4.2|9=123|35=D|1=CLIENT13|11=DCZ8uh|21=3|38=19800|40=2|44=505.6201102222905|54=2|55=AMZN|60=20151204-14:30:00.017|107=Amazon.Com Inc|10=203|"
"8=FIX.4.2|9=122|35=D|1=CLIENT20|11=qDLNFZ|21=3|38=478800|40=2|44=20.88575512252446|54=2|55=JBL|60=20151204-14:30:00.017|107=Jabil Circuit|10=156|"
"8=FIX.4.2|9=131|35=D|1=CLIENT270|11=d4B5p2|21=3|38=8900|40=2|44=113.33505923836526|54=1|55=UNH|60=20151204-14:30:00.017|107=Unitedhealth Group Inc|10=221|"
"8=FIX.4.2|9=138|35=D|1=CLIENT45|11=lktmUh|21=3|38=13100|40=2|44=76.67161511546936|54=2|55=HCA|60=20151204-14:30:00.017|107=Hca Holdings Inc. Common Stock|10=138|"
"8=FIX.4.2|9=134|35=D|1=CLIENT213|11=5iWJGV|21=3|38=65100|40=2|44=15.37953412280152|54=1|55=AEO|60=20151204-14:30:00.017|107=American Eagle Outfitters|10=023|"
"8=FIX.4.2|9=137|35=D|1=CLIENT11|11=Ufdbl7|21=3|38=309500|40=2|44=32.31796399329471|54=1|55=NFX|60=20151204-14:30:00.017|107=Newfield Exploration Company|10=241|"
"8=FIX.4.2|9=119|35=D|1=CLIENT1|11=Gn3oiA|21=3|38=1389300|40=2|44=7.1979779710703|54=2|55=ODP|60=20151204-14:30:00.017|107=Office Depot|10=246|"
"8=FIX.4.2|9=131|35=D|1=CLIENT35|11=ofxEHw|21=3|38=41000|40=2|44=24.44227627770404|54=2|55=HRTX|60=20151204-14:30:00.017|107=Heron Therapeutics Inc|10=154|"
"8=FIX.4.2|9=126|35=D|1=CLIENT18|11=uHeA3K|21=3|38=1021400|40=2|44=9.79115808934913|54=2|55=NBR|60=20151204-14:30:00.017|107=Nabors Industries|10=117|"
"8=FIX.4.2|9=119|35=D|1=CLIENT43|11=5XkSLr|21=3|38=13100|40=2|44=76.54761286358512|54=1|55=YUM|60=20151204-14:30:00.017|107=Yum! Brands|10=168|"
"8=FIX.4.2|9=125|35=D|1=CLIENT37|11=jxLJcq|21=3|38=22700|40=2|44=44.22516460340287|54=2|55=CAR|60=20151204-14:30:00.017|107=Avis Budget Group|10=032|"
"8=FIX.4.2|9=117|35=D|1=CLIENT17|11=1rdxmO|21=3|38=310600|40=2|44=32.20471814255092|54=2|55=PPL|60=20151204-14:30:00.017|107=PPL Corp|10=181|"
"8=FIX.4.2|9=123|35=D|1=CLIENT198|11=BUsq0c|21=3|38=327000|40=2|44=3.05827014968605|54=1|55=MNKD|60=20151204-14:30:00.017|107=Mannkind Corp|10=027|"
"8=FIX.4.2|9=123|35=D|1=CLIENT54|11=Jr4fgI|21=3|38=76500|40=2|44=13.07579135189531|54=2|55=DDD|60=20151204-14:30:00.017|107=3D Systems Corp|10=230|"
"8=FIX.4.2|9=117|35=D|1=CLIENT116|11=XkZse6|21=3|38=59800|40=2|44=16.7296986521932|54=1|55=OLN|60=20151204-14:30:00.017|107=Olin Corp|10=056|"
"8=FIX.4.2|9=138|35=D|1=CLIENT26|11=Av78Ui|21=3|38=352900|40=2|44=2.8339058977703|54=1|55=CRC|60=20151204-14:30:00.017|107=California Resources Corporatio|10=122|"
"8=FIX.4.2|9=139|35=D|1=CLIENT24|11=VClR11|21=3|38=132900|40=2|44=75.29471880637571|54=1|55=HCA|60=20151204-14:30:00.017|107=Hca Holdings Inc. Common Stock|10=011|"
"8=FIX.4.2|9=121|35=D|1=CLIENT156|11=hQ68pp|21=3|38=80700|40=2|44=12.40152118453297|54=2|55=SPLS|60=20151204-14:30:00.017|107=Staples Inc|10=081|"
"8=FIX.4.2|9=125|35=D|1=CLIENT5|11=oYkIWo|21=3|38=966700|40=2|44=10.34482021315885|54=2|55=NBR|60=20151204-14:30:00.018|107=Nabors Industries|10=160|"
"8=FIX.4.2|9=116|35=D|1=CLIENT43|11=QPcwIz|21=3|38=10300|40=2|44=97.09429807516041|54=1|55=CVS|60=20151204-14:30:00.018|107=CVS Corp|10=145|"
"8=FIX.4.2|9=119|35=D|1=CLIENT43|11=gwseKA|21=3|38=21300|40=2|44=47.13112935519074|54=2|55=MET|60=20151204-14:30:00.018|107=Metlife Inc|10=235|"
"8=FIX.4.2|9=118|35=D|1=CLIENT53|11=BD979t|21=3|38=46000|40=2|44=21.75075995871666|54=1|55=MAT|60=20151204-14:30:00.018|107=Mattel Inc|10=002|"
"8=FIX.4.2|9=122|35=D|1=CLIENT12|11=Lb4cwB|21=3|38=456600|40=2|44=21.90388936789962|54=2|55=JBL|60=20151204-14:30:00.018|107=Jabil Circuit|10=191|"
"8=FIX.4.2|9=125|35=D|1=CLIENT189|11=xNgj1z|21=3|38=49300|40=2|44=20.31554365860893|54=1|55=FINL|60=20151204-14:30:00.018|107=The Finish Line|10=191|"
"8=FIX.4.2|9=123|35=D|1=CLIENT30|11=sbjbty|21=3|38=3700|40=2|44=274.4577348895928|54=1|55=BIIB|60=20151204-14:30:00.018|107=Biogen Idec Inc|10=114|"
"8=FIX.4.2|9=135|35=D|1=CLIENT23|11=4xHd1B|21=3|38=187600|40=2|44=53.3133539010969|54=1|55=UAL|60=20151204-14:30:00.018|107=United Continental Holdings|10=217|"
"8=FIX.4.2|9=139|35=D|1=CLIENT32|11=WNkgjK|21=3|38=15500|40=2|44=64.62652048430168|54=2|55=MNK|60=20151204-14:30:00.018|107=Mallinckrodt Plc Ordinary Share|10=123|"
"8=FIX.4.2|9=119|35=D|1=CLIENT59|11=7nwifS|21=3|38=106800|40=2|44=9.36435818372901|54=2|55=GLOG|60=20151204-14:30:00.018|107=Gaslog Ltd|10=226|"
"8=FIX.4.2|9=132|35=D|1=CLIENT229|11=sg5zm1|21=3|38=51200|40=2|44=19.5332851520711|54=1|55=AGNC|60=20151204-14:30:00.018|107=American Capital Agency|10=113|"
"8=FIX.4.2|9=119|35=D|1=CLIENT42|11=91pvrM|21=3|38=137700|40=2|44=7.26577713514017|54=1|55=THRX|60=20151204-14:30:00.018|107=Theravance|10=036|"
"8=FIX.4.2|9=138|35=D|1=CLIENT54|11=zJ5IzX|21=3|38=55200|40=2|44=18.13020707558815|54=1|55=KN|60=20151204-14:30:00.018|107=Knowles Corporation Common Stoc|10=076|"
"8=FIX.4.2|9=120|35=D|1=CLIENT38|11=o1MzHa|21=3|38=4000|40=2|44=251.8086091012362|54=1|55=TSLA|60=20151204-14:30:00.018|107=Tesla Motors|10=101|"
"8=FIX.4.2|9=120|35=D|1=CLIENT52|11=qlYlCc|21=3|38=79000|40=2|44=12.65958215932294|54=2|55=SPLS|60=20151204-14:30:00.018|107=Staples Inc|10=112|"
"8=FIX.4.2|9=128|35=D|1=CLIENT46|11=MzAslh|21=3|38=14400|40=2|44=69.79954945819107|54=1|55=WDC|60=20151204-14:30:00.018|107=Western Digital Corp|10=142|"
"8=FIX.4.2|9=129|35=D|1=CLIENT45|11=hGLyyS|21=3|38=243500|40=2|44=4.1076194549649|54=1|55=GNW|60=20151204-14:30:00.018|107=Genworth Financial Inc|10=253|"
"8=FIX.4.2|9=135|35=D|1=CLIENT59|11=1eqIGf|21=3|38=44900|40=2|44=22.30995432005201|54=1|55=BKD|60=20151204-14:30:00.018|107=Brookdale Senior Living Inc|10=119|"
"8=FIX.4.2|9=120|35=D|1=CLIENT24|11=p0AoA5|21=3|38=1668000|40=2|44=5.9952913526575|54=1|55=ODP|60=20151204-14:30:00.018|107=Office Depot|10=228|"
"8=FIX.4.2|9=129|35=D|1=CLIENT38|11=zYI0EQ|21=3|38=25600|40=2|44=39.13029999416849|54=2|55=THC|60=20151204-14:30:00.018|107=Tenet Healthcare Corp|10=109|"
"8=FIX.4.2|9=122|35=D|1=CLIENT57|11=yv3AmW|21=3|38=49600|40=2|44=20.17460257776185|54=2|55=SYMC|60=20151204-14:30:00.018|107=Symantec Corp|10=048|"
"8=FIX.4.2|9=133|35=D|1=CLIENT29|11=EEnhBa|21=3|38=68300|40=2|44=14.65540913581943|54=1|55=SLCA|60=20151204-14:30:00.018|107=U.S. Silica Holdings Inc|10=004|"
"8=FIX.4.2|9=128|35=D|1=CLIENT19|11=xomeZL|21=3|38=3448100|40=2|44=2.90021208584178|54=2|55=HL|60=20151204-14:30:00.018|107=Hecla Mining Company|10=072|"
"8=FIX.4.2|9=123|35=D|1=CLIENT60|11=LVVdlb|21=3|38=49600|40=2|44=20.17645447549272|54=2|55=P|60=20151204-14:30:00.018|107=Pandora Media Inc|10=074|"
"8=FIX.4.2|9=121|35=D|1=CLIENT50|11=g1Diru|21=3|38=44900|40=2|44=22.27860009345948|54=2|55=JBL|60=20151204-14:30:00.018|107=Jabil Circuit|10=165|"
"8=FIX.4.2|9=117|35=D|1=CLIENT57|11=ueAdGe|21=3|38=8700|40=2|44=115.05803679489047|54=1|55=HD|60=20151204-14:30:00.019|107=Home Depot|10=058|"
"8=FIX.4.2|9=121|35=D|1=CLIENT9|11=wVEbjU|21=3|38=458700|40=2|44=21.80087248097762|54=1|55=JBL|60=20151204-14:30:00.019|107=Jabil Circuit|10=185|"
"8=FIX.4.2|9=130|35=D|1=CLIENT257|11=8ZvmAF|21=3|38=217100|40=2|44=4.6071314936095|54=1|55=GNW|60=20151204-14:30:00.019|107=Genworth Financial Inc|10=217|"
"8=FIX.4.2|9=129|35=D|1=CLIENT24|11=BEL9GE|21=3|38=731400|40=2|44=13.67310816512182|54=2|55=ASNA|60=20151204-14:30:00.019|107=Ascena Retail Group|10=170|"
"8=FIX.4.2|9=142|35=D|1=CLIENT147|11=ikB9D5|21=3|38=21100|40=2|44=47.5500078941773|54=1|55=DD|60=20151204-14:30:00.019|107=E.I. Du Pont De Nemours and Company|10=183|"
"8=FIX.4.2|9=134|35=D|1=CLIENT7|11=Zvkg72|21=3|38=266100|40=2|44=37.59184372258646|54=2|55=IP|60=20151204-14:30:00.019|107=International Paper Company|10=231|"
"8=FIX.4.2|9=118|35=D|1=CLIENT15|11=ayx2L6|21=3|38=757400|40=2|44=13.20421575154888|54=1|55=ESV|60=20151204-14:30:00.019|107=Ensco Plc|10=047|"
"8=FIX.4.2|9=124|35=D|1=CLIENT169|11=QuXzDv|21=3|38=18000|40=2|44=55.65900464580364|54=2|55=SLH|60=20151204-14:30:00.019|107=Solera Holdings|10=251|"
"8=FIX.4.2|9=127|35=D|1=CLIENT51|11=klPMPw|21=3|38=994400|40=2|44=1.00565973036209|54=2|55=HL|60=20151204-14:30:00.019|107=Hecla Mining Company|10=245|"
"8=FIX.4.2|9=119|35=D|1=CLIENT21|11=FJXN29|21=3|38=248800|40=2|44=40.19583251682403|54=1|55=SYY|60=20151204-14:30:00.019|107=Sysco Corp|10=105|"
"8=FIX.4.2|9=134|35=D|1=CLIENT222|11=8mqY9d|21=3|38=106500|40=2|44=9.39563942139641|54=2|55=SRC|60=20151204-14:30:00.019|107=Spirit Realty Capital Inc|10=026|"
"8=FIX.4.2|9=132|35=D|1=CLIENT12|11=Yq9cZz|21=3|38=167600|40=2|44=59.67209712218382|54=1|55=APC|60=20151204-14:30:00.019|107=Anadarko Petroleum Corp|10=194|"
"8=FIX.4.2|9=129|35=D|1=CLIENT10|11=R3x8wP|21=3|38=554300|40=2|44=18.04272306163628|54=2|55=FITB|60=20151204-14:30:00.019|107=Fifth Third Bancorp|10=009|"
"8=FIX.4.2|9=119|35=D|1=CLIENT8|11=gS2PjH|21=3|38=798500|40=2|44=12.5240815024751|54=2|55=SPLS|60=20151204-14:30:00.019|107=Staples Inc|10=227|"
"8=FIX.4.2|9=142|35=D|1=CLIENT58|11=vDU3OG|21=3|38=21400|40=2|44=46.87896266865995|54=1|55=DD|60=20151204-14:30:00.019|107=E.I. Du Pont De Nemours and Company|10=240|"
"8=FIX.4.2|9=136|35=D|1=CLIENT266|11=LZhzLd|21=3|38=18900|40=2|44=52.96336303635317|54=2|55=UAL|60=20151204-14:30:00.019|107=United Continental Holdings|10=131|"
"8=FIX.4.2|9=135|35=D|1=CLIENT13|11=H3TpUm|21=3|38=424100|40=2|44=23.5834708340317|54=2|55=BKD|60=20151204-14:30:00.019|107=Brookdale Senior Living Inc|10=120|"
"8=FIX.4.2|9=132|35=D|1=CLIENT42|11=spTMuC|21=3|38=38800|40=2|44=25.81205722340137|54=1|55=FOX|60=20151204-14:30:00.019|107=21St Century Fox Class B|10=226|"
"8=FIX.4.2|9=123|35=D|1=CLIENT4|11=wWL4C5|21=3|38=495600|40=2|44=20.17801932981835|54=2|55=P|60=20151204-14:30:00.019|107=Pandora Media Inc|10=232|"
"8=FIX.4.2|9=127|35=D|1=CLIENT29|11=hizvqn|21=3|38=62800|40=2|44=15.94418787405752|54=2|55=NEM|60=20151204-14:30:00.019|107=Newmont Mining Corp|10=126|"
"8=FIX.4.2|9=128|35=D|1=CLIENT3|11=fYVq4g|21=3|38=581200|40=2|44=17.208690434794|54=2|55=CNP|60=20151204-14:30:00.019|107=Centerpoint Energy Inc|10=189|"
"8=FIX.4.2|9=124|35=D|1=CLIENT259|11=dM0H43|21=3|38=21100|40=2|44=47.48374916185124|54=1|55=LNG|60=20151204-14:30:00.019|107=Cheniere Energy|10=032|"
"8=FIX.4.2|9=129|35=D|1=CLIENT10|11=i0ZNv8|21=3|38=10648200|40=2|44=0.93913244746021|54=2|55=BTU|60=20151204-14:30:00.019|107=Peabody Energy Corp|10=003|"
"8=FIX.4.2|9=127|35=D|1=CLIENT34|11=OspWbH|21=3|38=64100|40=2|44=15.61324993509108|54=1|55=NEM|60=20151204-14:30:00.019|107=Newmont Mining Corp|10=252|"
"8=FIX.4.2|9=126|35=D|1=CLIENT4|11=Oa71Bs|21=3|38=-75287900|40=2|44=-0.13282318045949|54=1|55=HK|60=20151204-14:30:00.019|107=Halcon Resources|10=245|"
"8=FIX.4.2|9=124|35=D|1=CLIENT48|11=Mnfmc0|21=3|38=49000|40=2|44=20.44812092832786|54=1|55=FINL|60=20151204-14:30:00.020|107=The Finish Line|10=091|"
"8=FIX.4.2|9=121|35=D|1=CLIENT42|11=kF6hVp|21=3|38=47000|40=2|44=21.31332767261402|54=2|55=JBL|60=20151204-14:30:00.020|107=Jabil Circuit|10=111|"
"8=FIX.4.2|9=138|35=D|1=CLIENT16|11=Xxmy0q|21=3|38=341900|40=2|44=29.24939743065018|54=1|55=GT|60=20151204-14:30:00.020|107=Goodyear Tire & Rubber Company|10=160|"
"8=FIX.4.2|9=139|35=D|1=CLIENT50|11=dOAjIA|21=3|38=103000|40=2|44=9.70889063471947|54=1|55=BRCD|60=20151204-14:30:00.020|107=Brocade Communications Systems|10=129|"
"8=FIX.4.2|9=118|35=D|1=CLIENT153|11=98IGCS|21=3|38=64900|40=2|44=15.40811356677476|54=1|55=OLN|60=20151204-14:30:00.020|107=Olin Corp|10=200|"
"8=FIX.4.2|9=133|35=D|1=CLIENT239|11=bYBcQG|21=3|38=38500|40=2|44=26.01208769274572|54=1|55=FOX|60=20151204-14:30:00.020|107=21St Century Fox Class B|10=220|"
"8=FIX.4.2|9=125|35=D|1=CLIENT277|11=tx1MFX|21=3|38=22800|40=2|44=43.96603297160932|54=1|55=VIAB|60=20151204-14:30:00.020|107=Viacom Inc Cl B|10=243|"
"8=FIX.4.2|9=139|35=D|1=CLIENT52|11=957s61|21=3|38=80600|40=2|44=12.4187715932091|54=1|55=PAH|60=20151204-14:30:00.020|107=Platform Specialty Products Corp|10=038|"
"8=FIX.4.2|9=128|35=D|1=CLIENT44|11=Izh49K|21=3|38=76800|40=2|44=13.02191704579285|54=2|55=ASNA|60=20151204-14:30:00.020|107=Ascena Retail Group|10=205|"
"8=FIX.4.2|9=118|35=D|1=CLIENT25|11=8TnEoZ|21=3|38=590900|40=2|44=16.92610002710709|54=2|55=OLN|60=20151204-14:30:00.020|107=Olin Corp|10=040|"
"8=FIX.4.2|9=117|35=D|1=CLIENT57|11=zzusWY|21=3|38=8700|40=2|44=116.01079290028143|54=2|55=HD|60=20151204-14:30:00.020|107=Home Depot|10=125|"
"8=FIX.4.2|9=129|35=D|1=CLIENT186|11=fV7DLa|21=3|38=53300|40=2|44=18.76885616701014|54=2|55=EXAS|60=20151204-14:30:00.020|107=Exact Sciences Corp|10=012|"
"8=FIX.4.2|9=124|35=D|1=CLIENT6|11=vRxGJl|21=3|38=125100|40=2|44=79.95415570798176|54=2|55=ESRX|60=20151204-14:30:00.020|107=Express Scripts|10=071|"
"8=FIX.4.2|9=129|35=D|1=CLIENT15|11=BDcUgI|21=3|38=732200|40=2|44=13.65841520897742|54=1|55=ASNA|60=20151204-14:30:00.020|107=Ascena Retail Group|10=007|"
"8=FIX.4.2|9=128|35=D|1=CLIENT24|11=7smxEs|21=3|38=629900|40=2|44=15.87644956419457|54=2|55=NEM|60=20151204-14:30:00.020|107=Newmont Mining Corp|10=091|"
"8=FIX.4.2|9=124|35=D|1=CLIENT22|11=5dcv87|21=3|38=209300|40=2|44=47.79055383386656|54=2|55=LNG|60=20151204-14:30:00.020|107=Cheniere Energy|10=115|"
"8=FIX.4.2|9=125|35=D|1=CLIENT54|11=3xwFFp|21=3|38=94900|40=2|44=10.54704755903147|54=1|55=CNX|60=20151204-14:30:00.020|107=Consol Energy Inc|10=003|"
"8=FIX.4.2|9=123|35=D|1=CLIENT16|11=jfA6E4|21=3|38=175700|40=2|44=56.92734746675009|54=1|55=CMCSK|60=20151204-14:30:00.020|107=Comcast Corp|10=181|"
"8=FIX.4.2|9=128|35=D|1=CLIENT38|11=crO4oQ|21=3|38=47200|40=2|44=21.18844435935896|54=2|55=AR|60=20151204-14:30:00.020|107=Antero Resources Corp|10=124|"
"8=FIX.4.2|9=120|35=D|1=CLIENT39|11=sTQRLm|21=3|38=84200|40=2|44=11.88966667473457|54=2|55=SPLS|60=20151204-14:30:00.020|107=Staples Inc|10=086|"
"8=FIX.4.2|9=124|35=D|1=CLIENT54|11=wPwQsK|21=3|38=12500|40=2|44=80.31987823171173|54=1|55=ESRX|60=20151204-14:30:00.020|107=Express Scripts|10=067|"
"8=FIX.4.2|9=130|35=D|1=CLIENT21|11=TRZ279|21=3|38=602800|40=2|44=16.58922902938957|54=2|55=WETF|60=20151204-14:30:00.020|107=Wisdomtree Invstmnts|10=243|"
"8=FIX.4.2|9=119|35=D|1=CLIENT218|11=wK245X|21=3|38=20000|40=2|44=50.21964220274334|54=2|55=ETN|60=20151204-14:30:00.020|107=Eaton Corp|10=043|"
"8=FIX.4.2|9=127|35=D|1=CLIENT42|11=3tixqC|21=3|38=63500|40=2|44=15.76073246887121|54=2|55=NEM|60=20151204-14:30:00.020|107=Newmont Mining Corp|10=002|"
"8=FIX.4.2|9=128|35=D|1=CLIENT23|11=w6q4Qm|21=3|38=3521100|40=2|44=2.84004510308726|54=1|55=HL|60=20151204-14:30:00.020|107=Hecla Mining Company|10=221|"
"8=FIX.4.2|9=132|35=D|1=CLIENT15|11=n0WHJV|21=3|38=167700|40=2|44=59.66490601855102|54=1|55=APC|60=20151204-14:30:00.021|107=Anadarko Petroleum Corp|10=093|"
"8=FIX.4.2|9=133|35=D|1=CLIENT17|11=UNzDUd|21=3|38=554900|40=2|44=18.02309224769002|54=2|55=AGNC|60=20151204-14:30:00.021|107=American Capital Agency|10=156|"
"8=FIX.4.2|9=130|35=D|1=CLIENT18|11=X6DCvJ|21=3|38=376500|40=2|44=26.56178483407433|54=1|55=ZION|60=20151204-14:30:00.021|107=Zions Bancorporation|10=008|"
"8=FIX.4.2|9=135|35=D|1=CLIENT2|11=udcO7f|21=3|38=435600|40=2|44=22.95816854884752|54=1|55=BKD|60=20151204-14:30:00.021|107=Brookdale Senior Living Inc|10=182|"
"8=FIX.4.2|9=118|35=D|1=CLIENT195|11=vtDmtQ|21=3|38=61100|40=2|44=16.37933452680364|54=2|55=OLN|60=20151204-14:30:00.021|107=Olin Corp|10=141|"
"8=FIX.4.2|9=117|35=D|1=CLIENT46|11=VpjrYm|21=3|38=8700|40=2|44=115.88901256331091|54=1|55=HD|60=20151204-14:30:00.021|107=Home Depot|10=096|"
"8=FIX.4.2|9=121|35=D|1=CLIENT1|11=nyRatN|21=3|38=290500|40=2|44=34.42830005025096|54=2|55=XON|60=20151204-14:30:00.021|107=Intrexon Corp|10=011|"
"8=FIX.4.2|9=121|35=D|1=CLIENT47|11=kGsDpM|21=3|38=29100|40=2|44=34.43608369885089|54=1|55=XON|60=20151204-14:30:00.021|107=Intrexon Corp|10=251|"
"8=FIX.4.2|9=118|35=D|1=CLIENT3|11=XCZuo5|21=3|38=452000|40=2|44=22.12522363725685|54=2|55=MAT|60=20151204-14:30:00.021|107=Mattel Inc|10=077|"
"8=FIX.4.2|9=129|35=D|1=CLIENT1|11=vSbU2A|21=3|38=644000|40=2|44=15.53013719321012|54=1|55=WETF|60=20151204-14:30:00.021|107=Wisdomtree Invstmnts|10=239|"
"8=FIX.4.2|9=130|35=D|1=CLIENT38|11=i6ApLK|21=3|38=178600|40=2|44=5.59960482994069|54=1|55=GNW|60=20151204-14:30:00.021|107=Genworth Financial Inc|10=224|"
"8=FIX.4.2|9=139|35=D|1=CLIENT32|11=Os3fKm|21=3|38=15800|40=2|44=63.44986428512789|54=1|55=MNK|60=20151204-14:30:00.021|107=Mallinckrodt Plc Ordinary Share|10=115|"
"8=FIX.4.2|9=118|35=D|1=CLIENT11|11=ZuMysI|21=3|38=755000|40=2|44=13.24635678957304|54=1|55=ESV|60=20151204-14:30:00.021|107=Ensco Plc|10=114|"
"8=FIX.4.2|9=129|35=D|1=CLIENT18|11=W8FexN|21=3|38=827200|40=2|44=12.08987077268104|54=2|55=ASNA|60=20151204-14:30:00.021|107=Ascena Retail Group|10=033|"
"8=FIX.4.2|9=128|35=D|1=CLIENT6|11=htJzhB|21=3|38=506700|40=2|44=19.73561004127406|54=1|55=FITB|60=20151204-14:30:00.021|107=Fifth Third Bancorp|10=033|"
"8=FIX.4.2|9=122|35=D|1=CLIENT39|11=r9nbit|21=3|38=2000|40=2|44=504.9191654492841|54=2|55=AMZN|60=20151204-14:30:00.021|107=Amazon.Com Inc|10=013|"
"8=FIX.4.2|9=124|35=D|1=CLIENT42|11=k1SGI8|21=3|38=12600|40=2|44=79.82594801789689|54=2|55=ESRX|60=20151204-14:30:00.021|107=Express Scripts|10=204|"
"8=FIX.4.2|9=115|35=D|1=CLIENT164|11=N5xkOJ|21=3|38=31900|40=2|44=31.373501831287|54=1|55=PPL|60=20151204-14:30:00.021|107=PPL Corp|10=020|"
"8=FIX.4.2|9=120|35=D|1=CLIENT53|11=7Xa6QT|21=3|38=10300|40=2|44=97.5792288952415|54=1|55=ACN|60=20151204-14:30:00.021|107=Accenture Plc|10=014|"
"8=FIX.4.2|9=138|35=D|1=CLIENT33|11=9uEWjl|21=3|38=74000|40=2|44=13.53019222028711|54=1|55=BEE|60=20151204-14:30:00.021|107=Strategic Hotels & Resorts Inc|10=101|"
"8=FIX.4.2|9=122|35=D|1=CLIENT44|11=kNm0Ay|21=3|38=253800|40=2|44=3.94067311270696|54=2|55=MNKD|60=20151204-14:30:00.021|107=Mannkind Corp|10=228|"
"8=FIX.4.2|9=134|35=D|1=CLIENT248|11=gzyvVt|21=3|38=106800|40=2|44=9.37113394187744|54=2|55=SRC|60=20151204-14:30:00.021|107=Spirit Realty Capital Inc|10=169|"
"8=FIX.4.2|9=140|35=D|1=CLIENT24|11=hKXaxL|21=3|38=745400|40=2|44=13.41585947580978|54=1|55=NRZ|60=20151204-14:30:00.021|107=New Residential Investment Corp|10=242|"
"8=FIX.4.2|9=117|35=D|1=CLIENT43|11=5DSvaZ|21=3|38=9300|40=2|44=108.46612320470912|54=2|55=AET|60=20151204-14:30:00.021|107=Aetna Inc|10=181|"
"8=FIX.4.2|9=123|35=D|1=CLIENT28|11=Qe1Blz|21=3|38=51400|40=2|44=19.45792344746271|54=1|55=P|60=20151204-14:30:00.021|107=Pandora Media Inc|10=041|"
"8=FIX.4.2|9=119|35=D|1=CLIENT18|11=hIkDYt|21=3|38=200300|40=2|44=49.92857547715472|54=2|55=ETN|60=20151204-14:30:00.022|107=Eaton Corp|10=198|"
"8=FIX.4.2|9=132|35=D|1=CLIENT59|11=merxyB|21=3|38=52600|40=2|44=19.03969503936371|54=2|55=AGNC|60=20151204-14:30:00.022|107=American Capital Agency|10=216|"
"8=FIX.4.2|9=119|35=D|1=CLIENT9|11=KldTp3|21=3|38=615700|40=2|44=16.24356447188414|54=2|55=GLW|60=20151204-14:30:00.022|107=Corning Inc|10=217|"
"8=FIX.4.2|9=120|35=D|1=CLIENT17|11=47R7vE|21=3|38=130500|40=2|44=76.63122382018052|54=2|55=YUM|60=20151204-14:30:00.022|107=Yum! Brands|10=100|"
"8=FIX.4.2|9=143|35=D|1=CLIENT24|11=Sv4JEG|21=3|38=149300|40=2|44=66.99762491421865|54=2|55=ENDP|60=20151204-14:30:00.022|107=Endo Pharmaceuticals Holdings Inc|10=084|"
"8=FIX.4.2|9=121|35=D|1=CLIENT46|11=ZHdwW4|21=3|38=120100|40=2|44=8.33160514436809|54=1|55=SVU|60=20151204-14:30:00.022|107=Supervalu Inc|10=189|"
"8=FIX.4.2|9=122|35=D|1=CLIENT1|11=dJZjkJ|21=3|38=753800|40=2|44=13.26704408455535|54=1|55=NYLD|60=20151204-14:30:00.022|107=NRG Yield Inc|10=088|"
"8=FIX.4.2|9=127|35=D|1=CLIENT35|11=BKf99p|21=3|38=59100|40=2|44=16.94115784895231|54=2|55=NEM|60=20151204-14:30:00.022|107=Newmont Mining Corp|10=166|"
"8=FIX.4.2|9=123|35=D|1=CLIENT59|11=SnNn1B|21=3|38=22100|40=2|44=45.25827178440624|54=1|55=SO|60=20151204-14:30:00.022|107=Southern Company|10=166|"
"8=FIX.4.2|9=135|35=D|1=CLIENT20|11=WRQqxu|21=3|38=122100|40=2|44=81.9402187709542|54=2|55=ADBE|60=20151204-14:30:00.022|107=Adobe Systems Incorporated|10=029|"
"8=FIX.4.2|9=140|35=D|1=CLIENT49|11=gXSDf6|21=3|38=83400|40=2|44=11.99916802684002|54=2|55=PAH|60=20151204-14:30:00.022|107=Platform Specialty Products Corp|10=209|"
"8=FIX.4.2|9=116|35=D|1=CLIENT252|11=bmD5ZM|21=3|38=10300|40=2|44=97.5389990674219|54=1|55=CVS|60=20151204-14:30:00.022|107=CVS Corp|10=079|"
"8=FIX.4.2|9=124|35=D|1=CLIENT43|11=5JmOcC|21=3|38=23400|40=2|44=42.86425402409149|54=2|55=VIAB|60=20151204-14:30:00.022|107=Viacom Inc Cl B|10=140|"
"8=FIX.4.2|9=116|35=D|1=CLIENT1|11=FSUCqE|21=3|38=104300|40=2|44=95.90758752725625|54=2|55=CVS|60=20151204-14:30:00.022|107=CVS Corp|10=064|"
"8=FIX.4.2|9=131|35=D|1=CLIENT290|11=jlsFXn|21=3|38=8900|40=2|44=113.44181111120102|54=2|55=UNH|60=20151204-14:30:00.022|107=Unitedhealth Group Inc|10=095|"
"8=FIX.4.2|9=134|35=D|1=CLIENT245|11=OQuR14|21=3|38=116000|40=2|44=8.62596344306808|54=2|55=SRC|60=20151204-14:30:00.022|107=Spirit Realty Capital Inc|10=211|"
"8=FIX.4.2|9=136|35=D|1=CLIENT8|11=sCWbNQ|21=3|38=174900|40=2|44=57.17712649555553|54=1|55=AIG|60=20151204-14:30:00.022|107=American International Group|10=127|"
"8=FIX.4.2|9=124|35=D|1=CLIENT17|11=JpwrXw|21=3|38=325900|40=2|44=30.68477411209418|54=2|55=FE|60=20151204-14:30:00.022|107=Firstenergy Corp|10=062|"
"8=FIX.4.2|9=129|35=D|1=CLIENT30|11=iZj2ut|21=3|38=26000|40=2|44=38.59840371536736|54=2|55=THC|60=20151204-14:30:00.022|107=Tenet Healthcare Corp|10=185|"
"8=FIX.4.2|9=136|35=D|1=CLIENT60|11=TDYdI1|21=3|38=122000|40=2|44=8.20151647648993|54=2|55=TWO|60=20151204-14:30:00.022|107=Two Harbors Investments Corp|10=046|"
"8=FIX.4.2|9=133|35=D|1=CLIENT53|11=sWZ1GN|21=3|38=27400|40=2|44=36.5290238124004|54=1|55=LUV|60=20151204-14:30:00.022|107=Southwest Airlines Company|10=137|"
"8=FIX.4.2|9=133|35=D|1=CLIENT292|11=f14X9d|21=3|38=31200|40=2|44=32.10170211506473|54=1|55=CVC|60=20151204-14:30:00.022|107=Cablevision Systems Corp|10=179|"
"8=FIX.4.2|9=124|35=D|1=CLIENT39|11=q5cttu|21=3|38=52000|40=2|44=19.25335503670036|54=1|55=FINL|60=20151204-14:30:00.022|107=The Finish Line|10=148|"
"8=FIX.4.2|9=116|35=D|1=CLIENT37|11=YqVTHR|21=3|38=64400|40=2|44=15.5349065929599|54=2|55=OLN|60=20151204-14:30:00.022|107=Olin Corp|10=230|"
"8=FIX.4.2|9=126|35=D|1=CLIENT26|11=WnuJsv|21=3|38=593200|40=2|44=1.68596590709217|54=2|55=CTIC|60=20151204-14:30:00.022|107=Cell Therapeutics|10=248|"
"8=FIX.4.2|9=124|35=D|1=CLIENT15|11=Qu6QZF|21=3|38=401600|40=2|44=24.90423644442143|54=1|55=MUR|60=20151204-14:30:00.023|107=Murphy Oil Corp|10=070|"
"8=FIX.4.2|9=123|35=D|1=CLIENT36|11=M4I7nt|21=3|38=51700|40=2|44=19.3684695822999|54=2|55=FINL|60=20151204-14:30:00.023|107=The Finish Line|10=005|"
"8=FIX.4.2|9=123|35=D|1=CLIENT59|11=YxtpWX|21=3|38=47600|40=2|44=21.03831235022798|54=2|55=P|60=20151204-14:30:00.023|107=Pandora Media Inc|10=121|"
"8=FIX.4.2|9=133|35=D|1=CLIENT11|11=qclChO|21=3|38=238500|40=2|44=41.94474747398623|54=1|55=CYH|60=20151204-14:30:00.023|107=Community Health Systems|10=118|"
"8=FIX.4.2|9=118|35=D|1=CLIENT18|11=DG33K4|21=3|38=638400|40=2|44=15.66609386248948|54=2|55=OLN|60=20151204-14:30:00.023|107=Olin Corp|10=181|"
"8=FIX.4.2|9=122|35=D|1=CLIENT13|11=AkVYCC|21=3|38=181500|40=2|44=55.12058002423814|54=1|55=GIS|60=20151204-14:30:00.023|107=General Mills|10=133|"
"8=FIX.4.2|9=116|35=D|1=CLIENT45|11=7uvn6G|21=3|38=30900|40=2|44=32.38125805419421|54=2|55=PPL|60=20151204-14:30:00.023|107=PPL Corp|10=089|"
"8=FIX.4.2|9=121|35=D|1=CLIENT96|11=zwKdnU|21=3|38=47200|40=2|44=21.20375511330747|54=2|55=JBL|60=20151204-14:30:00.023|107=Jabil Circuit|10=204|"
"8=FIX.4.2|9=131|35=D|1=CLIENT30|11=pt72du|21=3|38=16600|40=2|44=60.47443689220271|54=2|55=APC|60=20151204-14:30:00.023|107=Anadarko Petroleum Corp|10=107|"
"8=FIX.4.2|9=118|35=D|1=CLIENT47|11=3YTgzr|21=3|38=59100|40=2|44=16.9439486653613|54=1|55=GLW|60=20151204-14:30:00.023|107=Corning Inc|10=205|"
"8=FIX.4.2|9=133|35=D|1=CLIENT55|11=moq1sO|21=3|38=111000|40=2|44=9.01029231473747|54=2|55=MRVL|60=20151204-14:30:00.023|107=Marvell Technology Group|10=117|"
"8=FIX.4.2|9=119|35=D|1=CLIENT60|11=kADNC1|21=3|38=64300|40=2|44=15.56220936392812|54=2|55=GLW|60=20151204-14:30:00.023|107=Corning Inc|10=109|"
"8=FIX.4.2|9=133|35=D|1=CLIENT45|11=NiG6T4|21=3|38=63200|40=2|44=15.82982868152903|54=2|55=AEO|60=20151204-14:30:00.023|107=American Eagle Outfitters|10=217|"
"8=FIX.4.2|9=129|35=D|1=CLIENT22|11=Liwky7|21=3|38=749500|40=2|44=13.34294911837519|54=1|55=ASNA|60=20151204-14:30:00.023|107=Ascena Retail Group|10=106|"
"8=FIX.4.2|9=117|35=D|1=CLIENT24|11=QT50GJ|21=3|38=103600|40=2|44=96.53802684712701|54=1|55=CVS|60=20151204-14:30:00.023|107=CVS Corp|10=029|"
"8=FIX.4.2|9=135|35=D|1=CLIENT48|11=xzOnyr|21=3|38=9900|40=2|44=101.99720808205203|54=1|55=VRTX|60=20151204-14:30:00.023|107=Vertex Pharmaceuticals Inc|10=164|"
"8=FIX.4.2|9=121|35=D|1=CLIENT50|11=iObRkZ|21=3|38=44000|40=2|44=22.76734630472492|54=2|55=JBL|60=20151204-14:30:00.023|107=Jabil Circuit|10=156|"
"8=FIX.4.2|9=120|35=D|1=CLIENT25|11=zyCVwF|21=3|38=129000|40=2|44=77.54979655754894|54=2|55=YUM|60=20151204-14:30:00.023|107=Yum! Brands|10=046|"
"8=FIX.4.2|9=130|35=D|1=CLIENT31|11=byWlrA|21=3|38=163500|40=2|44=6.11751265119662|54=2|55=INO|60=20151204-14:30:00.023|107=Inovio Pharmaceuticals|10=156|"
"8=FIX.4.2|9=121|35=D|1=CLIENT59|11=AriJh4|21=3|38=29100|40=2|44=34.42511965439284|54=2|55=XON|60=20151204-14:30:00.023|107=Intrexon Corp|10=207|"
"8=FIX.4.2|9=138|35=D|1=CLIENT39|11=nvHFRn|21=3|38=70500|40=2|44=14.18746948438586|54=2|55=BEE|60=20151204-14:30:00.023|107=Strategic Hotels & Resorts Inc|10=168|"
"8=FIX.4.2|9=134|35=D|1=CLIENT134|11=IBXvd3|21=3|38=119600|40=2|44=8.36765902104016|54=1|55=MRVL|60=20151204-14:30:00.023|107=Marvell Technology Group|10=096|"
"8=FIX.4.2|9=130|35=D|1=CLIENT168|11=N8ioGS|21=3|38=26700|40=2|44=37.47288023656824|54=1|55=THC|60=20151204-14:30:00.023|107=Tenet Healthcare Corp|10=161|"
"8=FIX.4.2|9=135|35=D|1=CLIENT53|11=Fqd6PY|21=3|38=19000|40=2|44=52.74182967592201|54=1|55=UAL|60=20151204-14:30:00.023|107=United Continental Holdings|10=005|"
"8=FIX.4.2|9=136|35=D|1=CLIENT12|11=rRP5rV|21=3|38=186800|40=2|44=53.55098326783644|54=2|55=UAL|60=20151204-14:30:00.023|107=United Continental Holdings|10=094|"
"8=FIX.4.2|9=132|35=D|1=CLIENT32|11=OfTmmh|21=3|38=91200|40=2|44=10.9699751138155|54=2|55=SWC|60=20151204-14:30:00.024|107=Stillwater Mining Company|10=115|"
"8=FIX.4.2|9=134|35=D|1=CLIENT58|11=zUvAIm|21=3|38=26300|40=2|44=38.06968600415072|54=2|55=LUV|60=20151204-14:30:00.024|107=Southwest Airlines Company|10=034|"
"8=FIX.4.2|9=131|35=D|1=CLIENT274|11=DhcIu0|21=3|38=8800|40=2|44=114.90455926270113|54=2|55=UNH|60=20151204-14:30:00.024|107=Unitedhealth Group Inc|10=038|"
"8=FIX.4.2|9=136|35=D|1=CLIENT52|11=ouMYXo|21=3|38=124600|40=2|44=8.02613563976351|54=2|55=TWO|60=20151204-14:30:00.024|107=Two Harbors Investments Corp|10=179|"
"8=FIX.4.2|9=139|35=D|1=CLIENT43|11=JzGnoS|21=3|38=15700|40=2|44=64.00198137293062|54=1|55=MNK|60=20151204-14:30:00.024|107=Mallinckrodt Plc Ordinary Share|10=134|"
"8=FIX.4.2|9=129|35=D|1=CLIENT20|11=uTp0QO|21=3|38=600600|40=2|44=16.6518104669417|54=1|55=WETF|60=20151204-14:30:00.024|107=Wisdomtree Invstmnts|10=028|"
"8=FIX.4.2|9=141|35=D|1=CLIENT34|11=p9YmRM|21=3|38=20700|40=2|44=48.4716612413498|54=2|55=DD|60=20151204-14:30:00.024|107=E.I. Du Pont De Nemours and Company|10=202|"
"8=FIX.4.2|9=138|35=D|1=CLIENT21|11=2KWe8o|21=3|38=6405900|40=2|44=1.561060751213|54=2|55=CRC|60=20151204-14:30:00.024|107=California Resources Corporatio|10=084|"
"8=FIX.4.2|9=117|35=D|1=CLIENT19|11=Vq11H0|21=3|38=309100|40=2|44=32.35848279002777|54=1|55=PPL|60=20151204-14:30:00.024|107=PPL Corp|10=048|"
"8=FIX.4.2|9=130|35=D|1=CLIENT38|11=eRt9L2|21=3|38=8800|40=2|44=113.88775318910443|54=2|55=UNH|60=20151204-14:30:00.024|107=Unitedhealth Group Inc|10=229|"
"8=FIX.4.2|9=140|35=D|1=CLIENT19|11=mq5pER|21=3|38=155300|40=2|44=64.40127777765795|54=1|55=MNK|60=20151204-14:30:00.024|107=Mallinckrodt Plc Ordinary Share|10=168|"
"8=FIX.4.2|9=122|35=D|1=CLIENT22|11=58PLca|21=3|38=517200|40=2|44=19.3371398405889|54=1|55=SYMC|60=20151204-14:30:00.024|107=Symantec Corp|10=208|"
"8=FIX.4.2|9=124|35=D|1=CLIENT18|11=6p2xhL|21=3|38=228300|40=2|44=43.8174117052683|54=2|55=VIAB|60=20151204-14:30:00.024|107=Viacom Inc Cl B|10=181|"
"8=FIX.4.2|9=122|35=D|1=CLIENT15|11=7HDYm2|21=3|38=297900|40=2|44=33.57304351971196|54=1|55=XON|60=20151204-14:30:00.024|107=Intrexon Corp|10=189|"
"8=FIX.4.2|9=122|35=D|1=CLIENT264|11=0c1GBl|21=3|38=66400|40=2|44=15.07302424511245|54=1|55=PE|60=20151204-14:30:00.024|107=Parsley Energy|10=160|"
"8=FIX.4.2|9=123|35=D|1=CLIENT23|11=3NngEO|21=3|38=2771800|40=2|44=3.60776528769369|54=2|55=MNKD|60=20151204-14:30:00.024|107=Mannkind Corp|10=010|"
"8=FIX.4.2|9=123|35=D|1=CLIENT17|11=BffgP4|21=3|38=19900|40=2|44=504.8886204334403|54=1|55=AMZN|60=20151204-14:30:00.024|107=Amazon.Com Inc|10=228|"
"8=FIX.4.2|9=121|35=D|1=CLIENT14|11=juOCF9|21=3|38=773000|40=2|44=12.93769040071215|54=1|55=SPLS|60=20151204-14:30:00.024|107=Staples Inc|10=052|"
"8=FIX.4.2|9=119|35=D|1=CLIENT26|11=MqYRcH|21=3|38=21500|40=2|44=46.72559251502147|54=2|55=KSS|60=20151204-14:30:00.024|107=Kohl's Corp|10=167|"
"8=FIX.4.2|9=122|35=D|1=CLIENT11|11=MEKfFj|21=3|38=445500|40=2|44=22.44906023055636|54=1|55=JBL|60=20151204-14:30:00.024|107=Jabil Circuit|10=139|"
"8=FIX.4.2|9=133|35=D|1=CLIENT40|11=J6XWj5|21=3|38=62800|40=2|44=15.92935633280624|54=2|55=AEO|60=20151204-14:30:00.024|107=American Eagle Outfitters|10=227|"
"8=FIX.4.2|9=130|35=D|1=CLIENT42|11=Cz1zAv|21=3|38=642900|40=2|44=1.55548517143141|54=2|55=AMD|60=20151204-14:30:00.024|107=Advanced Micro Devices|10=196|"
"8=FIX.4.2|9=131|35=D|1=CLIENT3|11=ChtPYh|21=3|38=386400|40=2|44=25.88119229503727|54=2|55=HRTX|60=20151204-14:30:00.024|107=Heron Therapeutics Inc|10=139|"
"8=FIX.4.2|9=131|35=D|1=CLIENT51|11=QNrpw9|21=3|38=30100|40=2|44=33.2840775776793|54=2|55=BAX|60=20151204-14:30:00.024|107=Baxter International Inc|10=187|"
"8=FIX.4.2|9=121|35=D|1=CLIENT40|11=YoO4vB|21=3|38=23400|40=2|44=42.82103643432591|54=2|55=MDP|60=20151204-14:30:00.024|107=Meredith Corp|10=126|"
"8=FIX.4.2|9=124|35=D|1=CLIENT23|11=pEmB9F|21=3|38=475000|40=2|44=21.05666698134658|54=2|55=P|60=20151204-14:30:00.025|107=Pandora Media Inc|10=053|"
"8=FIX.4.2|9=121|35=D|1=CLIENT181|11=4m2iHG|21=3|38=37000|40=2|44=27.052870809493|54=1|55=GLNG|60=20151204-14:30:00.025|107=Golar Lng Ltd|10=255|"
"8=FIX.4.2|9=127|35=D|1=CLIENT29|11=UlJrnY|21=3|38=22300|40=2|44=44.89094202162517|54=1|55=DAL|60=20151204-14:30:00.025|107=Delta Air Lines Inc|10=086|"
"8=FIX.4.2|9=132|35=D|1=CLIENT14|11=cOXEDC|21=3|38=10625400|40=2|44=0.94114144024742|54=2|55=AMD|60=20151204-14:30:00.025|107=Advanced Micro Devices|10=210|"
"8=FIX.4.2|9=135|35=D|1=CLIENT12|11=wGNSDu|21=3|38=268500|40=2|44=37.25367796210892|54=1|55=LUV|60=20151204-14:30:00.025|107=Southwest Airlines Company|10=059|"
"8=FIX.4.2|9=125|35=D|1=CLIENT60|11=Kmubca|21=3|38=96000|40=2|44=10.41805671620827|54=1|55=CNX|60=20151204-14:30:00.025|107=Consol Energy Inc|10=047|"
"8=FIX.4.2|9=132|35=D|1=CLIENT5|11=2oDLXV|21=3|38=313100|40=2|44=31.94721115525248|54=2|55=BWC|60=20151204-14:30:00.025|107=Babcock & Wilcox Company|10=237|"
"8=FIX.4.2|9=123|35=D|1=CLIENT167|11=PDhQjw|21=3|38=2000|40=2|44=505.2916730426444|54=2|55=AMZN|60=20151204-14:30:00.025|107=Amazon.Com Inc|10=016|"
"8=FIX.4.2|9=139|35=D|1=CLIENT54|11=7Ppcc9|21=3|38=690300|40=2|44=1.44870196623704|54=1|55=CRC|60=20151204-14:30:00.025|107=California Resources Corporatio|10=179|"
"8=FIX.4.2|9=120|35=D|1=CLIENT29|11=uvlHCO|21=3|38=70400|40=2|44=14.22123835280479|54=2|55=EPZM|60=20151204-14:30:00.025|107=Epizyme Inc|10=075|"
"8=FIX.4.2|9=132|35=D|1=CLIENT32|11=rOq7nJ|21=3|38=30800|40=2|44=32.47044647597483|54=1|55=CVC|60=20151204-14:30:00.025|107=Cablevision Systems Corp|10=005|"
"8=FIX.4.2|9=119|35=D|1=CLIENT50|11=dNwBPh|21=3|38=12900|40=2|44=77.72987785843839|54=1|55=YUM|60=20151204-14:30:00.025|107=Yum! Brands|10=224|"
"8=FIX.4.2|9=121|35=D|1=CLIENT9|11=3EtVUL|21=3|38=449200|40=2|44=22.26542042796249|54=2|55=JBL|60=20151204-14:30:00.025|107=Jabil Circuit|10=093|"
"8=FIX.4.2|9=117|35=D|1=CLIENT27|11=1GF7fb|21=3|38=73300|40=2|44=13.65250102048809|54=1|55=ESV|60=20151204-14:30:00.025|107=Ensco Plc|10=161|"
"8=FIX.4.2|9=119|35=D|1=CLIENT45|11=dGpiTd|21=3|38=61700|40=2|44=16.21212876480941|54=2|55=GLW|60=20151204-14:30:00.025|107=Corning Inc|10=251|"
"8=FIX.4.2|9=131|35=D|1=CLIENT47|11=6KV63L|21=3|38=1439800|40=2|44=0.69458307622102|54=2|55=AMD|60=20151204-14:30:00.025|107=Advanced Micro Devices|10=108|"
"8=FIX.4.2|9=140|35=D|1=CLIENT43|11=mO7VzC|21=3|38=77400|40=2|44=12.92078610768096|54=1|55=PAH|60=20151204-14:30:00.025|107=Platform Specialty Products Corp|10=234|"
"8=FIX.4.2|9=132|35=D|1=CLIENT26|11=hZA52a|21=3|38=29500|40=2|44=33.94169557458115|54=1|55=BAX|60=20151204-14:30:00.025|107=Baxter International Inc|10=146|"
"8=FIX.4.2|9=130|35=D|1=CLIENT33|11=qYfagZ|21=3|38=54900|40=2|44=18.22919434409006|54=1|55=CNP|60=20151204-14:30:00.025|107=Centerpoint Energy Inc|10=070|"
"8=FIX.4.2|9=138|35=D|1=CLIENT60|11=Ih7GKK|21=3|38=13400|40=2|44=74.91621291682668|54=2|55=HCA|60=20151204-14:30:00.025|107=Hca Holdings Inc. Common Stock|10=221|"
"8=FIX.4.2|9=135|35=D|1=CLIENT22|11=GfDtra|21=3|38=269000|40=2|44=37.18121653988184|54=1|55=LUV|60=20151204-14:30:00.025|107=Southwest Airlines Company|10=086|"
"8=FIX.4.2|9=124|35=D|1=CLIENT2|11=VImS6T|21=3|38=280400|40=2|44=35.67017472635883|54=2|55=NOV|60=20151204-14:30:00.025|107=National-Oilwell|10=228|"
"8=FIX.4.2|9=138|35=D|1=CLIENT9|11=sfGdLY|21=3|38=694600|40=2|44=14.39705734592225|54=1|55=BEE|60=20151204-14:30:00.025|107=Strategic Hotels & Resorts Inc|10=152|"
"8=FIX.4.2|9=125|35=D|1=CLIENT36|11=YDeA8Z|21=3|38=28000|40=2|44=35.75819161605367|54=1|55=FAST|60=20151204-14:30:00.025|107=Fastenal Company|10=246|"
