"8=FIX.4.2|9=64|35=S|55=WETF|60=20151204-14:30:00.000|117=S|132=16.64|133=16.64|10=098|"
"8=FIX.4.2|9=61|35=S|55=TWO|60=20151204-14:30:00.000|117=S|132=9.39|133=9.39|10=203|"
"8=FIX.4.2|9=63|35=S|55=MON|60=20151204-14:30:00.000|117=S|132=83.48|133=83.48|10=033|"
"8=FIX.4.2|9=64|35=S|55=ALTR|60=20151204-14:30:00.000|117=S|132=50.82|133=50.82|10=091|"
"8=FIX.4.2|9=64|35=S|55=UA|60=20151204-14:30:00.000|117=S|132=102.82|133=102.82|10=026|"
"8=FIX.4.2|9=61|35=S|55=ACN|60=20151204-14:30:00.000|117=S|132=97.3|133=97.3|10=159|"
"8=FIX.4.2|9=61|35=S|55=TSN|60=20151204-14:30:00.000|117=S|132=42.6|133=42.6|10=180|"
"8=FIX.4.2|9=63|35=S|55=HCA|60=20151204-14:30:00.000|117=S|132=75.93|133=75.93|10=005|"
"8=FIX.4.2|9=63|35=S|55=IPG|60=20151204-14:30:00.000|117=S|132=19.63|133=19.63|10=015|"
"8=FIX.4.2|9=63|35=S|55=AEP|60=20151204-14:30:00.000|117=S|132=56.69|133=56.69|10=019|"
"8=FIX.4.2|9=64|35=S|55=AMBA|60=20151204-14:30:00.000|117=S|132=57.32|133=57.32|10=061|"
"8=FIX.4.2|9=64|35=S|55=PTEN|60=20151204-14:30:00.000|117=S|132=14.31|133=14.31|10=083|"
"8=FIX.4.2|9=64|35=S|55=SPLS|60=20151204-14:30:00.000|117=S|132=12.69|133=12.69|10=112|"
"8=FIX.4.2|9=63|35=S|55=LUK|60=20151204-14:30:00.000|117=S|132=20.01|133=20.01|10=251|"
"8=FIX.4.2|9=63|35=S|55=CAG|60=20151204-14:30:00.000|117=S|132=41.05|133=41.05|10=232|"
"8=FIX.4.2|9=61|35=S|55=APA|60=20151204-14:30:00.000|117=S|132=37.7|133=37.7|10=155|"
"8=FIX.4.2|9=61|35=S|55=CDE|60=20151204-14:30:00.000|117=S|132=2.88|133=2.88|10=151|"
"8=FIX.4.2|9=61|35=S|55=BKD|60=20151204-14:30:00.000|117=S|132=23.5|133=23.5|10=140|"
"8=FIX.4.2|9=64|35=S|55=FITB|60=20151204-14:30:00.000|117=S|132=19.81|133=19.81|10=085|"
"8=FIX.4.2|9=63|35=S|55=BBY|60=20151204-14:30:00.000|117=S|132=35.79|133=35.79|10=022|"
"8=FIX.4.2|9=63|35=S|55=LUK|60=20151204-14:30:00.000|117=S|132=20.28|133=20.28|10=013|"
"8=FIX.4.2|9=62|35=S|55=RPTP|60=20151204-14:30:00.000|117=S|132=6.38|133=6.38|10=016|"
"8=FIX.4.2|9=61|35=S|55=ACN|60=20151204-14:30:00.000|117=S|132=96.9|133=96.9|10=169|"
"8=FIX.4.2|9=66|35=S|55=AVGO|60=20151204-14:30:00.000|117=S|132=124.08|133=124.08|10=183|"
"8=FIX.4.2|9=64|35=S|55=PTEN|60=20151204-14:30:00.000|117=S|132=14.32|133=14.32|10=085|"
"8=FIX.4.2|9=61|35=S|55=UTX|60=20151204-14:30:00.000|117=S|132=87.7|133=87.7|10=212|"
"8=FIX.4.2|9=63|35=S|55=XON|60=20151204-14:30:00.000|117=S|132=34.88|133=34.88|10=044|"
"8=FIX.4.2|9=64|35=S|55=CRUS|60=20151204-14:30:00.000|117=S|132=31.72|133=31.72|10=097|"
"8=FIX.4.2|9=63|35=S|55=MTG|60=20151204-14:30:00.000|117=S|132=10.16|133=10.16|10=001|"
"8=FIX.4.2|9=64|35=S|55=PTEN|60=20151204-14:30:00.000|117=S|132=14.77|133=14.77|10=103|"
"8=FIX.4.2|9=62|35=S|55=AR|60=20151204-14:30:00.000|117=S|132=21.19|133=21.19|10=181|"
"8=FIX.4.2|9=62|35=S|55=GSAT|60=20151204-14:30:00.000|117=S|132=2.14|133=2.14|10=229|"
"8=FIX.4.2|9=61|35=S|55=SVU|60=20151204-14:30:00.000|117=S|132=7.78|133=7.78|10=209|"
"8=FIX.4.2|9=63|35=S|55=HOG|60=20151204-14:30:00.000|117=S|132=53.62|133=53.62|10=007|"
"8=FIX.4.2|9=63|35=S|55=CNX|60=20151204-14:30:00.000|117=S|132=10.35|133=10.35|10=004|"
"8=FIX.4.2|9=64|35=S|55=STWD|60=20151204-14:30:00.000|117=S|132=21.11|133=21.11|10=086|"
"8=FIX.4.2|9=61|35=S|55=PTX|60=20151204-14:30:00.000|117=S|132=3.16|133=3.16|10=183|"
"8=FIX.4.2|9=64|35=S|55=WYNN|60=20151204-14:30:00.000|117=S|132=55.84|133=55.84|10=130|"
"8=FIX.4.2|9=62|35=S|55=ARWR|60=20151204-14:30:00.000|117=S|132=6.96|133=6.96|10=014|"
"8=FIX.4.2|9=64|35=S|55=PCAR|60=20151204-14:30:00.000|117=S|132=52.92|133=52.92|10=084|"
"8=FIX.4.2|9=63|35=S|55=HON|60=20151204-14:30:00.000|117=S|132=93.69|133=93.69|10=036|"
"8=FIX.4.2|9=64|35=S|55=CRUS|60=20151204-14:30:00.000|117=S|132=31.46|133=31.46|10=099|"
"8=FIX.4.2|9=63|35=S|55=RCL|60=20151204-14:30:00.000|117=S|132=88.34|133=88.34|10=024|"
"8=FIX.4.2|9=63|35=S|55=BRX|60=20151204-14:30:00.000|117=S|132=23.23|133=23.23|10=009|"
"8=FIX.4.2|9=63|35=S|55=PPL|60=20151204-14:30:00.000|117=S|132=32.56|133=32.56|10=021|"
"8=FIX.4.2|9=64|35=S|55=DXCM|60=20151204-14:30:00.000|117=S|132=87.05|133=87.05|10=094|"
"8=FIX.4.2|9=62|35=S|55=KR|60=20151204-14:30:00.000|117=S|132=36.63|133=36.63|10=201|"
"8=FIX.4.2|9=63|35=S|55=APC|60=20151204-14:30:00.000|117=S|132=61.33|133=61.33|10=247|"
"8=FIX.4.2|9=64|35=S|55=SNDK|60=20151204-14:30:00.000|117=S|132=49.38|133=49.38|10=106|"
"8=FIX.4.2|9=62|35=S|55=PCAR|60=20151204-14:30:00.000|117=S|132=53.1|133=53.1|10=224|"
"8=FIX.4.2|9=61|35=S|55=TRN|60=20151204-14:30:00.001|117=S|132=23.4|133=23.4|10=174|"
"8=FIX.4.2|9=63|35=S|55=ANF|60=20151204-14:30:00.001|117=S|132=21.03|133=21.03|10=235|"
"8=FIX.4.2|9=64|35=S|55=INCY|60=20151204-14:30:00.001|117=S|132=98.14|133=98.14|10=106|"
"8=FIX.4.2|9=63|35=S|55=NWL|60=20151204-14:30:00.001|117=S|132=40.36|133=40.36|10=021|"
"8=FIX.4.2|9=62|35=S|55=PX|60=20151204-14:30:00.001|117=S|132=99.74|133=99.74|10=235|"
"8=FIX.4.2|9=63|35=S|55=CBI|60=20151204-14:30:00.001|117=S|132=37.63|133=37.63|10=254|"
"8=FIX.4.2|9=64|35=S|55=ALLY|60=20151204-14:30:00.001|117=S|132=21.08|133=21.08|10=083|"
"8=FIX.4.2|9=63|35=S|55=MUR|60=20151204-14:30:00.001|117=S|132=24.29|133=24.29|10=032|"
"8=FIX.4.2|9=63|35=S|55=STI|60=20151204-14:30:00.001|117=S|132=38.73|133=38.73|10=036|"
"8=FIX.4.2|9=62|35=S|55=GLOG|60=20151204-14:30:00.001|117=S|132=9.64|133=9.64|10=248|"
"8=FIX.4.2|9=63|35=S|55=PAH|60=20151204-14:30:00.001|117=S|132=13.26|133=13.26|10=251|"
"8=FIX.4.2|9=64|35=S|55=PAYX|60=20151204-14:30:00.001|117=S|132=46.16|133=46.16|10=111|"
"8=FIX.4.2|9=63|35=S|55=DVN|60=20151204-14:30:00.001|117=S|132=37.91|133=37.91|10=026|"
"8=FIX.4.2|9=63|35=S|55=STI|60=20151204-14:30:00.001|117=S|132=38.43|133=38.43|10=030|"
"8=FIX.4.2|9=60|35=S|55=PLUG|60=20151204-14:30:00.001|117=S|132=2.5|133=2.5|10=141|"
"8=FIX.4.2|9=62|35=S|55=SNTA|60=20151204-14:30:00.001|117=S|132=1.97|133=1.97|10=001|"
"8=FIX.4.2|9=63|35=S|55=ADM|60=20151204-14:30:00.001|117=S|132=42.33|133=42.33|10=244|"
"8=FIX.4.2|9=64|35=S|55=BA|60=20151204-14:30:00.001|117=S|132=130.14|133=130.14|10=000|"
"8=FIX.4.2|9=63|35=S|55=WBA|60=20151204-14:30:00.001|117=S|132=84.44|133=84.44|10=012|"
"8=FIX.4.2|9=63|35=S|55=TSO|60=20151204-14:30:00.001|117=S|132=99.44|133=99.44|10=052|"
"8=FIX.4.2|9=64|35=S|55=NYCB|60=20151204-14:30:00.001|117=S|132=18.07|133=18.07|10=087|"
"8=FIX.4.2|9=63|35=S|55=CNP|60=20151204-14:30:00.001|117=S|132=17.86|133=17.86|10=023|"
"8=FIX.4.2|9=64|35=S|55=SNDK|60=20151204-14:30:00.001|117=S|132=49.91|133=49.91|10=105|"
"8=FIX.4.2|9=61|35=S|55=LOW|60=20151204-14:30:00.001|117=S|132=68.7|133=68.7|10=196|"
"8=FIX.4.2|9=63|35=S|55=BHI|60=20151204-14:30:00.001|117=S|132=51.91|133=51.91|10=253|"
"8=FIX.4.2|9=62|35=S|55=BK|60=20151204-14:30:00.001|117=S|132=39.61|133=39.61|10=188|"
"8=FIX.4.2|9=64|35=S|55=BRCM|60=20151204-14:30:00.001|117=S|132=52.15|133=52.15|10=073|"
"8=FIX.4.2|9=63|35=S|55=RCL|60=20151204-14:30:00.001|117=S|132=88.36|133=88.36|10=029|"
"8=FIX.4.2|9=62|35=S|55=CL|60=20151204-14:30:00.001|117=S|132=63.73|133=63.73|10=190|"
"8=FIX.4.2|9=63|35=S|55=NFX|60=20151204-14:30:00.001|117=S|132=32.69|133=32.69|10=030|"
"8=FIX.4.2|9=64|35=S|55=CLDX|60=20151204-14:30:00.001|117=S|132=12.26|133=12.26|10=076|"
"8=FIX.4.2|9=63|35=S|55=PAH|60=20151204-14:30:00.001|117=S|132=13.68|133=13.68|10=007|"
"8=FIX.4.2|9=66|35=S|55=PRGO|60=20151204-14:30:00.001|117=S|132=153.97|133=153.97|10=215|"
"8=FIX.4.2|9=63|35=S|55=IPG|60=20151204-14:30:00.001|117=S|132=19.01|133=19.01|10=000|"
"8=FIX.4.2|9=63|35=S|55=RCL|60=20151204-14:30:00.001|117=S|132=87.88|133=87.88|10=041|"
"8=FIX.4.2|9=61|35=S|55=PAY|60=20151204-14:30:00.001|117=S|132=27.7|133=27.7|10=178|"
"8=FIX.4.2|9=62|35=S|55=GNTX|60=20151204-14:30:00.001|117=S|132=14.9|133=14.9|10=006|"
"8=FIX.4.2|9=63|35=S|55=BMR|60=20151204-14:30:00.001|117=S|132=21.09|133=21.09|10=003|"
"8=FIX.4.2|9=60|35=S|55=DO|60=20151204-14:30:00.001|117=S|132=18.3|133=18.3|10=082|"
"8=FIX.4.2|9=61|35=S|55=MFA|60=20151204-14:30:00.001|117=S|132=7.67|133=7.67|10=164|"
"8=FIX.4.2|9=61|35=S|55=M|60=20151204-14:30:00.001|117=S|132=51.29|133=51.29|10=119|"
"8=FIX.4.2|9=63|35=S|55=HCP|60=20151204-14:30:00.001|117=S|132=37.06|133=37.06|10=005|"
"8=FIX.4.2|9=63|35=S|55=COG|60=20151204-14:30:00.001|117=S|132=24.19|133=24.19|10=003|"
"8=FIX.4.2|9=62|35=S|55=HRTX|60=20151204-14:30:00.001|117=S|132=25.3|133=25.3|10=003|"
"8=FIX.4.2|9=63|35=S|55=CPN|60=20151204-14:30:00.001|117=S|132=15.12|133=15.12|10=253|"
"8=FIX.4.2|9=63|35=S|55=DDD|60=20151204-14:30:00.001|117=S|132=12.35|133=12.35|10=236|"
"8=FIX.4.2|9=64|35=S|55=AGNC|60=20151204-14:30:00.001|117=S|132=19.18|133=19.18|10=074|"
"8=FIX.4.2|9=62|35=S|55=ACHN|60=20151204-14:30:00.001|117=S|132=8.04|133=8.04|10=219|"
"8=FIX.4.2|9=62|35=S|55=PLUG|60=20151204-14:30:00.001|117=S|132=2.19|133=2.19|10=249|"
"8=FIX.4.2|9=63|35=S|55=ETN|60=20151204-14:30:00.001|117=S|132=51.42|133=51.42|10=009|"
"8=FIX.4.2|9=63|35=S|55=AEP|60=20151204-14:30:00.002|117=S|132=56.46|133=56.46|10=011|"
"8=FIX.4.2|9=63|35=S|55=PGR|60=20151204-14:30:00.002|117=S|132=30.83|133=30.83|10=016|"
"8=FIX.4.2|9=64|35=S|55=DXCM|60=20151204-14:30:00.002|117=S|132=86.59|133=86.59|10=112|"
"8=FIX.4.2|9=57|35=S|55=MAR|60=20151204-14:30:00.002|117=S|132=67|133=67|10=236|"
"8=FIX.4.2|9=63|35=S|55=UAL|60=20151204-14:30:00.002|117=S|132=54.11|133=54.11|10=003|"
"8=FIX.4.2|9=63|35=S|55=FHN|60=20151204-14:30:00.002|117=S|132=14.38|133=14.38|10=007|"
"8=FIX.4.2|9=61|35=S|55=AVP|60=20151204-14:30:00.002|117=S|132=3.67|133=3.67|10=176|"
"8=FIX.4.2|9=62|35=S|55=CF|60=20151204-14:30:00.002|117=S|132=45.73|133=45.73|10=185|"
"8=FIX.4.2|9=62|35=S|55=SO|60=20151204-14:30:00.002|117=S|132=45.26|133=45.26|10=206|"
"8=FIX.4.2|9=62|35=S|55=EA|60=20151204-14:30:00.002|117=S|132=67.78|133=67.78|10=200|"
"8=FIX.4.2|9=67|35=S|55=BRK.B|60=20151204-14:30:00.002|117=S|132=128.78|133=128.78|10=242|"
"8=FIX.4.2|9=61|35=S|55=PTX|60=20151204-14:30:00.002|117=S|132=3.54|133=3.54|10=189|"
"8=FIX.4.2|9=63|35=S|55=CFG|60=20151204-14:30:00.002|117=S|132=23.22|133=23.22|10=237|"
"8=FIX.4.2|9=61|35=S|55=PTX|60=20151204-14:30:00.002|117=S|132=3.66|133=3.66|10=195|"
"8=FIX.4.2|9=64|35=S|55=BRCM|60=20151204-14:30:00.002|117=S|132=52.42|133=52.42|10=074|"
"8=FIX.4.2|9=64|35=S|55=ENDP|60=20151204-14:30:00.002|117=S|132=67.22|133=67.22|10=085|"
"8=FIX.4.2|9=67|35=S|55=GOOGL|60=20151204-14:30:00.002|117=S|132=628.53|133=628.53|10=023|"
"8=FIX.4.2|9=61|35=S|55=GGP|60=20151204-14:30:00.002|117=S|132=25.4|133=25.4|10=157|"
"8=FIX.4.2|9=61|35=S|55=GCA|60=20151204-14:30:00.002|117=S|132=5.85|133=5.85|10=152|"
"8=FIX.4.2|9=62|35=S|55=MRVL|60=20151204-14:30:00.002|117=S|132=9.66|133=9.66|10=021|"
"8=FIX.4.2|9=64|35=S|55=NKTR|60=20151204-14:30:00.002|117=S|132=12.19|133=12.19|10=101|"
"8=FIX.4.2|9=63|35=S|55=CLR|60=20151204-14:30:00.002|117=S|132=29.48|133=29.48|10=026|"
"8=FIX.4.2|9=60|35=S|55=MA|60=20151204-14:30:00.002|117=S|132=89.7|133=89.7|10=102|"
"8=FIX.4.2|9=61|35=S|55=ODP|60=20151204-14:30:00.002|117=S|132=7.17|133=7.17|10=170|"
"8=FIX.4.2|9=64|35=S|55=ISIS|60=20151204-14:30:00.002|117=S|132=41.42|133=41.42|10=090|"
"8=FIX.4.2|9=64|35=S|55=PCRX|60=20151204-14:30:00.002|117=S|132=42.82|133=42.82|10=105|"
"8=FIX.4.2|9=62|35=S|55=FL|60=20151204-14:30:00.002|117=S|132=75.28|133=75.28|10=200|"
"8=FIX.4.2|9=63|35=S|55=PRU|60=20151204-14:30:00.002|117=S|132=76.32|133=76.32|10=038|"
"8=FIX.4.2|9=64|35=S|55=EXAS|60=20151204-14:30:00.002|117=S|132=19.23|133=19.23|10=091|"
"8=FIX.4.2|9=63|35=S|55=GPS|60=20151204-14:30:00.002|117=S|132=31.37|133=31.37|10=017|"
"8=FIX.4.2|9=66|35=S|55=AVGO|60=20151204-14:30:00.002|117=S|132=123.95|133=123.95|10=195|"
"8=FIX.4.2|9=64|35=S|55=GLNG|60=20151204-14:30:00.002|117=S|132=27.68|133=27.68|10=098|"
"8=FIX.4.2|9=64|35=S|55=SPLS|60=20151204-14:30:00.002|117=S|132=12.77|133=12.77|10=112|"
"8=FIX.4.2|9=64|35=S|55=AMTD|60=20151204-14:30:00.002|117=S|132=31.38|133=31.38|10=080|"
"8=FIX.4.2|9=63|35=S|55=CAR|60=20151204-14:30:00.002|117=S|132=43.56|133=43.56|10=005|"
"8=FIX.4.2|9=63|35=S|55=LNG|60=20151204-14:30:00.002|117=S|132=47.65|133=47.65|10=024|"
"8=FIX.4.2|9=63|35=S|55=BEN|60=20151204-14:30:00.002|117=S|132=37.33|133=37.33|10=000|"
"8=FIX.4.2|9=61|35=S|55=ODP|60=20151204-14:30:00.002|117=S|132=6.69|133=6.69|10=182|"
"8=FIX.4.2|9=63|35=S|55=STI|60=20151204-14:30:00.002|117=S|132=37.83|133=37.83|10=037|"
"8=FIX.4.2|9=63|35=S|55=BWA|60=20151204-14:30:00.002|117=S|132=40.32|133=40.32|10=247|"
"8=FIX.4.2|9=63|35=S|55=AEP|60=20151204-14:30:00.002|117=S|132=56.93|133=56.93|10=015|"
"8=FIX.4.2|9=63|35=S|55=ADM|60=20151204-14:30:00.002|117=S|132=41.91|133=41.91|10=251|"
"8=FIX.4.2|9=63|35=S|55=PEG|60=20151204-14:30:00.002|117=S|132=40.69|133=40.69|10=013|"
"8=FIX.4.2|9=66|35=S|55=EXPE|60=20151204-14:30:00.002|117=S|132=118.53|133=118.53|10=196|"
"8=FIX.4.2|9=63|35=S|55=EMR|60=20151204-14:30:00.002|117=S|132=43.74|133=43.74|10=019|"
"8=FIX.4.2|9=64|35=S|55=ALKS|60=20151204-14:30:00.002|117=S|132=60.68|133=60.68|10=095|"
"8=FIX.4.2|9=61|35=S|55=SRC|60=20151204-14:30:00.002|117=S|132=9.75|133=9.75|10=187|"
"8=FIX.4.2|9=55|35=S|55=CRC|60=20151204-14:30:00.002|117=S|132=3|133=3|10=110|"
"8=FIX.4.2|9=63|35=S|55=PSX|60=20151204-14:30:00.002|117=S|132=76.04|133=76.04|10=040|"
"8=FIX.4.2|9=62|35=S|55=GERN|60=20151204-14:30:00.002|117=S|132=3.86|133=3.86|10=248|"
"8=FIX.4.2|9=63|35=S|55=SYY|60=20151204-14:30:00.003|117=S|132=39.84|133=39.84|10=065|"
"8=FIX.4.2|9=64|35=S|55=PX|60=20151204-14:30:00.003|117=S|132=100.12|133=100.12|10=029|"
"8=FIX.4.2|9=62|35=S|55=SGYP|60=20151204-14:30:00.003|117=S|132=5.99|133=5.99|10=028|"
"8=FIX.4.2|9=64|35=S|55=EW|60=20151204-14:30:00.003|117=S|132=136.67|133=136.67|10=055|"
"8=FIX.4.2|9=64|35=S|55=AMBA|60=20151204-14:30:00.003|117=S|132=57.07|133=57.07|10=068|"
"8=FIX.4.2|9=62|35=S|55=OREX|60=20151204-14:30:00.003|117=S|132=2.73|133=2.73|10=001|"
"8=FIX.4.2|9=61|35=S|55=MBI|60=20151204-14:30:00.003|117=S|132=7.04|133=7.04|10=152|"
"8=FIX.4.2|9=63|35=S|55=DVN|60=20151204-14:30:00.003|117=S|132=38.13|133=38.13|10=018|"
"8=FIX.4.2|9=62|35=S|55=DE|60=20151204-14:30:00.003|117=S|132=75.06|133=75.06|10=184|"
"8=FIX.4.2|9=62|35=S|55=PM|60=20151204-14:30:00.003|117=S|132=80.38|133=80.38|10=206|"
"8=FIX.4.2|9=64|35=S|55=ADXS|60=20151204-14:30:00.003|117=S|132=13.01|133=13.01|10=071|"
"8=FIX.4.2|9=61|35=S|55=AVP|60=20151204-14:30:00.003|117=S|132=4.29|133=4.29|10=175|"
"8=FIX.4.2|9=63|35=S|55=MNK|60=20151204-14:30:00.003|117=S|132=65.34|133=65.34|10=022|"
"8=FIX.4.2|9=64|35=S|55=FNFG|60=20151204-14:30:00.003|117=S|132=10.37|133=10.37|10=068|"
"8=FIX.4.2|9=64|35=S|55=EPZM|60=20151204-14:30:00.003|117=S|132=15.06|133=15.06|10=097|"
"8=FIX.4.2|9=62|35=S|55=XOMA|60=20151204-14:30:00.003|117=S|132=1.45|133=1.45|10=244|"
"8=FIX.4.2|9=61|35=S|55=STI|60=20151204-14:30:00.003|117=S|132=38.7|133=38.7|10=190|"
"8=FIX.4.2|9=63|35=S|55=FLR|60=20151204-14:30:00.003|117=S|132=41.86|133=41.86|10=022|"
"8=FIX.4.2|9=65|35=S|55=MCK|60=20151204-14:30:00.003|117=S|132=187.04|133=187.04|10=113|"
"8=FIX.4.2|9=63|35=S|55=GIS|60=20151204-14:30:00.003|117=S|132=56.31|133=56.31|10=013|"
"8=FIX.4.2|9=64|35=S|55=ALLY|60=20151204-14:30:00.003|117=S|132=20.74|133=20.74|10=089|"
"8=FIX.4.2|9=63|35=S|55=NUE|60=20151204-14:30:00.003|117=S|132=37.34|133=37.34|10=022|"
"8=FIX.4.2|9=64|35=S|55=CLDX|60=20151204-14:30:00.003|117=S|132=12.03|133=12.03|10=068|"
"8=FIX.4.2|9=63|35=S|55=CVC|60=20151204-14:30:00.003|117=S|132=33.36|133=33.36|10=006|"
"8=FIX.4.2|9=64|35=S|55=ASNA|60=20151204-14:30:00.003|117=S|132=13.72|133=13.72|10=074|"
"8=FIX.4.2|9=59|35=S|55=GNW|60=20151204-14:30:00.003|117=S|132=5.5|133=5.5|10=081|"
"8=FIX.4.2|9=63|35=S|55=XPO|60=20151204-14:30:00.003|117=S|132=22.59|133=22.59|10=039|"
"8=FIX.4.2|9=62|35=S|55=CL|60=20151204-14:30:00.003|117=S|132=63.63|133=63.63|10=190|"
"8=FIX.4.2|9=62|35=S|55=MRVL|60=20151204-14:30:00.003|117=S|132=9.27|133=9.27|10=016|"
"8=FIX.4.2|9=63|35=S|55=DDD|60=20151204-14:30:00.003|117=S|132=12.43|133=12.43|10=236|"
"8=FIX.4.2|9=63|35=S|55=HCN|60=20151204-14:30:00.003|117=S|132=66.19|133=66.19|10=017|"
"8=FIX.4.2|9=62|35=S|55=HCBK|60=20151204-14:30:00.003|117=S|132=9.89|133=9.89|10=247|"
"8=FIX.4.2|9=63|35=S|55=CAR|60=20151204-14:30:00.003|117=S|132=44.17|133=44.17|10=002|"
"8=FIX.4.2|9=63|35=S|55=LNG|60=20151204-14:30:00.003|117=S|132=47.42|133=47.42|10=015|"
"8=FIX.4.2|9=63|35=S|55=CCL|60=20151204-14:30:00.003|117=S|132=49.83|133=49.83|10=014|"
"8=FIX.4.2|9=64|35=S|55=FINL|60=20151204-14:30:00.003|117=S|132=20.62|133=20.62|10=074|"
"8=FIX.4.2|9=64|35=S|55=STWD|60=20151204-14:30:00.003|117=S|132=21.07|133=21.07|10=099|"
"8=FIX.4.2|9=61|35=S|55=SRC|60=20151204-14:30:00.003|117=S|132=9.81|133=9.81|10=182|"
"8=FIX.4.2|9=62|35=S|55=ALLY|60=20151204-14:30:00.003|117=S|132=21.1|133=21.1|10=229|"
"8=FIX.4.2|9=63|35=S|55=KND|60=20151204-14:30:00.003|117=S|132=16.56|133=16.56|10=013|"
"8=FIX.4.2|9=67|35=S|55=BRK.B|60=20151204-14:30:00.003|117=S|132=128.71|133=128.71|10=229|"
"8=FIX.4.2|9=63|35=S|55=EMR|60=20151204-14:30:00.003|117=S|132=43.96|133=43.96|10=028|"
"8=FIX.4.2|9=64|35=S|55=NYCB|60=20151204-14:30:00.003|117=S|132=18.95|133=18.95|10=103|"
"8=FIX.4.2|9=62|35=S|55=RPTP|60=20151204-14:30:00.003|117=S|132=6.41|133=6.41|10=007|"
"8=FIX.4.2|9=64|35=S|55=MDCO|60=20151204-14:30:00.003|117=S|132=39.92|133=39.92|10=094|"
"8=FIX.4.2|9=61|35=S|55=ODP|60=20151204-14:30:00.003|117=S|132=6.92|133=6.92|10=175|"
"8=FIX.4.2|9=64|35=S|55=ITCI|60=20151204-14:30:00.003|117=S|132=38.33|133=38.33|10=088|"
"8=FIX.4.2|9=61|35=S|55=MET|60=20151204-14:30:00.003|117=S|132=47.1|133=47.1|10=168|"
"8=FIX.4.2|9=63|35=S|55=GPS|60=20151204-14:30:00.003|117=S|132=30.81|133=30.81|10=014|"
"8=FIX.4.2|9=61|35=S|55=TRN|60=20151204-14:30:00.003|117=S|132=23.9|133=23.9|10=186|"
"8=FIX.4.2|9=63|35=S|55=XON|60=20151204-14:30:00.004|117=S|132=34.35|133=34.35|10=032|"
"8=FIX.4.2|9=64|35=S|55=TROW|60=20151204-14:30:00.004|117=S|132=69.45|133=69.45|10=138|"
"8=FIX.4.2|9=61|35=S|55=AMD|60=20151204-14:30:00.004|117=S|132=1.87|133=1.87|10=157|"
"8=FIX.4.2|9=63|35=S|55=CVS|60=20151204-14:30:00.004|117=S|132=97.69|133=97.69|10=055|"
"8=FIX.4.2|9=64|35=S|55=JUNO|60=20151204-14:30:00.004|117=S|132=42.27|133=42.27|10=104|"
"8=FIX.4.2|9=63|35=S|55=NWL|60=20151204-14:30:00.004|117=S|132=40.43|133=40.43|10=020|"
"8=FIX.4.2|9=63|35=S|55=BRX|60=20151204-14:30:00.004|117=S|132=23.33|133=23.33|10=015|"
"8=FIX.4.2|9=64|35=S|55=EW|60=20151204-14:30:00.004|117=S|132=136.84|133=136.84|10=054|"
"8=FIX.4.2|9=63|35=S|55=DAL|60=20151204-14:30:00.004|117=S|132=44.86|133=44.86|10=010|"
"8=FIX.4.2|9=60|35=S|55=MM|60=20151204-14:30:00.004|117=S|132=2.68|133=2.68|10=100|"
"8=FIX.4.2|9=65|35=S|55=IBM|60=20151204-14:30:00.004|117=S|132=144.17|133=144.17|10=105|"
"8=FIX.4.2|9=62|35=S|55=ANTH|60=20151204-14:30:00.004|117=S|132=7.24|133=7.24|10=241|"
"8=FIX.4.2|9=64|35=S|55=HOLX|60=20151204-14:30:00.004|117=S|132=39.53|133=39.53|10=113|"
"8=FIX.4.2|9=64|35=S|55=ENDP|60=20151204-14:30:00.004|117=S|132=67.95|133=67.95|10=107|"
"8=FIX.4.2|9=63|35=S|55=HOT|60=20151204-14:30:00.004|117=S|132=66.53|133=66.53|10=032|"
"8=FIX.4.2|9=63|35=S|55=STI|60=20151204-14:30:00.004|117=S|132=38.61|133=38.61|10=033|"
"8=FIX.4.2|9=63|35=S|55=TSN|60=20151204-14:30:00.004|117=S|132=42.86|133=42.86|10=042|"
"8=FIX.4.2|9=62|35=S|55=THRX|60=20151204-14:30:00.004|117=S|132=7.99|133=7.99|10=036|"
"8=FIX.4.2|9=62|35=S|55=ARRY|60=20151204-14:30:00.004|117=S|132=4.96|133=4.96|10=016|"
"8=FIX.4.2|9=67|35=S|55=GOOGL|60=20151204-14:30:00.004|117=S|132=629.46|133=629.46|10=031|"
"8=FIX.4.2|9=62|35=S|55=AMTD|60=20151204-14:30:00.004|117=S|132=31.4|133=31.4|10=226|"
"8=FIX.4.2|9=65|35=S|55=ACE|60=20151204-14:30:00.004|117=S|132=102.43|133=102.43|10=076|"
"8=FIX.4.2|9=63|35=S|55=CVS|60=20151204-14:30:00.004|117=S|132=97.73|133=97.73|10=045|"
"8=FIX.4.2|9=63|35=S|55=HIG|60=20151204-14:30:00.004|117=S|132=45.04|133=45.04|10=255|"
"8=FIX.4.2|9=63|35=S|55=IPG|60=20151204-14:30:00.004|117=S|132=19.66|133=19.66|10=025|"
"8=FIX.4.2|9=61|35=S|55=BMR|60=20151204-14:30:00.004|117=S|132=20.3|133=20.3|10=150|"
"8=FIX.4.2|9=62|35=S|55=BCEI|60=20151204-14:30:00.004|117=S|132=5.39|133=5.39|10=225|"
"8=FIX.4.2|9=62|35=S|55=CTIC|60=20151204-14:30:00.004|117=S|132=1.76|133=1.76|10=235|"
"8=FIX.4.2|9=63|35=S|55=BMR|60=20151204-14:30:00.004|117=S|132=20.67|133=20.67|10=012|"
"8=FIX.4.2|9=62|35=S|55=XOMA|60=20151204-14:30:00.004|117=S|132=0.89|133=0.89|10=003|"
"8=FIX.4.2|9=64|35=S|55=DXCM|60=20151204-14:30:00.004|117=S|132=86.89|133=86.89|10=120|"
"8=FIX.4.2|9=64|35=S|55=MDCO|60=20151204-14:30:00.004|117=S|132=39.66|133=39.66|10=097|"
"8=FIX.4.2|9=62|35=S|55=IDRA|60=20151204-14:30:00.004|117=S|132=4.09|133=4.09|10=230|"
"8=FIX.4.2|9=67|35=S|55=BRK.B|60=20151204-14:30:00.004|117=S|132=129.25|133=129.25|10=230|"
"8=FIX.4.2|9=63|35=S|55=DFS|60=20151204-14:30:00.004|117=S|132=51.23|133=51.23|10=000|"
"8=FIX.4.2|9=64|35=S|55=WETF|60=20151204-14:30:00.004|117=S|132=16.18|133=16.18|10=100|"
"8=FIX.4.2|9=63|35=S|55=CCI|60=20151204-14:30:00.004|117=S|132=78.47|133=78.47|10=016|"
"8=FIX.4.2|9=63|35=S|55=CYH|60=20151204-14:30:00.004|117=S|132=41.95|133=41.95|10=023|"
"8=FIX.4.2|9=61|35=S|55=SLM|60=20151204-14:30:00.004|117=S|132=8.17|133=8.17|10=183|"
"8=FIX.4.2|9=61|35=S|55=WEN|60=20151204-14:30:00.004|117=S|132=9.31|133=9.31|10=175|"
"8=FIX.4.2|9=63|35=S|55=NOV|60=20151204-14:30:00.004|117=S|132=37.47|133=37.47|10=042|"
"8=FIX.4.2|9=65|35=S|55=AET|60=20151204-14:30:00.004|117=S|132=108.15|133=108.15|10=103|"
"8=FIX.4.2|9=63|35=S|55=CYH|60=20151204-14:30:00.004|117=S|132=42.24|133=42.24|10=009|"
"8=FIX.4.2|9=63|35=S|55=ACN|60=20151204-14:30:00.004|117=S|132=96.91|133=96.91|10=017|"
"8=FIX.4.2|9=64|35=S|55=HOLX|60=20151204-14:30:00.004|117=S|132=39.42|133=39.42|10=109|"
"8=FIX.4.2|9=63|35=S|55=WDC|60=20151204-14:30:00.004|117=S|132=69.13|133=69.13|10=017|"
"8=FIX.4.2|9=63|35=S|55=KBH|60=20151204-14:30:00.004|117=S|132=14.88|133=14.88|10=012|"
"8=FIX.4.2|9=64|35=S|55=SYMC|60=20151204-14:30:00.004|117=S|132=20.67|133=20.67|10=104|"
"8=FIX.4.2|9=63|35=S|55=HRB|60=20151204-14:30:00.004|117=S|132=36.12|133=36.12|10=001|"
"8=FIX.4.2|9=63|35=S|55=FLR|60=20151204-14:30:00.004|117=S|132=41.58|133=41.58|10=021|"
"8=FIX.4.2|9=63|35=S|55=PAH|60=20151204-14:30:00.005|117=S|132=13.45|133=13.45|10=001|"
"8=FIX.4.2|9=65|35=S|55=ACE|60=20151204-14:30:00.005|117=S|132=102.24|133=102.24|10=075|"
"8=FIX.4.2|9=63|35=S|55=UAL|60=20151204-14:30:00.005|117=S|132=53.54|133=53.54|10=018|"
"8=FIX.4.2|9=62|35=S|55=GLOG|60=20151204-14:30:00.005|117=S|132=9.88|133=9.88|10=008|"
"8=FIX.4.2|9=62|35=S|55=SNTA|60=20151204-14:30:00.005|117=S|132=2.24|133=2.24|10=243|"
"8=FIX.4.2|9=61|35=S|55=CPE|60=20151204-14:30:00.005|117=S|132=7.64|133=7.64|10=166|"
"8=FIX.4.2|9=64|35=S|55=GNTX|60=20151204-14:30:00.005|117=S|132=15.75|133=15.75|10=116|"
"8=FIX.4.2|9=64|35=S|55=STWD|60=20151204-14:30:00.005|117=S|132=20.39|133=20.39|10=109|"
"8=FIX.4.2|9=64|35=S|55=JUNO|60=20151204-14:30:00.005|117=S|132=42.48|133=42.48|10=111|"
"8=FIX.4.2|9=63|35=S|55=EIX|60=20151204-14:30:00.005|117=S|132=62.06|133=62.06|10=016|"
"8=FIX.4.2|9=64|35=S|55=ALLY|60=20151204-14:30:00.005|117=S|132=21.12|133=21.12|10=077|"
"8=FIX.4.2|9=63|35=S|55=AXP|60=20151204-14:30:00.005|117=S|132=74.04|133=74.04|10=021|"
"8=FIX.4.2|9=61|35=S|55=PRU|60=20151204-14:30:00.005|117=S|132=75.6|133=75.6|10=199|"
"8=FIX.4.2|9=61|35=S|55=RCL|60=20151204-14:30:00.005|117=S|132=88.3|133=88.3|10=179|"
"8=FIX.4.2|9=62|35=S|55=SGYP|60=20151204-14:30:00.005|117=S|132=5.85|133=5.85|10=020|"
"8=FIX.4.2|9=62|35=S|55=ARRY|60=20151204-14:30:00.005|117=S|132=5.67|133=5.67|10=015|"
"8=FIX.4.2|9=63|35=S|55=CPN|60=20151204-14:30:00.005|117=S|132=15.16|133=15.16|10=009|"
"8=FIX.4.2|9=63|35=S|55=HFC|60=20151204-14:30:00.005|117=S|132=48.94|133=48.94|10=017|"
"8=FIX.4.2|9=61|35=S|55=HOG|60=20151204-14:30:00.005|117=S|132=53.7|133=53.7|10=168|"
"8=FIX.4.2|9=63|35=S|55=TAP|60=20151204-14:30:00.005|117=S|132=84.36|133=84.36|10=029|"
"8=FIX.4.2|9=63|35=S|55=MCD|60=20151204-14:30:00.005|117=S|132=97.27|133=97.27|10=020|"
"8=FIX.4.2|9=58|35=S|55=HK|60=20151204-14:30:00.005|117=S|132=1.4|133=1.4|10=239|"
"8=FIX.4.2|9=64|35=S|55=CTSH|60=20151204-14:30:00.005|117=S|132=61.26|133=61.26|10=095|"
"8=FIX.4.2|9=64|35=S|55=CIEN|60=20151204-14:30:00.005|117=S|132=20.69|133=20.69|10=080|"
"8=FIX.4.2|9=62|35=S|55=HP|60=20151204-14:30:00.005|117=S|132=46.86|133=46.86|10=213|"
"8=FIX.4.2|9=61|35=S|55=CIE|60=20151204-14:30:00.005|117=S|132=7.32|133=7.32|10=149|"
"8=FIX.4.2|9=63|35=S|55=UNP|60=20151204-14:30:00.005|117=S|132=86.79|133=86.79|10=061|"
"8=FIX.4.2|9=64|35=S|55=AMBA|60=20151204-14:30:00.005|117=S|132=57.04|133=57.04|10=064|"
"8=FIX.4.2|9=63|35=S|55=MNK|60=20151204-14:30:00.005|117=S|132=65.29|133=65.29|10=032|"
"8=FIX.4.2|9=64|35=S|55=FITB|60=20151204-14:30:00.005|117=S|132=19.03|133=19.03|10=078|"
"8=FIX.4.2|9=64|35=S|55=NKTR|60=20151204-14:30:00.005|117=S|132=11.81|133=11.81|10=100|"
"8=FIX.4.2|9=63|35=S|55=ABC|60=20151204-14:30:00.005|117=S|132=98.42|133=98.42|10=002|"
"8=FIX.4.2|9=63|35=S|55=XPO|60=20151204-14:30:00.005|117=S|132=22.35|133=22.35|10=029|"
"8=FIX.4.2|9=62|35=S|55=EA|60=20151204-14:30:00.005|117=S|132=67.77|133=67.77|10=201|"
"8=FIX.4.2|9=65|35=S|55=IBM|60=20151204-14:30:00.005|117=S|132=143.77|133=143.77|10=116|"
"8=FIX.4.2|9=63|35=S|55=CIM|60=20151204-14:30:00.005|117=S|132=13.67|133=13.67|10=009|"
"8=FIX.4.2|9=63|35=S|55=SYY|60=20151204-14:30:00.005|117=S|132=39.32|133=39.32|10=053|"
"8=FIX.4.2|9=63|35=S|55=CVS|60=20151204-14:30:00.005|117=S|132=97.35|133=97.35|10=042|"
"8=FIX.4.2|9=63|35=S|55=HIG|60=20151204-14:30:00.005|117=S|132=45.22|133=45.22|10=000|"
"8=FIX.4.2|9=63|35=S|55=HBI|60=20151204-14:30:00.005|117=S|132=28.87|133=28.87|10=019|"
"8=FIX.4.2|9=62|35=S|55=QRVO|60=20151204-14:30:00.005|117=S|132=44.9|133=44.9|10=023|"
"8=FIX.4.2|9=62|35=S|55=MA|60=20151204-14:30:00.005|117=S|132=89.88|133=89.88|10=221|"
"8=FIX.4.2|9=64|35=S|55=CI|60=20151204-14:30:00.005|117=S|132=135.73|133=135.73|10=033|"
"8=FIX.4.2|9=64|35=S|55=ACAD|60=20151204-14:30:00.005|117=S|132=33.67|133=33.67|10=062|"
"8=FIX.4.2|9=63|35=S|55=FLS|60=20151204-14:30:00.005|117=S|132=40.56|133=40.56|10=017|"
"8=FIX.4.2|9=61|35=S|55=COH|60=20151204-14:30:00.005|117=S|132=28.7|133=28.7|10=168|"
"8=FIX.4.2|9=57|35=S|55=BRX|60=20151204-14:30:00.005|117=S|132=24|133=24|10=237|"
"8=FIX.4.2|9=63|35=S|55=COH|60=20151204-14:30:00.005|117=S|132=28.07|133=28.07|10=010|"
"8=FIX.4.2|9=63|35=S|55=CFG|60=20151204-14:30:00.005|117=S|132=23.97|133=23.97|10=008|"
"8=FIX.4.2|9=64|35=S|55=CALM|60=20151204-14:30:00.005|117=S|132=52.32|133=52.32|10=068|"
"8=FIX.4.2|9=62|35=S|55=PE|60=20151204-14:30:00.006|117=S|132=14.37|133=14.37|10=193|"
"8=FIX.4.2|9=63|35=S|55=HOG|60=20151204-14:30:00.006|117=S|132=53.14|133=53.14|10=007|"
"8=FIX.4.2|9=64|35=S|55=LH|60=20151204-14:30:00.006|117=S|132=109.06|133=109.06|10=036|"
"8=FIX.4.2|9=66|35=S|55=BIIB|60=20151204-14:30:00.006|117=S|132=275.58|133=275.58|10=190|"
"8=FIX.4.2|9=61|35=S|55=MFA|60=20151204-14:30:00.006|117=S|132=6.99|133=6.99|10=177|"
"8=FIX.4.2|9=63|35=S|55=MNK|60=20151204-14:30:00.006|117=S|132=64.63|133=64.63|10=027|"
"8=FIX.4.2|9=62|35=S|55=LC|60=20151204-14:30:00.006|117=S|132=13.94|133=13.94|10=191|"
"8=FIX.4.2|9=64|35=S|55=ALLY|60=20151204-14:30:00.006|117=S|132=20.76|133=20.76|10=096|"
"8=FIX.4.2|9=64|35=S|55=SWKS|60=20151204-14:30:00.006|117=S|132=85.12|133=85.12|10=120|"
"8=FIX.4.2|9=62|35=S|55=GSAT|60=20151204-14:30:00.006|117=S|132=2.48|133=2.48|10=249|"
"8=FIX.4.2|9=62|35=S|55=WU|60=20151204-14:30:00.006|117=S|132=18.18|133=18.18|10=222|"
"8=FIX.4.2|9=63|35=S|55=UNP|60=20151204-14:30:00.006|117=S|132=86.47|133=86.47|10=052|"
"8=FIX.4.2|9=62|35=S|55=ANTH|60=20151204-14:30:00.006|117=S|132=7.42|133=7.42|10=243|"
"8=FIX.4.2|9=64|35=S|55=IMGN|60=20151204-14:30:00.006|117=S|132=10.76|133=10.76|10=087|"
"8=FIX.4.2|9=62|35=S|55=GT|60=20151204-14:30:00.006|117=S|132=29.07|133=29.07|10=205|"
"8=FIX.4.2|9=61|35=S|55=QEP|60=20151204-14:30:00.006|117=S|132=12.4|133=12.4|10=161|"
"8=FIX.4.2|9=64|35=S|55=SWFT|60=20151204-14:30:00.006|117=S|132=15.78|133=15.78|10=126|"
"8=FIX.4.2|9=61|35=S|55=SVU|60=20151204-14:30:00.006|117=S|132=7.45|133=7.45|10=203|"
"8=FIX.4.2|9=63|35=S|55=AIG|60=20151204-14:30:00.006|117=S|132=56.91|133=56.91|10=010|"
"8=FIX.4.2|9=63|35=S|55=NWL|60=20151204-14:30:00.006|117=S|132=40.48|133=40.48|10=032|"
"8=FIX.4.2|9=62|35=S|55=BDSI|60=20151204-14:30:00.006|117=S|132=5.79|133=5.79|10=250|"
"8=FIX.4.2|9=63|35=S|55=HRB|60=20151204-14:30:00.006|117=S|132=36.55|133=36.55|10=017|"
"8=FIX.4.2|9=64|35=S|55=BBBY|60=20151204-14:30:00.006|117=S|132=58.71|133=58.71|10=089|"
"8=FIX.4.2|9=63|35=S|55=DDD|60=20151204-14:30:00.006|117=S|132=12.88|133=12.88|10=001|"
"8=FIX.4.2|9=64|35=S|55=MYGN|60=20151204-14:30:00.006|117=S|132=38.48|133=38.48|10=121|"
"8=FIX.4.2|9=61|35=S|55=EPE|60=20151204-14:30:00.006|117=S|132=5.24|133=5.24|10=157|"
"8=FIX.4.2|9=63|35=S|55=JOY|60=20151204-14:30:00.006|117=S|132=15.74|133=15.74|10=035|"
"8=FIX.4.2|9=62|35=S|55=KR|60=20151204-14:30:00.006|117=S|132=36.27|133=36.27|10=207|"
"8=FIX.4.2|9=64|35=S|55=DXCM|60=20151204-14:30:00.006|117=S|132=86.87|133=86.87|10=118|"
"8=FIX.4.2|9=63|35=S|55=PLD|60=20151204-14:30:00.006|117=S|132=38.11|133=38.11|10=009|"
"8=FIX.4.2|9=64|35=S|55=NTAP|60=20151204-14:30:00.006|117=S|132=29.56|133=29.56|10=111|"
"8=FIX.4.2|9=62|35=S|55=MYGN|60=20151204-14:30:00.006|117=S|132=37.6|133=37.6|10=009|"
"8=FIX.4.2|9=63|35=S|55=COH|60=20151204-14:30:00.006|117=S|132=28.73|133=28.73|10=017|"
"8=FIX.4.2|9=61|35=S|55=WEN|60=20151204-14:30:00.006|117=S|132=9.61|133=9.61|10=183|"
"8=FIX.4.2|9=63|35=S|55=UTX|60=20151204-14:30:00.006|117=S|132=87.49|133=87.49|10=072|"
"8=FIX.4.2|9=64|35=S|55=STWD|60=20151204-14:30:00.006|117=S|132=20.33|133=20.33|10=098|"
"8=FIX.4.2|9=63|35=S|55=DHR|60=20151204-14:30:00.006|117=S|132=84.26|133=84.26|10=021|"
"8=FIX.4.2|9=63|35=S|55=BMR|60=20151204-14:30:00.006|117=S|132=20.99|133=20.99|10=024|"
"8=FIX.4.2|9=62|35=S|55=FCEL|60=20151204-14:30:00.006|117=S|132=1.13|133=1.13|10=210|"
"8=FIX.4.2|9=62|35=S|55=ARNA|60=20151204-14:30:00.006|117=S|132=2.99|133=2.99|10=248|"
"8=FIX.4.2|9=62|35=S|55=PETX|60=20151204-14:30:00.006|117=S|132=8.72|133=8.72|10=017|"
"8=FIX.4.2|9=66|35=S|55=ILMN|60=20151204-14:30:00.006|117=S|132=167.85|133=167.85|10=216|"
"8=FIX.4.2|9=65|35=S|55=UNH|60=20151204-14:30:00.006|117=S|132=114.19|133=114.19|10=124|"
"8=FIX.4.2|9=63|35=S|55=HBI|60=20151204-14:30:00.006|117=S|132=29.62|133=29.62|10=008|"
"8=FIX.4.2|9=64|35=S|55=SCTY|60=20151204-14:30:00.006|117=S|132=41.28|133=41.28|10=113|"
"8=FIX.4.2|9=64|35=S|55=TMUS|60=20151204-14:30:00.006|117=S|132=41.64|133=41.64|10=119|"
"8=FIX.4.2|9=64|35=S|55=FITB|60=20151204-14:30:00.006|117=S|132=19.72|133=19.72|10=091|"
"8=FIX.4.2|9=61|35=S|55=WEN|60=20151204-14:30:00.006|117=S|132=8.85|133=8.85|10=193|"
"8=FIX.4.2|9=65|35=S|55=MMM|60=20151204-14:30:00.006|117=S|132=140.09|133=140.09|10=116|"
"8=FIX.4.2|9=62|35=S|55=XOMA|60=20151204-14:30:00.006|117=S|132=1.43|133=1.43|10=243|"
"8=FIX.4.2|9=62|35=S|55=TROW|60=20151204-14:30:00.007|117=S|132=68.9|133=68.9|10=041|"
"8=FIX.4.2|9=65|35=S|55=DISCA|60=20151204-14:30:00.007|117=S|132=28.81|133=28.81|10=156|"
"8=FIX.4.2|9=64|35=S|55=ADXS|60=20151204-14:30:00.007|117=S|132=13.35|133=13.35|10=089|"
"8=FIX.4.2|9=62|35=S|55=BDSI|60=20151204-14:30:00.007|117=S|132=5.79|133=5.79|10=251|"
"8=FIX.4.2|9=63|35=S|55=KND|60=20151204-14:30:00.007|117=S|132=17.17|133=17.17|10=013|"
"8=FIX.4.2|9=63|35=S|55=ALL|60=20151204-14:30:00.007|117=S|132=58.95|133=58.95|10=031|"
"8=FIX.4.2|9=60|35=S|55=MM|60=20151204-14:30:00.007|117=S|132=2.56|133=2.56|10=097|"
"8=FIX.4.2|9=67|35=S|55=GOOGL|60=20151204-14:30:00.007|117=S|132=628.77|133=628.77|10=040|"
"8=FIX.4.2|9=63|35=S|55=PAH|60=20151204-14:30:00.007|117=S|132=13.36|133=13.36|10=003|"
"8=FIX.4.2|9=63|35=S|55=NRZ|60=20151204-14:30:00.007|117=S|132=13.94|133=13.94|10=044|"
"8=FIX.4.2|9=62|35=S|55=TTPH|60=20151204-14:30:00.007|117=S|132=8.19|133=8.19|10=019|"
"8=FIX.4.2|9=63|35=S|55=MPW|60=20151204-14:30:00.007|117=S|132=11.73|133=11.73|10=028|"
"8=FIX.4.2|9=63|35=S|55=BMR|60=20151204-14:30:00.007|117=S|132=20.99|133=20.99|10=025|"
"8=FIX.4.2|9=64|35=S|55=BRCM|60=20151204-14:30:00.007|117=S|132=52.37|133=52.37|10=087|"
"8=FIX.4.2|9=63|35=S|55=PPL|60=20151204-14:30:00.007|117=S|132=32.37|133=32.37|10=026|"
"8=FIX.4.2|9=63|35=S|55=JOY|60=20151204-14:30:00.007|117=S|132=14.83|133=14.83|10=034|"
"8=FIX.4.2|9=63|35=S|55=GIS|60=20151204-14:30:00.007|117=S|132=56.44|133=56.44|10=025|"
"8=FIX.4.2|9=63|35=S|55=CNC|60=20151204-14:30:00.007|117=S|132=54.98|133=54.98|10=024|"
"8=FIX.4.2|9=64|35=S|55=MYGN|60=20151204-14:30:00.007|117=S|132=37.78|133=37.78|10=126|"
"8=FIX.4.2|9=66|35=S|55=AVGO|60=20151204-14:30:00.007|117=S|132=124.16|133=124.16|10=188|"
"8=FIX.4.2|9=61|35=S|55=GNW|60=20151204-14:30:00.007|117=S|132=4.99|133=4.99|10=198|"
"8=FIX.4.2|9=64|35=S|55=JNPR|60=20151204-14:30:00.007|117=S|132=25.59|133=25.59|10=117|"
"8=FIX.4.2|9=64|35=S|55=MDCO|60=20151204-14:30:00.007|117=S|132=39.34|133=39.34|10=090|"
"8=FIX.4.2|9=63|35=S|55=MET|60=20151204-14:30:00.007|117=S|132=46.52|133=46.52|10=024|"
"8=FIX.4.2|9=56|35=S|55=ACHN|60=20151204-14:30:00.007|117=S|132=8|133=8|10=192|"
"8=FIX.4.2|9=67|35=S|55=GOOGL|60=20151204-14:30:00.007|117=S|132=628.86|133=628.86|10=040|"
"8=FIX.4.2|9=61|35=S|55=CRM|60=20151204-14:30:00.007|117=S|132=72.6|133=72.6|10=174|"
"8=FIX.4.2|9=63|35=S|55=CVS|60=20151204-14:30:00.007|117=S|132=97.13|133=97.13|10=036|"
"8=FIX.4.2|9=62|35=S|55=GALE|60=20151204-14:30:00.007|117=S|132=2.34|133=2.34|10=218|"
"8=FIX.4.2|9=63|35=S|55=NWL|60=20151204-14:30:00.007|117=S|132=40.56|133=40.56|10=031|"
"8=FIX.4.2|9=64|35=S|55=NKTR|60=20151204-14:30:00.007|117=S|132=12.27|133=12.27|10=104|"
"8=FIX.4.2|9=64|35=S|55=GDDY|60=20151204-14:30:00.007|117=S|132=24.61|133=24.61|10=083|"
"8=FIX.4.2|9=63|35=S|55=LVS|60=20151204-14:30:00.007|117=S|132=40.57|133=40.57|10=037|"
"8=FIX.4.2|9=63|35=S|55=WDC|60=20151204-14:30:00.007|117=S|132=69.36|133=69.36|10=030|"
"8=FIX.4.2|9=61|35=S|55=TWO|60=20151204-14:30:00.007|117=S|132=9.06|133=9.06|10=198|"
"8=FIX.4.2|9=64|35=S|55=ACAD|60=20151204-14:30:00.007|117=S|132=34.36|133=34.36|10=058|"
"8=FIX.4.2|9=63|35=S|55=BEE|60=20151204-14:30:00.007|117=S|132=14.36|133=14.36|10=248|"
"8=FIX.4.2|9=63|35=S|55=BMR|60=20151204-14:30:00.007|117=S|132=21.07|133=21.07|10=005|"
"8=FIX.4.2|9=64|35=S|55=GLNG|60=20151204-14:30:00.007|117=S|132=27.45|133=27.45|10=093|"
"8=FIX.4.2|9=62|35=S|55=GLOG|60=20151204-14:30:00.007|117=S|132=9.46|133=9.46|10=254|"
"8=FIX.4.2|9=62|35=S|55=THRX|60=20151204-14:30:00.007|117=S|132=7.92|133=7.92|10=025|"
"8=FIX.4.2|9=64|35=S|55=CRUS|60=20151204-14:30:00.007|117=S|132=31.45|133=31.45|10=104|"
"8=FIX.4.2|9=61|35=S|55=TWO|60=20151204-14:30:00.007|117=S|132=9.82|133=9.82|10=206|"
"8=FIX.4.2|9=62|35=S|55=KN|60=20151204-14:30:00.007|117=S|132=18.04|133=18.04|10=194|"
"8=FIX.4.2|9=61|35=S|55=NUE|60=20151204-14:30:00.007|117=S|132=37.4|133=37.4|10=178|"
"8=FIX.4.2|9=63|35=S|55=ACE|60=20151204-14:30:00.007|117=S|132=102.3|133=102.3|10=229|"
"8=FIX.4.2|9=58|35=S|55=SWKS|60=20151204-14:30:00.007|117=S|132=85|133=85|10=090|"
"8=FIX.4.2|9=63|35=S|55=ESV|60=20151204-14:30:00.007|117=S|132=14.51|133=14.51|10=020|"
"8=FIX.4.2|9=63|35=S|55=CNP|60=20151204-14:30:00.007|117=S|132=17.94|133=17.94|10=027|"
"8=FIX.4.2|9=63|35=S|55=WBA|60=20151204-14:30:00.007|117=S|132=83.92|133=83.92|10=022|"
"8=FIX.4.2|9=63|35=S|55=OXY|60=20151204-14:30:00.008|117=S|132=65.36|133=65.36|10=057|"
"8=FIX.4.2|9=63|35=S|55=CPN|60=20151204-14:30:00.008|117=S|132=14.62|133=14.62|10=012|"
"8=FIX.4.2|9=64|35=S|55=LLTC|60=20151204-14:30:00.008|117=S|132=39.63|133=39.63|10=107|"
"8=FIX.4.2|9=63|35=S|55=JNS|60=20151204-14:30:00.008|117=S|132=14.18|133=14.18|10=024|"
"8=FIX.4.2|9=63|35=S|55=TGT|60=20151204-14:30:00.008|117=S|132=78.06|133=78.06|10=042|"
"8=FIX.4.2|9=63|35=S|55=MAR|60=20151204-14:30:00.008|117=S|132=66.57|133=66.57|10=033|"
"8=FIX.4.2|9=62|35=S|55=DO|60=20151204-14:30:00.008|117=S|132=17.92|133=17.92|10=201|"
"8=FIX.4.2|9=63|35=S|55=AEP|60=20151204-14:30:00.008|117=S|132=56.48|133=56.48|10=021|"
"8=FIX.4.2|9=63|35=S|55=CYH|60=20151204-14:30:00.008|117=S|132=42.27|133=42.27|10=019|"
"8=FIX.4.2|9=63|35=S|55=SYK|60=20151204-14:30:00.008|117=S|132=93.35|133=93.35|10=048|"
"8=FIX.4.2|9=64|35=S|55=INCY|60=20151204-14:30:00.008|117=S|132=98.42|133=98.42|10=115|"
"8=FIX.4.2|9=61|35=S|55=GCA|60=20151204-14:30:00.008|117=S|132=5.62|133=5.62|10=148|"
"8=FIX.4.2|9=64|35=S|55=PCAR|60=20151204-14:30:00.008|117=S|132=53.09|133=53.09|10=090|"
"8=FIX.4.2|9=63|35=S|55=PLD|60=20151204-14:30:00.008|117=S|132=38.53|133=38.53|10=023|"
"8=FIX.4.2|9=63|35=S|55=LYB|60=20151204-14:30:00.008|117=S|132=81.03|133=81.03|10=016|"
"8=FIX.4.2|9=64|35=S|55=HOLX|60=20151204-14:30:00.008|117=S|132=39.55|133=39.55|10=121|"
"8=FIX.4.2|9=63|35=S|55=VLO|60=20151204-14:30:00.008|117=S|132=59.91|133=59.91|10=050|"
"8=FIX.4.2|9=64|35=S|55=TMUS|60=20151204-14:30:00.008|117=S|132=41.87|133=41.87|10=131|"
"8=FIX.4.2|9=63|35=S|55=XON|60=20151204-14:30:00.008|117=S|132=34.43|133=34.43|10=034|"
"8=FIX.4.2|9=64|35=S|55=WYNN|60=20151204-14:30:00.008|117=S|132=56.13|133=56.13|10=124|"
"8=FIX.4.2|9=64|35=S|55=GNTX|60=20151204-14:30:00.008|117=S|132=15.36|133=15.36|10=113|"
"8=FIX.4.2|9=62|35=S|55=FE|60=20151204-14:30:00.008|117=S|132=31.65|133=31.65|10=185|"
"8=FIX.4.2|9=63|35=S|55=FLS|60=20151204-14:30:00.008|117=S|132=39.99|133=39.99|10=050|"
"8=FIX.4.2|9=64|35=S|55=SNDK|60=20151204-14:30:00.008|117=S|132=49.46|133=49.46|10=112|"
"8=FIX.4.2|9=63|35=S|55=HDS|60=20151204-14:30:00.008|117=S|132=29.86|133=29.86|10=034|"
"8=FIX.4.2|9=63|35=S|55=PEG|60=20151204-14:30:00.008|117=S|132=41.28|133=41.28|10=011|"
"8=FIX.4.2|9=63|35=S|55=ESV|60=20151204-14:30:00.008|117=S|132=14.21|133=14.21|10=015|"
"8=FIX.4.2|9=64|35=S|55=SYMC|60=20151204-14:30:00.008|117=S|132=20.75|133=20.75|10=106|"
"8=FIX.4.2|9=62|35=S|55=BK|60=20151204-14:30:00.008|117=S|132=39.47|133=39.47|10=203|"
"8=FIX.4.2|9=63|35=S|55=PSX|60=20151204-14:30:00.008|117=S|132=76.39|133=76.39|10=062|"
"8=FIX.4.2|9=61|35=S|55=AES|60=20151204-14:30:00.008|117=S|132=10.5|133=10.5|10=148|"
"8=FIX.4.2|9=62|35=S|55=PETX|60=20151204-14:30:00.008|117=S|132=8.81|133=8.81|10=019|"
"8=FIX.4.2|9=63|35=S|55=NOV|60=20151204-14:30:00.008|117=S|132=37.61|133=37.61|10=038|"
"8=FIX.4.2|9=63|35=S|55=UNP|60=20151204-14:30:00.008|117=S|132=86.95|133=86.95|10=060|"
"8=FIX.4.2|9=63|35=S|55=WBA|60=20151204-14:30:00.008|117=S|132=83.92|133=83.92|10=023|"
"8=FIX.4.2|9=61|35=S|55=TRN|60=20151204-14:30:00.008|117=S|132=24.1|133=24.1|10=177|"
"8=FIX.4.2|9=62|35=S|55=PM|60=20151204-14:30:00.008|117=S|132=79.97|133=79.97|10=237|"
"8=FIX.4.2|9=61|35=S|55=MBI|60=20151204-14:30:00.008|117=S|132=6.65|133=6.65|10=169|"
"8=FIX.4.2|9=64|35=S|55=PCRX|60=20151204-14:30:00.008|117=S|132=43.05|133=43.05|10=103|"
"8=FIX.4.2|9=60|35=S|55=PDLI|60=20151204-14:30:00.008|117=S|132=5.3|133=5.3|10=135|"
"8=FIX.4.2|9=67|35=S|55=BRK.B|60=20151204-14:30:00.008|117=S|132=128.72|133=128.72|10=236|"
"8=FIX.4.2|9=63|35=S|55=ADM|60=20151204-14:30:00.008|117=S|132=42.25|133=42.25|10=253|"
"8=FIX.4.2|9=62|35=S|55=FCEL|60=20151204-14:30:00.008|117=S|132=1.56|133=1.56|10=226|"
"8=FIX.4.2|9=65|35=S|55=TWC|60=20151204-14:30:00.008|117=S|132=180.57|133=180.57|10=139|"
"8=FIX.4.2|9=63|35=S|55=CBS|60=20151204-14:30:00.008|117=S|132=40.11|133=40.11|10=245|"
"8=FIX.4.2|9=65|35=S|55=MCK|60=20151204-14:30:00.008|117=S|132=187.87|133=187.87|10=140|"
"8=FIX.4.2|9=64|35=S|55=LLTC|60=20151204-14:30:00.008|117=S|132=39.17|133=39.17|10=105|"
"8=FIX.4.2|9=61|35=S|55=DHI|60=20151204-14:30:00.008|117=S|132=29.9|133=29.9|10=172|"
"8=FIX.4.2|9=63|35=S|55=PEG|60=20151204-14:30:00.008|117=S|132=40.83|133=40.83|10=011|"
"8=FIX.4.2|9=62|35=S|55=EPZM|60=20151204-14:30:00.008|117=S|132=14.9|133=14.9|10=008|"
"8=FIX.4.2|9=64|35=S|55=MDRX|60=20151204-14:30:00.009|117=S|132=13.07|133=13.07|10=100|"
"8=FIX.4.2|9=64|35=S|55=ETFC|60=20151204-14:30:00.009|117=S|132=26.02|133=26.02|10=073|"
"8=FIX.4.2|9=57|35=S|55=UNP|60=20151204-14:30:00.009|117=S|132=87|133=87|10=010|"
"8=FIX.4.2|9=63|35=S|55=CMO|60=20151204-14:30:00.009|117=S|132=10.21|133=10.21|10=249|"
"8=FIX.4.2|9=60|35=S|55=GLOG|60=20151204-14:30:00.009|117=S|132=9.8|133=9.8|10=154|"
"8=FIX.4.2|9=61|35=S|55=BBT|60=20151204-14:30:00.009|117=S|132=35.7|133=35.7|10=166|"
"8=FIX.4.2|9=62|35=S|55=CLDX|60=20151204-14:30:00.009|117=S|132=11.4|133=11.4|10=232|"
"8=FIX.4.2|9=60|35=S|55=PETX|60=20151204-14:30:00.009|117=S|132=8.9|133=8.9|10=178|"
"8=FIX.4.2|9=63|35=S|55=JNS|60=20151204-14:30:00.009|117=S|132=14.09|133=14.09|10=025|"
"8=FIX.4.2|9=64|35=S|55=ALNY|60=20151204-14:30:00.009|117=S|132=78.99|133=78.99|10=137|"
"8=FIX.4.2|9=64|35=S|55=ZION|60=20151204-14:30:00.009|117=S|132=28.04|133=28.04|10=111|"
"8=FIX.4.2|9=63|35=S|55=BMR|60=20151204-14:30:00.009|117=S|132=20.69|133=20.69|10=021|"
"8=FIX.4.2|9=63|35=S|55=EIX|60=20151204-14:30:00.009|117=S|132=62.53|133=62.53|10=024|"
"8=FIX.4.2|9=62|35=S|55=BCEI|60=20151204-14:30:00.009|117=S|132=4.88|133=4.88|10=236|"
"8=FIX.4.2|9=62|35=S|55=CTIC|60=20151204-14:30:00.009|117=S|132=2.43|133=2.43|10=230|"
"8=FIX.4.2|9=63|35=S|55=BMR|60=20151204-14:30:00.009|117=S|132=20.47|133=20.47|10=013|"
"8=FIX.4.2|9=63|35=S|55=PGR|60=20151204-14:30:00.009|117=S|132=30.95|133=30.95|10=029|"
"8=FIX.4.2|9=63|35=S|55=LNG|60=20151204-14:30:00.009|117=S|132=48.15|133=48.15|10=023|"
"8=FIX.4.2|9=62|35=S|55=NYMT|60=20151204-14:30:00.009|117=S|132=6.62|133=6.62|10=021|"
"8=FIX.4.2|9=63|35=S|55=GSM|60=20151204-14:30:00.009|117=S|132=12.49|133=12.49|10=025|"
"8=FIX.4.2|9=63|35=S|55=PSX|60=20151204-14:30:00.009|117=S|132=76.53|133=76.53|10=055|"
"8=FIX.4.2|9=63|35=S|55=RRC|60=20151204-14:30:00.009|117=S|132=34.47|133=34.47|10=029|"
"8=FIX.4.2|9=63|35=S|55=XON|60=20151204-14:30:00.009|117=S|132=34.14|133=34.14|10=031|"
"8=FIX.4.2|9=64|35=S|55=PCAR|60=20151204-14:30:00.009|117=S|132=52.89|133=52.89|10=105|"
"8=FIX.4.2|9=64|35=S|55=PCAR|60=20151204-14:30:00.009|117=S|132=52.68|133=52.68|10=099|"
"8=FIX.4.2|9=64|35=S|55=ESRX|60=20151204-14:30:00.009|117=S|132=80.04|133=80.04|10=109|"
"8=FIX.4.2|9=65|35=S|55=ACE|60=20151204-14:30:00.009|117=S|132=101.95|133=101.95|10=093|"
"8=FIX.4.2|9=59|35=S|55=CIE|60=20151204-14:30:00.009|117=S|132=7.9|133=7.9|10=072|"
"8=FIX.4.2|9=64|35=S|55=TROW|60=20151204-14:30:00.009|117=S|132=68.99|133=68.99|10=159|"
"8=FIX.4.2|9=63|35=S|55=CAR|60=20151204-14:30:00.009|117=S|132=43.98|133=43.98|10=024|"
"8=FIX.4.2|9=66|35=S|55=BMRN|60=20151204-14:30:00.009|117=S|132=101.24|133=101.24|10=180|"
"8=FIX.4.2|9=64|35=S|55=AXTA|60=20151204-14:30:00.009|117=S|132=25.95|133=25.95|10=107|"
"8=FIX.4.2|9=62|35=S|55=AR|60=20151204-14:30:00.009|117=S|132=21.07|133=21.07|10=184|"
"8=FIX.4.2|9=65|35=S|55=SKX|60=20151204-14:30:00.009|117=S|132=132.25|133=132.25|10=132|"
"8=FIX.4.2|9=63|35=S|55=NFX|60=20151204-14:30:00.009|117=S|132=33.09|133=33.09|10=028|"
"8=FIX.4.2|9=62|35=S|55=HCBK|60=20151204-14:30:00.009|117=S|132=9.69|133=9.69|10=249|"
"8=FIX.4.2|9=63|35=S|55=NEM|60=20151204-14:30:00.009|117=S|132=17.09|133=17.09|10=020|"
"8=FIX.4.2|9=63|35=S|55=NBL|60=20151204-14:30:00.009|117=S|132=30.85|133=30.85|10=014|"
"8=FIX.4.2|9=66|35=S|55=EXPE|60=20151204-14:30:00.009|117=S|132=119.15|133=119.15|10=201|"
"8=FIX.4.2|9=64|35=S|55=LLTC|60=20151204-14:30:00.009|117=S|132=39.04|133=39.04|10=098|"
"8=FIX.4.2|9=63|35=S|55=BEE|60=20151204-14:30:00.009|117=S|132=14.18|133=14.18|10=250|"
"8=FIX.4.2|9=59|35=S|55=AMD|60=20151204-14:30:00.009|117=S|132=1.9|133=1.9|10=061|"
"8=FIX.4.2|9=63|35=S|55=HBI|60=20151204-14:30:00.009|117=S|132=29.58|133=29.58|10=021|"
"8=FIX.4.2|9=63|35=S|55=XEL|60=20151204-14:30:00.009|117=S|132=35.12|133=35.12|10=017|"
"8=FIX.4.2|9=64|35=S|55=IMGN|60=20151204-14:30:00.009|117=S|132=10.35|133=10.35|10=080|"
"8=FIX.4.2|9=64|35=S|55=ITCI|60=20151204-14:30:00.009|117=S|132=39.23|133=39.23|10=094|"
"8=FIX.4.2|9=63|35=S|55=AXP|60=20151204-14:30:00.009|117=S|132=74.89|133=74.89|10=051|"
"8=FIX.4.2|9=65|35=S|55=CMCSK|60=20151204-14:30:00.009|117=S|132=56.38|133=56.38|10=177|"
"8=FIX.4.2|9=64|35=S|55=EW|60=20151204-14:30:00.009|117=S|132=136.56|133=136.56|10=057|"
"8=FIX.4.2|9=62|35=S|55=GERN|60=20151204-14:30:00.009|117=S|132=3.88|133=3.88|10=003|"
"8=FIX.4.2|9=64|35=S|55=EVHC|60=20151204-14:30:00.010|117=S|132=38.02|133=38.02|10=075|"
"8=FIX.4.2|9=66|35=S|55=ILMN|60=20151204-14:30:00.010|117=S|132=168.55|133=168.55|10=207|"
"8=FIX.4.2|9=60|35=S|55=GERN|60=20151204-14:30:00.010|117=S|132=3.2|133=3.2|10=125|"
"8=FIX.4.2|9=63|35=S|55=CTL|60=20151204-14:30:00.010|117=S|132=25.03|133=25.03|10=001|"
"8=FIX.4.2|9=63|35=S|55=MOS|60=20151204-14:30:00.010|117=S|132=32.12|133=32.12|10=009|"
"8=FIX.4.2|9=62|35=S|55=SYMC|60=20151204-14:30:00.010|117=S|132=20.6|133=20.6|10=245|"
"8=FIX.4.2|9=64|35=S|55=TSRO|60=20151204-14:30:00.010|117=S|132=45.72|133=45.72|10=119|"
"8=FIX.4.2|9=63|35=S|55=XON|60=20151204-14:30:00.010|117=S|132=34.81|133=34.81|10=031|"
"8=FIX.4.2|9=63|35=S|55=CBI|60=20151204-14:30:00.010|117=S|132=38.21|133=38.21|10=244|"
"8=FIX.4.2|9=64|35=S|55=FNFG|60=20151204-14:30:00.010|117=S|132=10.25|133=10.25|10=060|"
"8=FIX.4.2|9=61|35=S|55=CVS|60=20151204-14:30:00.010|117=S|132=97.2|133=97.2|10=184|"
"8=FIX.4.2|9=63|35=S|55=UTX|60=20151204-14:30:00.010|117=S|132=87.65|133=87.65|10=063|"
"8=FIX.4.2|9=63|35=S|55=NFX|60=20151204-14:30:00.010|117=S|132=33.41|133=33.41|10=012|"
"8=FIX.4.2|9=64|35=S|55=SWFT|60=20151204-14:30:00.010|117=S|132=16.15|133=16.15|10=105|"
"8=FIX.4.2|9=64|35=S|55=EPZM|60=20151204-14:30:00.010|117=S|132=14.81|133=14.81|10=099|"
"8=FIX.4.2|9=60|35=S|55=DO|60=20151204-14:30:00.010|117=S|132=18.5|133=18.5|10=086|"
"8=FIX.4.2|9=62|35=S|55=OREX|60=20151204-14:30:00.010|117=S|132=2.32|133=2.32|10=245|"
"8=FIX.4.2|9=65|35=S|55=ACE|60=20151204-14:30:00.010|117=S|132=101.96|133=101.96|10=087|"
"8=FIX.4.2|9=63|35=S|55=CLR|60=20151204-14:30:00.010|117=S|132=29.88|133=29.88|10=033|"
"8=FIX.4.2|9=60|35=S|55=SN|60=20151204-14:30:00.010|117=S|132=6.14|133=6.14|10=094|"
"8=FIX.4.2|9=63|35=S|55=CBS|60=20151204-14:30:00.010|117=S|132=40.52|133=40.52|10=248|"
"8=FIX.4.2|9=63|35=S|55=NUE|60=20151204-14:30:00.010|117=S|132=37.78|133=37.78|10=036|"
"8=FIX.4.2|9=63|35=S|55=DAL|60=20151204-14:30:00.010|117=S|132=45.61|133=45.61|10=251|"
"8=FIX.4.2|9=63|35=S|55=EIX|60=20151204-14:30:00.010|117=S|132=61.93|133=61.93|10=022|"
"8=FIX.4.2|9=63|35=S|55=JOY|60=20151204-14:30:00.010|117=S|132=14.83|133=14.83|10=028|"
"8=FIX.4.2|9=63|35=S|55=AEP|60=20151204-14:30:00.010|117=S|132=56.33|133=56.33|10=002|"
"8=FIX.4.2|9=63|35=S|55=KND|60=20151204-14:30:00.010|117=S|132=17.12|133=17.12|10=253|"
"8=FIX.4.2|9=63|35=S|55=AIG|60=20151204-14:30:00.010|117=S|132=57.26|133=57.26|10=003|"
"8=FIX.4.2|9=62|35=S|55=IDRA|60=20151204-14:30:00.010|117=S|132=4.41|133=4.41|10=219|"
"8=FIX.4.2|9=63|35=S|55=HBI|60=20151204-14:30:00.010|117=S|132=29.69|133=29.69|10=017|"
"8=FIX.4.2|9=61|35=S|55=AMD|60=20151204-14:30:00.010|117=S|132=1.71|133=1.71|10=140|"
"8=FIX.4.2|9=63|35=S|55=COG|60=20151204-14:30:00.010|117=S|132=24.14|133=24.14|10=249|"
"8=FIX.4.2|9=63|35=S|55=MCD|60=20151204-14:30:00.010|117=S|132=97.49|133=97.49|10=024|"
"8=FIX.4.2|9=63|35=S|55=MAR|60=20151204-14:30:00.010|117=S|132=66.96|133=66.96|10=032|"
"8=FIX.4.2|9=65|35=S|55=IBM|60=20151204-14:30:00.010|117=S|132=144.21|133=144.21|10=092|"
"8=FIX.4.2|9=66|35=S|55=GOOG|60=20151204-14:30:00.010|117=S|132=600.65|133=600.65|10=187|"
"8=FIX.4.2|9=65|35=S|55=AET|60=20151204-14:30:00.010|117=S|132=108.72|133=108.72|10=106|"
"8=FIX.4.2|9=62|35=S|55=FNFG|60=20151204-14:30:00.010|117=S|132=10.7|133=10.7|10=218|"
"8=FIX.4.2|9=64|35=S|55=AXTA|60=20151204-14:30:00.010|117=S|132=25.11|133=25.11|10=075|"
"8=FIX.4.2|9=64|35=S|55=HCBK|60=20151204-14:30:00.010|117=S|132=10.34|133=10.34|10=051|"
"8=FIX.4.2|9=64|35=S|55=NKTR|60=20151204-14:30:00.010|117=S|132=11.74|133=11.74|10=100|"
"8=FIX.4.2|9=62|35=S|55=DG|60=20151204-14:30:00.010|117=S|132=71.65|133=71.65|10=186|"
"8=FIX.4.2|9=62|35=S|55=GT|60=20151204-14:30:00.010|117=S|132=29.19|133=29.19|10=206|"
"8=FIX.4.2|9=63|35=S|55=TGT|60=20151204-14:30:00.010|117=S|132=78.71|133=78.71|10=039|"
"8=FIX.4.2|9=63|35=S|55=JBL|60=20151204-14:30:00.010|117=S|132=21.97|133=21.97|10=008|"
"8=FIX.4.2|9=63|35=S|55=HDS|60=20151204-14:30:00.010|117=S|132=30.15|133=30.15|10=251|"
"8=FIX.4.2|9=63|35=S|55=MCD|60=20151204-14:30:00.010|117=S|132=98.01|133=98.01|10=002|"
"8=FIX.4.2|9=64|35=S|55=DXCM|60=20151204-14:30:00.010|117=S|132=87.37|133=87.37|10=105|"
"8=FIX.4.2|9=63|35=S|55=MAR|60=20151204-14:30:00.010|117=S|132=67.33|133=67.33|10=016|"
"8=FIX.4.2|9=64|35=S|55=PCAR|60=20151204-14:30:00.010|117=S|132=52.45|133=52.45|10=081|"
"8=FIX.4.2|9=63|35=S|55=QEP|60=20151204-14:30:00.011|117=S|132=12.72|133=12.72|10=009|"
"8=FIX.4.2|9=64|35=S|55=BURL|60=20151204-14:30:00.011|117=S|132=48.55|133=48.55|10=109|"
"8=FIX.4.2|9=59|35=S|55=SKX|60=20151204-14:30:00.011|117=S|132=132|133=132|10=086|"
"8=FIX.4.2|9=63|35=S|55=GIS|60=20151204-14:30:00.011|117=S|132=56.25|133=56.25|10=018|"
"8=FIX.4.2|9=62|35=S|55=MRVL|60=20151204-14:30:00.011|117=S|132=9.58|133=9.58|10=023|"
"8=FIX.4.2|9=63|35=S|55=TAP|60=20151204-14:30:00.011|117=S|132=85.09|133=85.09|10=028|"
"8=FIX.4.2|9=63|35=S|55=TGT|60=20151204-14:30:00.011|117=S|132=78.64|133=78.64|10=044|"
"8=FIX.4.2|9=60|35=S|55=HK|60=20151204-14:30:00.011|117=S|132=0.85|133=0.85|10=085|"
"8=FIX.4.2|9=63|35=S|55=RRC|60=20151204-14:30:00.011|117=S|132=34.91|133=34.91|10=020|"
"8=FIX.4.2|9=61|35=S|55=FHN|60=20151204-14:30:00.011|117=S|132=14.2|133=14.2|10=147|"
"8=FIX.4.2|9=61|35=S|55=AMD|60=20151204-14:30:00.011|117=S|132=1.71|133=1.71|10=141|"
"8=FIX.4.2|9=63|35=S|55=VLO|60=20151204-14:30:00.011|117=S|132=59.65|133=59.65|10=046|"
"8=FIX.4.2|9=62|35=S|55=SGYP|60=20151204-14:30:00.011|117=S|132=6.18|133=6.18|10=011|"
"8=FIX.4.2|9=64|35=S|55=BRCM|60=20151204-14:30:00.011|117=S|132=51.85|133=51.85|10=086|"
"8=FIX.4.2|9=63|35=S|55=YUM|60=20151204-14:30:00.011|117=S|132=77.72|133=77.72|10=052|"
"8=FIX.4.2|9=64|35=S|55=CALM|60=20151204-14:30:00.011|117=S|132=52.27|133=52.27|10=073|"
"8=FIX.4.2|9=64|35=S|55=JUNO|60=20151204-14:30:00.011|117=S|132=41.87|133=41.87|10=112|"
"8=FIX.4.2|9=63|35=S|55=TSN|60=20151204-14:30:00.011|117=S|132=42.91|133=42.91|10=032|"
"8=FIX.4.2|9=64|35=S|55=EXAS|60=20151204-14:30:00.011|117=S|132=19.05|133=19.05|10=091|"
"8=FIX.4.2|9=64|35=S|55=PTEN|60=20151204-14:30:00.011|117=S|132=14.57|133=14.57|10=101|"
"8=FIX.4.2|9=64|35=S|55=ACAD|60=20151204-14:30:00.011|117=S|132=33.58|133=33.58|10=059|"
"8=FIX.4.2|9=64|35=S|55=ADXS|60=20151204-14:30:00.011|117=S|132=13.55|133=13.55|10=088|"
"8=FIX.4.2|9=63|35=S|55=UAL|60=20151204-14:30:00.011|117=S|132=54.09|133=54.09|10=017|"
"8=FIX.4.2|9=63|35=S|55=NOV|60=20151204-14:30:00.011|117=S|132=37.06|133=37.06|10=030|"
"8=FIX.4.2|9=67|35=S|55=GOOGL|60=20151204-14:30:00.011|117=S|132=629.46|133=629.46|10=029|"
"8=FIX.4.2|9=63|35=S|55=WBA|60=20151204-14:30:00.011|117=S|132=84.59|133=84.59|10=025|"
"8=FIX.4.2|9=62|35=S|55=DG|60=20151204-14:30:00.011|117=S|132=71.16|133=71.16|10=179|"
"8=FIX.4.2|9=63|35=S|55=CPN|60=20151204-14:30:00.011|117=S|132=14.37|133=14.37|10=010|"
"8=FIX.4.2|9=64|35=S|55=MDCO|60=20151204-14:30:00.011|117=S|132=39.46|133=39.46|10=091|"
"8=FIX.4.2|9=62|35=S|55=KN|60=20151204-14:30:00.011|117=S|132=17.87|133=17.87|10=209|"
"8=FIX.4.2|9=63|35=S|55=HCA|60=20151204-14:30:00.011|117=S|132=76.03|133=76.03|10=247|"
"8=FIX.4.2|9=63|35=S|55=CLR|60=20151204-14:30:00.011|117=S|132=29.17|133=29.17|10=018|"
"8=FIX.4.2|9=64|35=S|55=ALNY|60=20151204-14:30:00.011|117=S|132=79.14|133=79.14|10=106|"
"8=FIX.4.2|9=64|35=S|55=EVHC|60=20151204-14:30:00.011|117=S|132=38.38|133=38.38|10=094|"
"8=FIX.4.2|9=65|35=S|55=TWC|60=20151204-14:30:00.011|117=S|132=179.99|133=179.99|10=161|"
"8=FIX.4.2|9=62|35=S|55=LC|60=20151204-14:30:00.011|117=S|132=13.74|133=13.74|10=183|"
"8=FIX.4.2|9=63|35=S|55=MUR|60=20151204-14:30:00.011|117=S|132=25.12|133=25.12|10=019|"
"8=FIX.4.2|9=63|35=S|55=COH|60=20151204-14:30:00.011|117=S|132=28.72|133=28.72|10=011|"
"8=FIX.4.2|9=64|35=S|55=GS|60=20151204-14:30:00.011|117=S|132=175.16|133=175.16|10=046|"
"8=FIX.4.2|9=62|35=S|55=RPTP|60=20151204-14:30:00.011|117=S|132=6.45|133=6.45|10=014|"
"8=FIX.4.2|9=63|35=S|55=KND|60=20151204-14:30:00.011|117=S|132=16.68|133=16.68|10=018|"
"8=FIX.4.2|9=63|35=S|55=NBL|60=20151204-14:30:00.011|117=S|132=31.23|133=31.23|10=249|"
"8=FIX.4.2|9=63|35=S|55=NFX|60=20151204-14:30:00.011|117=S|132=33.06|133=33.06|10=015|"
"8=FIX.4.2|9=61|35=S|55=M|60=20151204-14:30:00.011|117=S|132=51.56|133=51.56|10=120|"
"8=FIX.4.2|9=64|35=S|55=DISH|60=20151204-14:30:00.011|117=S|132=57.77|133=57.77|10=104|"
"8=FIX.4.2|9=66|35=S|55=VRTX|60=20151204-14:30:00.011|117=S|132=102.05|133=102.05|10=210|"
"8=FIX.4.2|9=64|35=S|55=PCRX|60=20151204-14:30:00.011|117=S|132=42.92|133=42.92|10=107|"
"8=FIX.4.2|9=61|35=S|55=GLW|60=20151204-14:30:00.011|117=S|132=16.8|133=16.8|10=177|"
"8=FIX.4.2|9=62|35=S|55=SGYP|60=20151204-14:30:00.011|117=S|132=6.62|133=6.62|10=009|"
"8=FIX.4.2|9=64|35=S|55=SLCA|60=20151204-14:30:00.011|117=S|132=14.89|133=14.89|10=091|"
"8=FIX.4.2|9=64|35=S|55=ITCI|60=20151204-14:30:00.012|117=S|132=38.79|133=38.79|10=108|"
"8=FIX.4.2|9=62|35=S|55=ACHN|60=20151204-14:30:00.012|117=S|132=7.47|133=7.47|10=233|"
"8=FIX.4.2|9=63|35=S|55=KND|60=20151204-14:30:00.012|117=S|132=17.08|133=17.08|10=009|"
"8=FIX.4.2|9=64|35=S|55=FITB|60=20151204-14:30:00.012|117=S|132=19.78|133=19.78|10=100|"
"8=FIX.4.2|9=62|35=S|55=TTPH|60=20151204-14:30:00.012|117=S|132=8.88|133=8.88|10=027|"
"8=FIX.4.2|9=61|35=S|55=JOY|60=20151204-14:30:00.012|117=S|132=15.2|133=15.2|10=172|"
"8=FIX.4.2|9=62|35=S|55=ANTH|60=20151204-14:30:00.012|117=S|132=7.14|133=7.14|10=238|"
"8=FIX.4.2|9=60|35=S|55=ARRY|60=20151204-14:30:00.012|117=S|132=4.9|133=4.9|10=161|"
"8=FIX.4.2|9=63|35=S|55=SWC|60=20151204-14:30:00.012|117=S|132=10.94|133=10.94|10=021|"
"8=FIX.4.2|9=63|35=S|55=BAH|60=20151204-14:30:00.012|117=S|132=27.16|133=27.16|10=247|"
"8=FIX.4.2|9=63|35=S|55=CMO|60=20151204-14:30:00.012|117=S|132=10.37|133=10.37|10=001|"
"8=FIX.4.2|9=64|35=S|55=PAYX|60=20151204-14:30:00.012|117=S|132=47.11|133=47.11|10=105|"
"8=FIX.4.2|9=63|35=S|55=DHR|60=20151204-14:30:00.012|117=S|132=84.06|133=84.06|10=014|"
"8=FIX.4.2|9=64|35=S|55=KORS|60=20151204-14:30:00.012|117=S|132=42.01|133=42.01|10=090|"
"8=FIX.4.2|9=62|35=S|55=NTAP|60=20151204-14:30:00.012|117=S|132=29.8|133=29.8|10=004|"
"8=FIX.4.2|9=64|35=S|55=AXTA|60=20151204-14:30:00.012|117=S|132=25.48|133=25.48|10=097|"
"8=FIX.4.2|9=61|35=S|55=CMO|60=20151204-14:30:00.012|117=S|132=10.4|133=10.4|10=147|"
"8=FIX.4.2|9=64|35=S|55=ENDP|60=20151204-14:30:00.012|117=S|132=67.45|133=67.45|10=096|"
"8=FIX.4.2|9=63|35=S|55=BKD|60=20151204-14:30:00.012|117=S|132=22.99|133=22.99|10=009|"
"8=FIX.4.2|9=64|35=S|55=PBCT|60=20151204-14:30:00.012|117=S|132=15.53|133=15.53|10=082|"
"8=FIX.4.2|9=61|35=S|55=AMD|60=20151204-14:30:00.012|117=S|132=2.22|133=2.22|10=136|"
"8=FIX.4.2|9=63|35=S|55=LYB|60=20151204-14:30:00.012|117=S|132=81.55|133=81.55|10=025|"
"8=FIX.4.2|9=64|35=S|55=PX|60=20151204-14:30:00.012|117=S|132=100.22|133=100.22|10=031|"
"8=FIX.4.2|9=60|35=S|55=GALE|60=20151204-14:30:00.012|117=S|132=2.1|133=2.1|10=104|"
"8=FIX.4.2|9=62|35=S|55=DE|60=20151204-14:30:00.012|117=S|132=74.43|133=74.43|10=184|"
"8=FIX.4.2|9=64|35=S|55=NKTR|60=20151204-14:30:00.012|117=S|132=12.13|133=12.13|10=090|"
"8=FIX.4.2|9=64|35=S|55=CTSH|60=20151204-14:30:00.012|117=S|132=61.34|133=61.34|10=091|"
"8=FIX.4.2|9=62|35=S|55=PX|60=20151204-14:30:00.012|117=S|132=99.79|133=99.79|10=247|"
"8=FIX.4.2|9=62|35=S|55=BDSI|60=20151204-14:30:00.012|117=S|132=6.22|133=6.22|10=225|"
"8=FIX.4.2|9=63|35=S|55=KSS|60=20151204-14:30:00.012|117=S|132=47.18|133=47.18|10=037|"
"8=FIX.4.2|9=62|35=S|55=NYMT|60=20151204-14:30:00.012|117=S|132=5.98|133=5.98|10=031|"
"8=FIX.4.2|9=64|35=S|55=BA|60=20151204-14:30:00.012|117=S|132=129.81|133=129.81|10=026|"
"8=FIX.4.2|9=66|35=S|55=AVGO|60=20151204-14:30:00.012|117=S|132=123.98|133=123.98|10=202|"
"8=FIX.4.2|9=66|35=S|55=TSLA|60=20151204-14:30:00.012|117=S|132=253.68|133=253.68|10=211|"
"8=FIX.4.2|9=63|35=S|55=NUE|60=20151204-14:30:00.012|117=S|132=37.04|133=37.04|10=016|"
"8=FIX.4.2|9=61|35=S|55=CIE|60=20151204-14:30:00.012|117=S|132=7.32|133=7.32|10=147|"
"8=FIX.4.2|9=63|35=S|55=SNH|60=20151204-14:30:00.012|117=S|132=16.23|133=16.23|10=013|"
"8=FIX.4.2|9=64|35=S|55=LULU|60=20151204-14:30:00.012|117=S|132=51.28|133=51.28|10=111|"
"8=FIX.4.2|9=64|35=S|55=INSM|60=20151204-14:30:00.012|117=S|132=19.07|133=19.07|10=102|"
"8=FIX.4.2|9=63|35=S|55=APA|60=20151204-14:30:00.012|117=S|132=37.97|133=37.97|10=018|"
"8=FIX.4.2|9=62|35=S|55=ITCI|60=20151204-14:30:00.012|117=S|132=38.6|133=38.6|10=246|"
"8=FIX.4.2|9=64|35=S|55=SWKS|60=20151204-14:30:00.012|117=S|132=85.12|133=85.12|10=117|"
"8=FIX.4.2|9=63|35=S|55=NBR|60=20151204-14:30:00.012|117=S|132=10.44|133=10.44|10=000|"
"8=FIX.4.2|9=63|35=S|55=MUR|60=20151204-14:30:00.012|117=S|132=24.79|133=24.79|10=044|"
"8=FIX.4.2|9=64|35=S|55=AXTA|60=20151204-14:30:00.012|117=S|132=25.82|133=25.82|10=093|"
"8=FIX.4.2|9=64|35=S|55=SNDK|60=20151204-14:30:00.012|117=S|132=49.03|133=49.03|10=093|"
"8=FIX.4.2|9=64|35=S|55=FOLD|60=20151204-14:30:00.012|117=S|132=14.43|133=14.43|10=074|"
"8=FIX.4.2|9=64|35=S|55=NLNK|60=20151204-14:30:00.012|117=S|132=41.11|133=41.11|10=078|"
"8=FIX.4.2|9=62|35=S|55=CIEN|60=20151204-14:30:00.012|117=S|132=20.8|133=20.8|10=222|"
"8=FIX.4.2|9=64|35=S|55=SWFT|60=20151204-14:30:00.012|117=S|132=15.92|133=15.92|10=115|"
"8=FIX.4.2|9=63|35=S|55=MAT|60=20151204-14:30:00.013|117=S|132=21.81|133=21.81|10=007|"
"8=FIX.4.2|9=64|35=S|55=NLNK|60=20151204-14:30:00.013|117=S|132=40.77|133=40.77|10=101|"
"8=FIX.4.2|9=63|35=S|55=CPN|60=20151204-14:30:00.013|117=S|132=14.63|133=14.63|10=010|"
"8=FIX.4.2|9=64|35=S|55=AGNC|60=20151204-14:30:00.013|117=S|132=19.26|133=19.26|10=075|"
"8=FIX.4.2|9=64|35=S|55=IMGN|60=20151204-14:30:00.013|117=S|132=10.34|133=10.34|10=073|"
"8=FIX.4.2|9=63|35=S|55=OLN|60=20151204-14:30:00.013|117=S|132=16.53|133=16.53|10=020|"
"8=FIX.4.2|9=63|35=S|55=SPW|60=20151204-14:30:00.013|117=S|132=49.98|133=49.98|10=067|"
"8=FIX.4.2|9=64|35=S|55=WYNN|60=20151204-14:30:00.013|117=S|132=55.33|133=55.33|10=122|"
"8=FIX.4.2|9=66|35=S|55=GOOG|60=20151204-14:30:00.013|117=S|132=600.87|133=600.87|10=198|"
"8=FIX.4.2|9=64|35=S|55=NLNK|60=20151204-14:30:00.013|117=S|132=41.48|133=41.48|10=099|"
"8=FIX.4.2|9=63|35=S|55=SNH|60=20151204-14:30:00.013|117=S|132=16.88|133=16.88|10=036|"
"8=FIX.4.2|9=64|35=S|55=GLOG|60=20151204-14:30:00.013|117=S|132=10.17|133=10.17|10=073|"
"8=FIX.4.2|9=64|35=S|55=SWFT|60=20151204-14:30:00.013|117=S|132=16.06|133=16.06|10=108|"
"8=FIX.4.2|9=62|35=S|55=ZINC|60=20151204-14:30:00.013|117=S|132=4.34|133=4.34|10=246|"
"8=FIX.4.2|9=64|35=S|55=SCTY|60=20151204-14:30:00.013|117=S|132=40.51|133=40.51|10=101|"
"8=FIX.4.2|9=61|35=S|55=GLW|60=20151204-14:30:00.013|117=S|132=17.1|133=17.1|10=167|"
"8=FIX.4.2|9=62|35=S|55=AGEN|60=20151204-14:30:00.013|117=S|132=5.67|133=5.67|10=235|"
"8=FIX.4.2|9=64|35=S|55=ZION|60=20151204-14:30:00.013|117=S|132=27.95|133=27.95|10=124|"
"8=FIX.4.2|9=63|35=S|55=PSX|60=20151204-14:30:00.013|117=S|132=76.37|133=76.37|10=054|"
"8=FIX.4.2|9=63|35=S|55=CVC|60=20151204-14:30:00.013|117=S|132=33.64|133=33.64|10=009|"
"8=FIX.4.2|9=62|35=S|55=HCBK|60=20151204-14:30:00.013|117=S|132=9.89|133=9.89|10=248|"
"8=FIX.4.2|9=63|35=S|55=ALL|60=20151204-14:30:00.013|117=S|132=58.51|133=58.51|10=012|"
"8=FIX.4.2|9=64|35=S|55=BLUE|60=20151204-14:30:00.013|117=S|132=94.86|133=94.86|10=108|"
"8=FIX.4.2|9=62|35=S|55=GERN|60=20151204-14:30:00.013|117=S|132=2.95|133=2.95|10=248|"
"8=FIX.4.2|9=66|35=S|55=PRGO|60=20151204-14:30:00.013|117=S|132=153.77|133=153.77|10=214|"
"8=FIX.4.2|9=63|35=S|55=FOX|60=20151204-14:30:00.013|117=S|132=26.34|133=26.34|10=024|"
"8=FIX.4.2|9=63|35=S|55=NRZ|60=20151204-14:30:00.013|117=S|132=13.75|133=13.75|10=039|"
"8=FIX.4.2|9=63|35=S|55=BAH|60=20151204-14:30:00.013|117=S|132=27.29|133=27.29|10=000|"
"8=FIX.4.2|9=64|35=S|55=DLTR|60=20151204-14:30:00.013|117=S|132=69.61|133=69.61|10=112|"
"8=FIX.4.2|9=65|35=S|55=IBM|60=20151204-14:30:00.013|117=S|132=144.15|133=144.15|10=101|"
"8=FIX.4.2|9=64|35=S|55=JUNO|60=20151204-14:30:00.013|117=S|132=42.68|133=42.68|10=114|"
"8=FIX.4.2|9=64|35=S|55=ALTR|60=20151204-14:30:00.013|117=S|132=50.74|133=50.74|10=097|"
"8=FIX.4.2|9=63|35=S|55=LYB|60=20151204-14:30:00.013|117=S|132=81.02|133=81.02|10=010|"
"8=FIX.4.2|9=66|35=S|55=VRTX|60=20151204-14:30:00.013|117=S|132=102.29|133=102.29|10=224|"
"8=FIX.4.2|9=66|35=S|55=BIIB|60=20151204-14:30:00.013|117=S|132=275.56|133=275.56|10=184|"
"8=FIX.4.2|9=63|35=S|55=ACN|60=20151204-14:30:00.013|117=S|132=97.22|133=97.22|10=007|"
"8=FIX.4.2|9=62|35=S|55=EA|60=20151204-14:30:00.013|117=S|132=68.08|133=68.08|10=190|"
"8=FIX.4.2|9=63|35=S|55=STJ|60=20151204-14:30:00.013|117=S|132=64.32|133=64.32|10=028|"
"8=FIX.4.2|9=64|35=S|55=NWSA|60=20151204-14:30:00.013|117=S|132=12.94|133=12.94|10=103|"
"8=FIX.4.2|9=61|35=S|55=NBR|60=20151204-14:30:00.013|117=S|132=9.56|133=9.56|10=181|"
"8=FIX.4.2|9=63|35=S|55=GLW|60=20151204-14:30:00.013|117=S|132=16.53|133=16.53|10=021|"
"8=FIX.4.2|9=61|35=S|55=XEL|60=20151204-14:30:00.013|117=S|132=35.6|133=35.6|10=176|"
"8=FIX.4.2|9=64|35=S|55=CTSH|60=20151204-14:30:00.013|117=S|132=61.58|133=61.58|10=104|"
"8=FIX.4.2|9=65|35=S|55=ACE|60=20151204-14:30:00.013|117=S|132=102.39|133=102.39|10=086|"
"8=FIX.4.2|9=63|35=S|55=GIS|60=20151204-14:30:00.013|117=S|132=56.44|133=56.44|10=022|"
"8=FIX.4.2|9=62|35=S|55=PM|60=20151204-14:30:00.013|117=S|132=80.41|133=80.41|10=195|"
"8=FIX.4.2|9=62|35=S|55=AGEN|60=20151204-14:30:00.013|117=S|132=5.01|133=5.01|10=211|"
"8=FIX.4.2|9=64|35=S|55=MDRX|60=20151204-14:30:00.013|117=S|132=12.77|133=12.77|10=107|"
"8=FIX.4.2|9=66|35=S|55=ILMN|60=20151204-14:30:00.013|117=S|132=168.81|133=168.81|10=208|"
"8=FIX.4.2|9=66|35=S|55=EXPE|60=20151204-14:30:00.013|117=S|132=118.52|133=118.52|10=196|"
"8=FIX.4.2|9=64|35=S|55=NKTR|60=20151204-14:30:00.014|117=S|132=12.19|133=12.19|10=104|"
"8=FIX.4.2|9=64|35=S|55=ENDP|60=20151204-14:30:00.014|117=S|132=67.77|133=67.77|10=108|"
"8=FIX.4.2|9=64|35=S|55=ITCI|60=20151204-14:30:00.014|117=S|132=38.44|133=38.44|10=094|"
"8=FIX.4.2|9=63|35=S|55=HIG|60=20151204-14:30:00.014|117=S|132=44.93|133=44.93|10=014|"
"8=FIX.4.2|9=63|35=S|55=TRN|60=20151204-14:30:00.014|117=S|132=23.88|133=23.88|10=044|"
"8=FIX.4.2|9=63|35=S|55=CMO|60=20151204-14:30:00.014|117=S|132=10.97|133=10.97|10=015|"
"8=FIX.4.2|9=63|35=S|55=GGP|60=20151204-14:30:00.014|117=S|132=25.24|133=25.24|10=006|"
"8=FIX.4.2|9=61|35=S|55=P|60=20151204-14:30:00.014|117=S|132=20.85|133=20.85|10=122|"
"8=FIX.4.2|9=64|35=S|55=PCRX|60=20151204-14:30:00.014|117=S|132=42.83|133=42.83|10=110|"
"8=FIX.4.2|9=62|35=S|55=PLUG|60=20151204-14:30:00.014|117=S|132=1.88|133=1.88|10=007|"
"8=FIX.4.2|9=63|35=S|55=NBR|60=20151204-14:30:00.014|117=S|132=10.24|133=10.24|10=254|"
"8=FIX.4.2|9=63|35=S|55=ETN|60=20151204-14:30:00.014|117=S|132=51.01|133=51.01|10=003|"
"8=FIX.4.2|9=63|35=S|55=CNC|60=20151204-14:30:00.014|117=S|132=54.29|133=54.29|10=010|"
"8=FIX.4.2|9=66|35=S|55=VRTX|60=20151204-14:30:00.014|117=S|132=102.15|133=102.15|10=215|"
"8=FIX.4.2|9=62|35=S|55=NI|60=20151204-14:30:00.014|117=S|132=17.89|133=17.89|10=214|"
"8=FIX.4.2|9=61|35=S|55=INO|60=20151204-14:30:00.014|117=S|132=6.48|133=6.48|10=182|"
"8=FIX.4.2|9=65|35=S|55=MCK|60=20151204-14:30:00.014|117=S|132=187.37|133=187.37|10=127|"
"8=FIX.4.2|9=62|35=S|55=HP|60=20151204-14:30:00.014|117=S|132=47.15|133=47.15|10=199|"
"8=FIX.4.2|9=62|35=S|55=CL|60=20151204-14:30:00.014|117=S|132=63.28|133=63.28|10=194|"
"8=FIX.4.2|9=62|35=S|55=PM|60=20151204-14:30:00.014|117=S|132=80.24|133=80.24|10=198|"
"8=FIX.4.2|9=64|35=S|55=LLTC|60=20151204-14:30:00.014|117=S|132=39.55|133=39.55|10=106|"
"8=FIX.4.2|9=63|35=S|55=CVS|60=20151204-14:30:00.014|117=S|132=97.32|133=97.32|10=036|"
"8=FIX.4.2|9=61|35=S|55=MFA|60=20151204-14:30:00.014|117=S|132=7.42|133=7.42|10=154|"
"8=FIX.4.2|9=64|35=S|55=STLD|60=20151204-14:30:00.014|117=S|132=17.57|133=17.57|10=110|"
"8=FIX.4.2|9=62|35=S|55=WU|60=20151204-14:30:00.014|117=S|132=18.59|133=18.59|10=231|"
"8=FIX.4.2|9=64|35=S|55=BURL|60=20151204-14:30:00.014|117=S|132=48.65|133=48.65|10=114|"
"8=FIX.4.2|9=64|35=S|55=SPLS|60=20151204-14:30:00.014|117=S|132=12.84|133=12.84|10=111|"
"8=FIX.4.2|9=63|35=S|55=HCP|60=20151204-14:30:00.014|117=S|132=37.14|133=37.14|10=007|"
"8=FIX.4.2|9=62|35=S|55=ARRY|60=20151204-14:30:00.014|117=S|132=4.91|133=4.91|10=007|"
"8=FIX.4.2|9=64|35=S|55=MDRX|60=20151204-14:30:00.014|117=S|132=13.22|133=13.22|10=090|"
"8=FIX.4.2|9=62|35=S|55=PX|60=20151204-14:30:00.014|117=S|132=99.98|133=99.98|10=251|"
"8=FIX.4.2|9=63|35=S|55=PSX|60=20151204-14:30:00.014|117=S|132=76.11|133=76.11|10=039|"
"8=FIX.4.2|9=64|35=S|55=AMTD|60=20151204-14:30:00.014|117=S|132=31.59|133=31.59|10=089|"
"8=FIX.4.2|9=63|35=S|55=LOW|60=20151204-14:30:00.014|117=S|132=68.51|133=68.51|10=040|"
"8=FIX.4.2|9=63|35=S|55=PSX|60=20151204-14:30:00.014|117=S|132=76.15|133=76.15|10=047|"
"8=FIX.4.2|9=58|35=S|55=SCTY|60=20151204-14:30:00.014|117=S|132=41|133=41|10=067|"
"8=FIX.4.2|9=65|35=S|55=DISCA|60=20151204-14:30:00.014|117=S|132=28.45|133=28.45|10=154|"
"8=FIX.4.2|9=63|35=S|55=BBT|60=20151204-14:30:00.014|117=S|132=35.27|133=35.27|10=008|"
"8=FIX.4.2|9=62|35=S|55=ACHN|60=20151204-14:30:00.014|117=S|132=7.84|133=7.84|10=237|"
"8=FIX.4.2|9=64|35=S|55=CALM|60=20151204-14:30:00.014|117=S|132=51.88|133=51.88|10=088|"
"8=FIX.4.2|9=63|35=S|55=BRX|60=20151204-14:30:00.014|117=S|132=23.36|133=23.36|10=022|"
"8=FIX.4.2|9=64|35=S|55=EW|60=20151204-14:30:00.014|117=S|132=135.95|133=135.95|10=057|"
"8=FIX.4.2|9=63|35=S|55=HDS|60=20151204-14:30:00.014|117=S|132=29.67|133=29.67|10=029|"
"8=FIX.4.2|9=63|35=S|55=YUM|60=20151204-14:30:00.014|117=S|132=77.42|133=77.42|10=049|"
"8=FIX.4.2|9=61|35=S|55=MBI|60=20151204-14:30:00.014|117=S|132=6.54|133=6.54|10=162|"
"8=FIX.4.2|9=63|35=S|55=NWL|60=20151204-14:30:00.014|117=S|132=40.49|133=40.49|10=033|"
"8=FIX.4.2|9=62|35=S|55=BCEI|60=20151204-14:30:00.014|117=S|132=5.34|133=5.34|10=216|"
"8=FIX.4.2|9=62|35=S|55=SO|60=20151204-14:30:00.014|117=S|132=44.77|133=44.77|10=219|"
"8=FIX.4.2|9=62|35=S|55=SNTA|60=20151204-14:30:00.014|117=S|132=1.85|133=1.85|10=255|"
"8=FIX.4.2|9=62|35=S|55=DG|60=20151204-14:30:00.014|117=S|132=71.34|133=71.34|10=182|"
"8=FIX.4.2|9=63|35=S|55=GPS|60=20151204-14:30:00.015|117=S|132=30.69|133=30.69|10=029|"
"8=FIX.4.2|9=63|35=S|55=CAR|60=20151204-14:30:00.015|117=S|132=44.38|133=44.38|10=011|"
"8=FIX.4.2|9=67|35=S|55=GOOGL|60=20151204-14:30:00.015|117=S|132=628.99|133=628.99|10=047|"
"8=FIX.4.2|9=63|35=S|55=LOW|60=20151204-14:30:00.015|117=S|132=69.15|133=69.15|10=043|"
"8=FIX.4.2|9=63|35=S|55=BAH|60=20151204-14:30:00.015|117=S|132=27.11|133=27.11|10=240|"
"8=FIX.4.2|9=64|35=S|55=ALTR|60=20151204-14:30:00.015|117=S|132=51.17|133=51.17|10=095|"
"8=FIX.4.2|9=63|35=S|55=VLO|60=20151204-14:30:00.015|117=S|132=59.78|133=59.78|10=058|"
"8=FIX.4.2|9=63|35=S|55=PEP|60=20151204-14:30:00.015|117=S|132=93.38|133=93.38|10=034|"
"8=FIX.4.2|9=62|35=S|55=SWFT|60=20151204-14:30:00.015|117=S|132=15.6|133=15.6|10=010|"
"8=FIX.4.2|9=64|35=S|55=EXAS|60=20151204-14:30:00.015|117=S|132=19.39|133=19.39|10=109|"
"8=FIX.4.2|9=62|35=S|55=DD|60=20151204-14:30:00.015|117=S|132=48.13|133=48.13|10=182|"
"8=FIX.4.2|9=63|35=S|55=MPC|60=20151204-14:30:00.015|117=S|132=46.58|133=46.58|10=029|"
"8=FIX.4.2|9=64|35=S|55=SIAL|60=20151204-14:30:00.015|117=S|132=139.1|133=139.1|10=085|"
"8=FIX.4.2|9=63|35=S|55=EIX|60=20151204-14:30:00.015|117=S|132=61.86|133=61.86|10=031|"
"8=FIX.4.2|9=61|35=S|55=MFA|60=20151204-14:30:00.015|117=S|132=6.84|133=6.84|10=165|"
"8=FIX.4.2|9=64|35=S|55=HRTX|60=20151204-14:30:00.015|117=S|132=25.43|133=25.43|10=114|"
"8=FIX.4.2|9=63|35=S|55=SWC|60=20151204-14:30:00.015|117=S|132=10.08|133=10.08|10=014|"
"8=FIX.4.2|9=63|35=S|55=SLH|60=20151204-14:30:00.015|117=S|132=56.02|133=56.02|10=016|"
"8=FIX.4.2|9=63|35=S|55=OLN|60=20151204-14:30:00.015|117=S|132=16.74|133=16.74|10=028|"
"8=FIX.4.2|9=63|35=S|55=GLW|60=20151204-14:30:00.015|117=S|132=17.14|133=17.14|10=019|"
"8=FIX.4.2|9=63|35=S|55=QEP|60=20151204-14:30:00.015|117=S|132=12.44|133=12.44|10=011|"
"8=FIX.4.2|9=61|35=S|55=P|60=20151204-14:30:00.015|117=S|132=21.37|133=21.37|10=119|"
"8=FIX.4.2|9=64|35=S|55=CTSH|60=20151204-14:30:00.015|117=S|132=61.13|133=61.13|10=088|"
"8=FIX.4.2|9=62|35=S|55=KERX|60=20151204-14:30:00.015|117=S|132=3.77|133=3.77|10=010|"
"8=FIX.4.2|9=63|35=S|55=FTI|60=20151204-14:30:00.015|117=S|132=31.86|133=31.86|10=022|"
"8=FIX.4.2|9=63|35=S|55=DHI|60=20151204-14:30:00.015|117=S|132=30.44|133=30.44|10=250|"
"8=FIX.4.2|9=64|35=S|55=LH|60=20151204-14:30:00.015|117=S|132=108.43|133=108.43|10=036|"
"8=FIX.4.2|9=61|35=S|55=TWO|60=20151204-14:30:00.015|117=S|132=9.47|133=9.47|10=207|"
"8=FIX.4.2|9=63|35=S|55=MCD|60=20151204-14:30:00.015|117=S|132=97.52|133=97.52|10=017|"
"8=FIX.4.2|9=60|35=S|55=GSAT|60=20151204-14:30:00.015|117=S|132=1.6|133=1.6|10=137|"
"8=FIX.4.2|9=63|35=S|55=DFS|60=20151204-14:30:00.015|117=S|132=51.79|133=51.79|10=024|"
"8=FIX.4.2|9=61|35=S|55=SRC|60=20151204-14:30:00.015|117=S|132=9.28|133=9.28|10=187|"
"8=FIX.4.2|9=62|35=S|55=FCEL|60=20151204-14:30:00.015|117=S|132=0.75|133=0.75|10=224|"
"8=FIX.4.2|9=63|35=S|55=EOG|60=20151204-14:30:00.015|117=S|132=71.45|133=71.45|10=012|"
"8=FIX.4.2|9=61|35=S|55=M|60=20151204-14:30:00.015|117=S|132=51.51|133=51.51|10=114|"
"8=FIX.4.2|9=64|35=S|55=UA|60=20151204-14:30:00.015|117=S|132=102.09|133=102.09|10=030|"
"8=FIX.4.2|9=66|35=S|55=AVGO|60=20151204-14:30:00.015|117=S|132=124.74|133=124.74|10=195|"
"8=FIX.4.2|9=55|35=S|55=BTU|60=20151204-14:30:00.015|117=S|132=2|133=2|10=131|"
"8=FIX.4.2|9=61|35=S|55=LUK|60=20151204-14:30:00.015|117=S|132=20.7|133=20.7|10=171|"
"8=FIX.4.2|9=62|35=S|55=LC|60=20151204-14:30:00.015|117=S|132=13.49|133=13.49|10=191|"
"8=FIX.4.2|9=63|35=S|55=PSX|60=20151204-14:30:00.015|117=S|132=76.36|133=76.36|10=054|"
"8=FIX.4.2|9=61|35=S|55=ODP|60=20151204-14:30:00.015|117=S|132=7.24|133=7.24|10=170|"
"8=FIX.4.2|9=65|35=S|55=MMM|60=20151204-14:30:00.015|117=S|132=140.47|133=140.47|10=120|"
"8=FIX.4.2|9=62|35=S|55=MDVN|60=20151204-14:30:00.015|117=S|132=40.7|133=40.7|10=249|"
"8=FIX.4.2|9=64|35=S|55=FAST|60=20151204-14:30:00.015|117=S|132=37.04|133=37.04|10=090|"
"8=FIX.4.2|9=63|35=S|55=UAL|60=20151204-14:30:00.015|117=S|132=53.72|133=53.72|10=019|"
"8=FIX.4.2|9=65|35=S|55=AET|60=20151204-14:30:00.015|117=S|132=108.89|133=108.89|10=127|"
"8=FIX.4.2|9=62|35=S|55=AGEN|60=20151204-14:30:00.015|117=S|132=4.99|133=4.99|10=245|"
"8=FIX.4.2|9=63|35=S|55=SEE|60=20151204-14:30:00.015|117=S|132=46.58|133=46.58|10=026|"
"8=FIX.4.2|9=65|35=S|55=TWC|60=20151204-14:30:00.015|117=S|132=179.87|133=179.87|10=159|"
"8=FIX.4.2|9=66|35=S|55=AMZN|60=20151204-14:30:00.016|117=S|132=506.36|133=506.36|10=209|"
"8=FIX.4.2|9=56|35=S|55=CA|60=20151204-14:30:00.016|117=S|132=28|133=28|10=142|"
"8=FIX.4.2|9=61|35=S|55=CRC|60=20151204-14:30:00.016|117=S|132=3.19|133=3.19|10=160|"
"8=FIX.4.2|9=63|35=S|55=ABC|60=20151204-14:30:00.016|117=S|132=98.28|133=98.28|10=012|"
"8=FIX.4.2|9=65|35=S|55=CMI|60=20151204-14:30:00.016|117=S|132=108.15|133=108.15|10=105|"
"8=FIX.4.2|9=64|35=S|55=BURL|60=20151204-14:30:00.016|117=S|132=48.47|133=48.47|10=116|"
"8=FIX.4.2|9=61|35=S|55=HCA|60=20151204-14:30:00.016|117=S|132=76.3|133=76.3|10=154|"
"8=FIX.4.2|9=64|35=S|55=LLTC|60=20151204-14:30:00.016|117=S|132=39.49|133=39.49|10=114|"
"8=FIX.4.2|9=60|35=S|55=SN|60=20151204-14:30:00.016|117=S|132=6.57|133=6.57|10=114|"
"8=FIX.4.2|9=64|35=S|55=ADXS|60=20151204-14:30:00.016|117=S|132=13.31|133=13.31|10=081|"
"8=FIX.4.2|9=63|35=S|55=LYB|60=20151204-14:30:00.016|117=S|132=81.65|133=81.65|10=031|"
"8=FIX.4.2|9=63|35=S|55=BEE|60=20151204-14:30:00.016|117=S|132=13.94|133=13.94|10=254|"
"8=FIX.4.2|9=63|35=S|55=GGP|60=20151204-14:30:00.016|117=S|132=25.22|133=25.22|10=004|"
"8=FIX.4.2|9=64|35=S|55=EPZM|60=20151204-14:30:00.016|117=S|132=14.17|133=14.17|10=103|"
"8=FIX.4.2|9=62|35=S|55=HP|60=20151204-14:30:00.016|117=S|132=46.98|133=46.98|10=221|"
"8=FIX.4.2|9=62|35=S|55=TROX|60=20151204-14:30:00.016|117=S|132=4.83|133=4.83|10=026|"
"8=FIX.4.2|9=63|35=S|55=VTR|60=20151204-14:30:00.016|117=S|132=56.64|133=56.64|10=054|"
"8=FIX.4.2|9=63|35=S|55=DVN|60=20151204-14:30:00.016|117=S|132=37.47|133=37.47|10=034|"
"8=FIX.4.2|9=63|35=S|55=TRN|60=20151204-14:30:00.016|117=S|132=23.58|133=23.58|10=040|"
"8=FIX.4.2|9=63|35=S|55=DHI|60=20151204-14:30:00.016|117=S|132=30.11|133=30.11|10=239|"
"8=FIX.4.2|9=65|35=S|55=MCK|60=20151204-14:30:00.016|117=S|132=186.91|133=186.91|10=127|"
"8=FIX.4.2|9=63|35=S|55=CNX|60=20151204-14:30:00.016|117=S|132=10.24|133=10.24|10=007|"
"8=FIX.4.2|9=61|35=S|55=AIG|60=20151204-14:30:00.016|117=S|132=57.6|133=57.6|10=163|"
"8=FIX.4.2|9=62|35=S|55=GT|60=20151204-14:30:00.016|117=S|132=29.22|133=29.22|10=200|"
"8=FIX.4.2|9=62|35=S|55=MRVL|60=20151204-14:30:00.016|117=S|132=10.2|133=10.2|10=246|"
"8=FIX.4.2|9=63|35=S|55=PWR|60=20151204-14:30:00.016|117=S|132=24.38|133=24.38|10=043|"
"8=FIX.4.2|9=62|35=S|55=DO|60=20151204-14:30:00.016|117=S|132=18.06|133=18.06|10=192|"
"8=FIX.4.2|9=64|35=S|55=FAST|60=20151204-14:30:00.016|117=S|132=36.62|133=36.62|10=097|"
"8=FIX.4.2|9=63|35=S|55=RRC|60=20151204-14:30:00.016|117=S|132=34.39|133=34.39|10=029|"
"8=FIX.4.2|9=62|35=S|55=KN|60=20151204-14:30:00.016|117=S|132=17.33|133=17.33|10=196|"
"8=FIX.4.2|9=61|35=S|55=GCA|60=20151204-14:30:00.016|117=S|132=5.29|133=5.29|10=153|"
"8=FIX.4.2|9=62|35=S|55=HP|60=20151204-14:30:00.016|117=S|132=47.37|133=47.37|10=209|"
"8=FIX.4.2|9=60|35=S|55=CF|60=20151204-14:30:00.016|117=S|132=45.2|133=45.2|10=076|"
"8=FIX.4.2|9=64|35=S|55=HD|60=20151204-14:30:00.016|117=S|132=115.72|133=115.72|10=029|"
"8=FIX.4.2|9=63|35=S|55=LNG|60=20151204-14:30:00.016|117=S|132=47.29|133=47.29|10=029|"
"8=FIX.4.2|9=63|35=S|55=AEP|60=20151204-14:30:00.016|117=S|132=56.14|133=56.14|10=006|"
"8=FIX.4.2|9=62|35=S|55=GT|60=20151204-14:30:00.016|117=S|132=29.31|133=29.31|10=200|"
"8=FIX.4.2|9=64|35=S|55=BIIB|60=20151204-14:30:00.016|117=S|132=275.9|133=275.9|10=085|"
"8=FIX.4.2|9=60|35=S|55=WU|60=20151204-14:30:00.016|117=S|132=18.5|133=18.5|10=117|"
"8=FIX.4.2|9=63|35=S|55=CMI|60=20151204-14:30:00.016|117=S|132=107.6|133=107.6|10=005|"
"8=FIX.4.2|9=66|35=S|55=ALXN|60=20151204-14:30:00.016|117=S|132=145.02|133=145.02|10=190|"
"8=FIX.4.2|9=63|35=S|55=AEP|60=20151204-14:30:00.016|117=S|132=56.35|133=56.35|10=012|"
"8=FIX.4.2|9=64|35=S|55=ACAD|60=20151204-14:30:00.016|117=S|132=34.31|133=34.31|10=048|"
"8=FIX.4.2|9=63|35=S|55=IPG|60=20151204-14:30:00.016|117=S|132=19.84|133=19.84|10=028|"
"8=FIX.4.2|9=63|35=S|55=APA|60=20151204-14:30:00.016|117=S|132=37.58|133=37.58|10=016|"
"8=FIX.4.2|9=61|35=S|55=ODP|60=20151204-14:30:00.016|117=S|132=6.89|133=6.89|10=191|"
"8=FIX.4.2|9=61|35=S|55=CIE|60=20151204-14:30:00.016|117=S|132=7.15|133=7.15|10=153|"
"8=FIX.4.2|9=64|35=S|55=NTAP|60=20151204-14:30:00.016|117=S|132=29.61|133=29.61|10=104|"
"8=FIX.4.2|9=61|35=S|55=CYH|60=20151204-14:30:00.016|117=S|132=42.5|133=42.5|10=168|"
"8=FIX.4.2|9=64|35=S|55=JUNO|60=20151204-14:30:00.016|117=S|132=41.97|133=41.97|10=119|"
"8=FIX.4.2|9=63|35=S|55=PGR|60=20151204-14:30:00.017|117=S|132=31.08|133=31.08|10=018|"
"8=FIX.4.2|9=62|35=S|55=CTIC|60=20151204-14:30:00.017|117=S|132=1.98|133=1.98|10=247|"
"8=FIX.4.2|9=63|35=S|55=JBL|60=20151204-14:30:00.017|117=S|132=22.15|133=22.15|10=253|"
"8=FIX.4.2|9=64|35=S|55=CIEN|60=20151204-14:30:00.017|117=S|132=20.87|133=20.87|10=083|"
"8=FIX.4.2|9=61|35=S|55=BAS|60=20151204-14:30:00.017|117=S|132=3.98|133=3.98|10=173|"
"8=FIX.4.2|9=64|35=S|55=DLTR|60=20151204-14:30:00.017|117=S|132=69.33|133=69.33|10=114|"
"8=FIX.4.2|9=63|35=S|55=MUR|60=20151204-14:30:00.017|117=S|132=24.35|133=24.35|10=033|"
"8=FIX.4.2|9=63|35=S|55=GIS|60=20151204-14:30:00.017|117=S|132=56.09|133=56.09|10=028|"
"8=FIX.4.2|9=64|35=S|55=SPLS|60=20151204-14:30:00.017|117=S|132=12.36|133=12.36|10=108|"
"8=FIX.4.2|9=60|35=S|55=RPTP|60=20151204-14:30:00.017|117=S|132=6.1|133=6.1|10=162|"
"8=FIX.4.2|9=63|35=S|55=SWC|60=20151204-14:30:00.017|117=S|132=10.91|133=10.91|10=020|"
"8=FIX.4.2|9=63|35=S|55=CNC|60=20151204-14:30:00.017|117=S|132=54.49|133=54.49|10=017|"
"8=FIX.4.2|9=63|35=S|55=WDC|60=20151204-14:30:00.017|117=S|132=68.95|133=68.95|10=039|"
"8=FIX.4.2|9=66|35=S|55=BIIB|60=20151204-14:30:00.017|117=S|132=276.03|133=276.03|10=174|"
"8=FIX.4.2|9=63|35=S|55=UAL|60=20151204-14:30:00.017|117=S|132=53.87|133=53.87|10=033|"
"8=FIX.4.2|9=63|35=S|55=JNS|60=20151204-14:30:00.017|117=S|132=14.35|133=14.35|10=022|"
"8=FIX.4.2|9=63|35=S|55=SYK|60=20151204-14:30:00.017|117=S|132=93.45|133=93.45|10=050|"
"8=FIX.4.2|9=63|35=S|55=ANF|60=20151204-14:30:00.017|117=S|132=21.64|133=21.64|10=000|"
"8=FIX.4.2|9=65|35=S|55=TWC|60=20151204-14:30:00.017|117=S|132=180.67|133=180.67|10=141|"
"8=FIX.4.2|9=63|35=S|55=NRZ|60=20151204-14:30:00.017|117=S|132=13.36|133=13.36|10=037|"
"8=FIX.4.2|9=64|35=S|55=NTAP|60=20151204-14:30:00.017|117=S|132=29.94|133=29.94|10=117|"
"8=FIX.4.2|9=63|35=S|55=AEP|60=20151204-14:30:00.017|117=S|132=56.47|133=56.47|10=019|"
"8=FIX.4.2|9=61|35=S|55=IPG|60=20151204-14:30:00.017|117=S|132=19.4|133=19.4|10=171|"
"8=FIX.4.2|9=63|35=S|55=NEM|60=20151204-14:30:00.017|117=S|132=16.61|133=16.61|10=013|"
"8=FIX.4.2|9=63|35=S|55=KND|60=20151204-14:30:00.017|117=S|132=16.45|133=16.45|10=014|"
"8=FIX.4.2|9=63|35=S|55=GSM|60=20151204-14:30:00.017|117=S|132=12.93|133=12.93|10=022|"
"8=FIX.4.2|9=63|35=S|55=PPL|60=20151204-14:30:00.017|117=S|132=31.94|133=31.94|10=031|"
"8=FIX.4.2|9=63|35=S|55=ABC|60=20151204-14:30:00.017|117=S|132=98.13|133=98.13|10=001|"
"8=FIX.4.2|9=64|35=S|55=UA|60=20151204-14:30:00.017|117=S|132=101.88|133=101.88|10=044|"
"8=FIX.4.2|9=62|35=S|55=CA|60=20151204-14:30:00.017|117=S|132=28.06|133=28.06|10=180|"
"8=FIX.4.2|9=63|35=S|55=DIS|60=20151204-14:30:00.017|117=S|132=99.83|133=99.83|10=043|"
"8=FIX.4.2|9=62|35=S|55=CF|60=20151204-14:30:00.017|117=S|132=45.12|133=45.12|10=177|"
"8=FIX.4.2|9=62|35=S|55=RPTP|60=20151204-14:30:00.017|117=S|132=6.39|133=6.39|10=026|"
"8=FIX.4.2|9=64|35=S|55=ALTR|60=20151204-14:30:00.017|117=S|132=50.73|133=50.73|10=099|"
"8=FIX.4.2|9=64|35=S|55=MDRX|60=20151204-14:30:00.017|117=S|132=13.05|133=13.05|10=095|"
"8=FIX.4.2|9=60|35=S|55=SN|60=20151204-14:30:00.017|117=S|132=5.73|133=5.73|10=109|"
"8=FIX.4.2|9=63|35=S|55=GGP|60=20151204-14:30:00.017|117=S|132=25.55|133=25.55|10=017|"
"8=FIX.4.2|9=63|35=S|55=DDR|60=20151204-14:30:00.017|117=S|132=15.69|133=15.69|10=021|"
"8=FIX.4.2|9=63|35=S|55=LOW|60=20151204-14:30:00.017|117=S|132=68.66|133=68.66|10=055|"
"8=FIX.4.2|9=65|35=S|55=UNH|60=20151204-14:30:00.017|117=S|132=114.53|133=114.53|10=122|"
"8=FIX.4.2|9=61|35=S|55=CLF|60=20151204-14:30:00.017|117=S|132=2.57|133=2.57|10=160|"
"8=FIX.4.2|9=62|35=S|55=FE|60=20151204-14:30:00.017|117=S|132=31.13|133=31.13|10=171|"
"8=FIX.4.2|9=63|35=S|55=KSS|60=20151204-14:30:00.017|117=S|132=46.74|133=46.74|10=044|"
"8=FIX.4.2|9=63|35=S|55=FMC|60=20151204-14:30:00.017|117=S|132=33.06|133=33.06|10=255|"
"8=FIX.4.2|9=62|35=S|55=DE|60=20151204-14:30:00.017|117=S|132=74.16|133=74.16|10=189|"
"8=FIX.4.2|9=64|35=S|55=FAST|60=20151204-14:30:00.017|117=S|132=37.34|133=37.34|10=098|"
"8=FIX.4.2|9=62|35=S|55=ARNA|60=20151204-14:30:00.017|117=S|132=2.95|133=2.95|10=242|"
"8=FIX.4.2|9=64|35=S|55=DISH|60=20151204-14:30:00.017|117=S|132=57.88|133=57.88|10=114|"
"8=FIX.4.2|9=63|35=S|55=STI|60=20151204-14:30:00.017|117=S|132=38.68|133=38.68|10=051|"
"8=FIX.4.2|9=64|35=S|55=ALTR|60=20151204-14:30:00.017|117=S|132=50.42|133=50.42|10=091|"
"8=FIX.4.2|9=61|35=S|55=SRC|60=20151204-14:30:00.018|117=S|132=9.73|133=9.73|10=190|"
"8=FIX.4.2|9=64|35=S|55=EW|60=20151204-14:30:00.018|117=S|132=136.04|133=136.04|10=043|"
"8=FIX.4.2|9=60|35=S|55=MM|60=20151204-14:30:00.018|117=S|132=2.23|133=2.23|10=087|"
"8=FIX.4.2|9=66|35=S|55=ALXN|60=20151204-14:30:00.018|117=S|132=144.97|133=144.97|10=218|"
"8=FIX.4.2|9=64|35=S|55=EVHC|60=20151204-14:30:00.018|117=S|132=37.78|133=37.78|10=107|"
"8=FIX.4.2|9=64|35=S|55=CIEN|60=20151204-14:30:00.018|117=S|132=21.12|133=21.12|10=062|"
"8=FIX.4.2|9=62|35=S|55=ACHN|60=20151204-14:30:00.018|117=S|132=7.69|133=7.69|10=247|"
"8=FIX.4.2|9=63|35=S|55=ATW|60=20151204-14:30:00.018|117=S|132=15.43|133=15.43|10=024|"
"8=FIX.4.2|9=61|35=S|55=TWO|60=20151204-14:30:00.018|117=S|132=9.74|133=9.74|10=210|"
"8=FIX.4.2|9=63|35=S|55=NBR|60=20151204-14:30:00.018|117=S|132=10.07|133=10.07|10=004|"
"8=FIX.4.2|9=62|35=S|55=ARNA|60=20151204-14:30:00.018|117=S|132=2.82|133=2.82|10=235|"
"8=FIX.4.2|9=63|35=S|55=NUE|60=20151204-14:30:00.018|117=S|132=37.32|133=37.32|10=024|"
"8=FIX.4.2|9=64|35=S|55=PCRX|60=20151204-14:30:00.018|117=S|132=42.84|133=42.84|10=116|"
"8=FIX.4.2|9=64|35=S|55=MDVN|60=20151204-14:30:00.018|117=S|132=40.53|133=40.53|10=096|"
"8=FIX.4.2|9=64|35=S|55=IMGN|60=20151204-14:30:00.018|117=S|132=10.73|133=10.73|10=084|"
"8=FIX.4.2|9=64|35=S|55=BLUE|60=20151204-14:30:00.018|117=S|132=94.73|133=94.73|10=105|"
"8=FIX.4.2|9=62|35=S|55=PM|60=20151204-14:30:00.018|117=S|132=80.21|133=80.21|10=196|"
"8=FIX.4.2|9=63|35=S|55=PEG|60=20151204-14:30:00.018|117=S|132=40.84|133=40.84|10=014|"
"8=FIX.4.2|9=64|35=S|55=FEYE|60=20151204-14:30:00.018|117=S|132=32.13|133=32.13|10=078|"
"8=FIX.4.2|9=64|35=S|55=SYMC|60=20151204-14:30:00.018|117=S|132=20.25|133=20.25|10=097|"
"8=FIX.4.2|9=63|35=S|55=CVC|60=20151204-14:30:00.018|117=S|132=33.22|133=33.22|10=002|"
"8=FIX.4.2|9=63|35=S|55=EOG|60=20151204-14:30:00.018|117=S|132=71.82|133=71.82|10=017|"
"8=FIX.4.2|9=62|35=S|55=MNKD|60=20151204-14:30:00.018|117=S|132=3.78|133=3.78|10=255|"
"8=FIX.4.2|9=63|35=S|55=TSN|60=20151204-14:30:00.018|117=S|132=43.42|133=43.42|10=033|"
"8=FIX.4.2|9=64|35=S|55=TROW|60=20151204-14:30:00.018|117=S|132=68.87|133=68.87|10=153|"
"8=FIX.4.2|9=64|35=S|55=SWFT|60=20151204-14:30:00.018|117=S|132=15.79|133=15.79|10=131|"
"8=FIX.4.2|9=63|35=S|55=COG|60=20151204-14:30:00.018|117=S|132=23.93|133=23.93|10=013|"
"8=FIX.4.2|9=64|35=S|55=PCAR|60=20151204-14:30:00.018|117=S|132=52.32|133=52.32|10=081|"
"8=FIX.4.2|9=63|35=S|55=SNH|60=20151204-14:30:00.018|117=S|132=16.24|133=16.24|10=021|"
"8=FIX.4.2|9=65|35=S|55=MMM|60=20151204-14:30:00.018|117=S|132=140.05|133=140.05|10=111|"
"8=FIX.4.2|9=64|35=S|55=PGRE|60=20151204-14:30:00.018|117=S|132=17.17|133=17.17|10=097|"
"8=FIX.4.2|9=63|35=S|55=JNS|60=20151204-14:30:00.018|117=S|132=13.88|133=13.88|10=037|"
"8=FIX.4.2|9=62|35=S|55=ARWR|60=20151204-14:30:00.018|117=S|132=7.61|133=7.61|10=009|"
"8=FIX.4.2|9=63|35=S|55=DDD|60=20151204-14:30:00.018|117=S|132=12.56|133=12.56|10=250|"
"8=FIX.4.2|9=64|35=S|55=ASNA|60=20151204-14:30:00.018|117=S|132=13.43|133=13.43|10=076|"
"8=FIX.4.2|9=62|35=S|55=ANTH|60=20151204-14:30:00.018|117=S|132=7.65|133=7.65|10=000|"
"8=FIX.4.2|9=63|35=S|55=BRX|60=20151204-14:30:00.018|117=S|132=23.81|133=23.81|10=026|"
"8=FIX.4.2|9=66|35=S|55=AMZN|60=20151204-14:30:00.018|117=S|132=506.71|133=506.71|10=209|"
"8=FIX.4.2|9=63|35=S|55=ABC|60=20151204-14:30:00.018|117=S|132=98.18|133=98.18|10=012|"
"8=FIX.4.2|9=62|35=S|55=IDRA|60=20151204-14:30:00.018|117=S|132=4.36|133=4.36|10=235|"
"8=FIX.4.2|9=62|35=S|55=PPHM|60=20151204-14:30:00.018|117=S|132=1.84|133=1.84|10=000|"
"8=FIX.4.2|9=62|35=S|55=OREX|60=20151204-14:30:00.018|117=S|132=2.39|133=2.39|10=011|"
"8=FIX.4.2|9=64|35=S|55=MDCO|60=20151204-14:30:00.018|117=S|132=39.48|133=39.48|10=102|"
"8=FIX.4.2|9=65|35=S|55=DISCA|60=20151204-14:30:00.018|117=S|132=28.75|133=28.75|10=164|"
"8=FIX.4.2|9=63|35=S|55=CBS|60=20151204-14:30:00.018|117=S|132=40.52|133=40.52|10=000|"
"8=FIX.4.2|9=65|35=S|55=AET|60=20151204-14:30:00.018|117=S|132=108.69|133=108.69|10=126|"
"8=FIX.4.2|9=64|35=S|55=FINL|60=20151204-14:30:00.018|117=S|132=20.28|133=20.28|10=084|"
"8=FIX.4.2|9=63|35=S|55=PEG|60=20151204-14:30:00.018|117=S|132=41.31|133=41.31|10=000|"
"8=FIX.4.2|9=62|35=S|55=TTPH|60=20151204-14:30:00.018|117=S|132=9.07|133=9.07|10=017|"
"8=FIX.4.2|9=61|35=S|55=CCI|60=20151204-14:30:00.018|117=S|132=78.6|133=78.6|10=169|"
"8=FIX.4.2|9=62|35=S|55=ANTH|60=20151204-14:30:00.019|117=S|132=7.37|133=7.37|10=255|"
"8=FIX.4.2|9=61|35=S|55=MFA|60=20151204-14:30:00.019|117=S|132=7.21|133=7.21|10=153|"
"8=FIX.4.2|9=63|35=S|55=AES|60=20151204-14:30:00.019|117=S|132=10.86|133=10.86|10=010|"
"8=FIX.4.2|9=61|35=S|55=WDC|60=20151204-14:30:00.019|117=S|132=69.4|133=69.4|10=181|"
"8=FIX.4.2|9=63|35=S|55=SWC|60=20151204-14:30:00.019|117=S|132=10.85|133=10.85|10=028|"
"8=FIX.4.2|9=62|35=S|55=GT|60=20151204-14:30:00.019|117=S|132=29.46|133=29.46|10=215|"
"8=FIX.4.2|9=63|35=S|55=GLW|60=20151204-14:30:00.019|117=S|132=17.31|133=17.31|10=021|"
"8=FIX.4.2|9=63|35=S|55=PEP|60=20151204-14:30:00.019|117=S|132=93.53|133=93.53|10=032|"
"8=FIX.4.2|9=63|35=S|55=PAY|60=20151204-14:30:00.019|117=S|132=27.12|133=27.12|10=021|"
"8=FIX.4.2|9=64|35=S|55=BRCM|60=20151204-14:30:00.019|117=S|132=52.31|133=52.31|10=078|"
"8=FIX.4.2|9=62|35=S|55=RPTP|60=20151204-14:30:00.019|117=S|132=6.09|133=6.09|10=022|"
"8=FIX.4.2|9=62|35=S|55=PPHM|60=20151204-14:30:00.019|117=S|132=1.09|133=1.09|10=251|"
"8=FIX.4.2|9=64|35=S|55=EVHC|60=20151204-14:30:00.019|117=S|132=37.96|133=37.96|10=108|"
"8=FIX.4.2|9=62|35=S|55=LC|60=20151204-14:30:00.019|117=S|132=13.88|133=13.88|10=201|"
"8=FIX.4.2|9=63|35=S|55=APC|60=20151204-14:30:00.019|117=S|132=61.25|133=61.25|10=003|"
"8=FIX.4.2|9=64|35=S|55=CIEN|60=20151204-14:30:00.019|117=S|132=21.16|133=21.16|10=071|"
"8=FIX.4.2|9=63|35=S|55=NFX|60=20151204-14:30:00.019|117=S|132=32.65|133=32.65|10=031|"
"8=FIX.4.2|9=62|35=S|55=BDSI|60=20151204-14:30:00.019|117=S|132=6.13|133=6.13|10=232|"
"8=FIX.4.2|9=64|35=S|55=GNTX|60=20151204-14:30:00.019|117=S|132=15.48|133=15.48|10=121|"
"8=FIX.4.2|9=64|35=S|55=PBCT|60=20151204-14:30:00.019|117=S|132=15.98|133=15.98|10=107|"
"8=FIX.4.2|9=66|35=S|55=VRTX|60=20151204-14:30:00.019|117=S|132=102.98|133=102.98|10=242|"
"8=FIX.4.2|9=64|35=S|55=EPZM|60=20151204-14:30:00.019|117=S|132=14.58|133=14.58|10=116|"
"8=FIX.4.2|9=63|35=S|55=ACN|60=20151204-14:30:00.019|117=S|132=96.87|133=96.87|10=033|"
"8=FIX.4.2|9=62|35=S|55=HOLX|60=20151204-14:30:00.019|117=S|132=38.7|133=38.7|10=017|"
"8=FIX.4.2|9=63|35=S|55=SEE|60=20151204-14:30:00.019|117=S|132=46.03|133=46.03|10=010|"
"8=FIX.4.2|9=64|35=S|55=ALKS|60=20151204-14:30:00.019|117=S|132=60.02|133=60.02|10=079|"
"8=FIX.4.2|9=63|35=S|55=OLN|60=20151204-14:30:00.019|117=S|132=16.32|133=16.32|10=020|"
"8=FIX.4.2|9=63|35=S|55=BHI|60=20151204-14:30:00.019|117=S|132=51.85|133=51.85|10=012|"
"8=FIX.4.2|9=63|35=S|55=HDS|60=20151204-14:30:00.019|117=S|132=29.99|133=29.99|10=044|"
"8=FIX.4.2|9=63|35=S|55=NUE|60=20151204-14:30:00.019|117=S|132=37.76|133=37.76|10=041|"
"8=FIX.4.2|9=63|35=S|55=RRC|60=20151204-14:30:00.019|117=S|132=34.68|133=34.68|10=036|"
"8=FIX.4.2|9=66|35=S|55=TSLA|60=20151204-14:30:00.019|117=S|132=252.92|133=252.92|10=210|"
"8=FIX.4.2|9=61|35=S|55=SVU|60=20151204-14:30:00.019|117=S|132=7.42|133=7.42|10=201|"
"8=FIX.4.2|9=60|35=S|55=BDSI|60=20151204-14:30:00.019|117=S|132=6.3|133=6.3|10=132|"
"8=FIX.4.2|9=63|35=S|55=AEP|60=20151204-14:30:00.019|117=S|132=56.93|133=56.93|10=023|"
"8=FIX.4.2|9=61|35=S|55=HCP|60=20151204-14:30:00.019|117=S|132=37.4|133=37.4|10=168|"
"8=FIX.4.2|9=62|35=S|55=PLUG|60=20151204-14:30:00.019|117=S|132=2.33|133=2.33|10=250|"
"8=FIX.4.2|9=64|35=S|55=PCAR|60=20151204-14:30:00.019|117=S|132=52.15|133=52.15|10=084|"
"8=FIX.4.2|9=61|35=S|55=INO|60=20151204-14:30:00.019|117=S|132=6.63|133=6.63|10=181|"
"8=FIX.4.2|9=63|35=S|55=XEL|60=20151204-14:30:00.019|117=S|132=35.23|133=35.23|10=022|"
"8=FIX.4.2|9=62|35=S|55=AMKR|60=20151204-14:30:00.019|117=S|132=4.75|133=4.75|10=253|"
"8=FIX.4.2|9=61|35=S|55=EPE|60=20151204-14:30:00.019|117=S|132=5.75|133=5.75|10=173|"
"8=FIX.4.2|9=60|35=S|55=ARRY|60=20151204-14:30:00.019|117=S|132=5.8|133=5.8|10=168|"
"8=FIX.4.2|9=64|35=S|55=DLTR|60=20151204-14:30:00.019|117=S|132=68.98|133=68.98|10=136|"
"8=FIX.4.2|9=64|35=S|55=WETF|60=20151204-14:30:00.019|117=S|132=16.29|133=16.29|10=110|"
"8=FIX.4.2|9=66|35=S|55=SIAL|60=20151204-14:30:00.019|117=S|132=138.96|133=138.96|10=213|"
"8=FIX.4.2|9=63|35=S|55=ESV|60=20151204-14:30:00.019|117=S|132=13.79|133=13.79|10=041|"
"8=FIX.4.2|9=63|35=S|55=CPN|60=20151204-14:30:00.019|117=S|132=15.16|133=15.16|10=014|"
"8=FIX.4.2|9=66|35=S|55=GOOG|60=20151204-14:30:00.019|117=S|132=601.04|133=601.04|10=184|"
"8=FIX.4.2|9=61|35=S|55=SRC|60=20151204-14:30:00.019|117=S|132=9.39|133=9.39|10=195|"
