"8=FIX.4.2|9=64|35=S|55=WETF|60=20151204-14:30:00.000|117=S|132=16.64|133=16.64|10=098|"
"8=FIX.4.2|9=61|35=S|55=TWO|60=20151204-14:30:00.000|117=S|132=9.39|133=9.39|10=203|"
"8=FIX.4.2|9=63|35=S|55=MON|60=20151204-14:30:00.000|117=S|132=83.48|133=83.48|10=033|"
"8=FIX.4.2|9=64|35=S|55=ALTR|60=20151204-14:30:00.000|117=S|132=50.82|133=50.82|10=091|"
"8=FIX.4.2|9=64|35=S|55=UA|60=20151204-14:30:00.000|117=S|132=102.82|133=102.82|10=026|"
"8=FIX.4.2|9=61|35=S|55=ACN|60=20151204-14:30:00.000|117=S|132=97.3|133=97.3|10=159|"
"8=FIX.4.2|9=61|35=S|55=TSN|60=20151204-14:30:00.000|117=S|132=42.6|133=42.6|10=180|"
"8=FIX.4.2|9=63|35=S|55=HCA|60=20151204-14:30:00.000|117=S|132=75.93|133=75.93|10=005|"
"8=FIX.4.2|9=63|35=S|55=IPG|60=20151204-14:30:00.000|117=S|132=19.63|133=19.63|10=015|"
"8=FIX.4.2|9=63|35=S|55=AEP|60=20151204-14:30:00.000|117=S|132=56.69|133=56.69|10=019|"
"8=FIX.4.2|9=64|35=S|55=AMBA|60=20151204-14:30:00.000|117=S|132=57.32|133=57.32|10=061|"
"8=FIX.4.2|9=64|35=S|55=PTEN|60=20151204-14:30:00.000|117=S|132=14.31|133=14.31|10=083|"
"8=FIX.4.2|9=64|35=S|55=SPLS|60=20151204-14:30:00.000|117=S|132=12.69|133=12.69|10=112|"
"8=FIX.4.2|9=63|35=S|55=LUK|60=20151204-14:30:00.000|117=S|132=20.01|133=20.01|10=251|"
"8=FIX.4.2|9=63|35=S|55=CAG|60=20151204-14:30:00.000|117=S|132=41.05|133=41.05|10=232|"
"8=FIX.4.2|9=61|35=S|55=APA|60=20151204-14:30:00.000|117=S|132=37.7|133=37.7|10=155|"
"8=FIX.4.2|9=61|35=S|55=CDE|60=20151204-14:30:00.000|117=S|132=2.88|133=2.88|10=151|"
"8=FIX.4.2|9=61|35=S|55=BKD|60=20151204-14:30:00.000|117=S|132=23.5|133=23.5|10=140|"
"8=FIX.4.2|9=64|35=S|55=FITB|60=20151204-14:30:00.000|117=S|132=19.81|133=19.81|10=085|"
"8=FIX.4.2|9=63|35=S|55=BBY|60=20151204-14:30:00.000|117=S|132=35.79|133=35.79|10=022|"
"8=FIX.4.2|9=63|35=S|55=LUK|60=20151204-14:30:00.000|117=S|132=20.28|133=20.28|10=013|"
"8=FIX.4.2|9=62|35=S|55=RPTP|60=20151204-14:30:00.000|117=S|132=6.38|133=6.38|10=016|"
"8=FIX.4.2|9=61|35=S|55=ACN|60=20151204-14:30:00.000|117=S|132=96.9|133=96.9|10=169|"
"8=FIX.4.2|9=66|35=S|55=AVGO|60=20151204-14:30:00.000|117=S|132=124.08|133=124.08|10=183|"
"8=FIX.4.2|9=64|35=S|55=PTEN|60=20151204-14:30:00.000|117=S|132=14.32|133=14.32|10=085|"
"8=FIX.4.2|9=61|35=S|55=UTX|60=20151204-14:30:00.000|117=S|132=87.7|133=87.7|10=212|"
"8=FIX.4.2|9=63|35=S|55=XON|60=20151204-14:30:00.000|117=S|132=34.88|133=34.88|10=044|"
"8=FIX.4.2|9=64|35=S|55=CRUS|60=20151204-14:30:00.000|117=S|132=31.72|133=31.72|10=097|"
"8=FIX.4.2|9=63|35=S|55=MTG|60=20151204-14:30:00.000|117=S|132=10.16|133=10.16|10=001|"
"8=FIX.4.2|9=64|35=S|55=PTEN|60=20151204-14:30:00.000|117=S|132=14.77|133=14.77|10=103|"
"8=FIX.4.2|9=62|35=S|55=AR|60=20151204-14:30:00.000|117=S|132=21.19|133=21.19|10=181|"
"8=FIX.4.2|9=62|35=S|55=GSAT|60=20151204-14:30:00.000|117=S|132=2.14|133=2.14|10=229|"
"8=FIX.4.2|9=61|35=S|55=SVU|60=20151204-14:30:00.000|117=S|132=7.78|133=7.78|10=209|"
"8=FIX.4.2|9=63|35=S|55=HOG|60=20151204-14:30:00.000|117=S|132=53.62|133=53.62|10=007|"
"8=FIX.4.2|9=63|35=S|55=CNX|60=20151204-14:30:00.000|117=S|132=10.35|133=10.35|10=004|"
"8=FIX.4.2|9=64|35=S|55=STWD|60=20151204-14:30:00.000|117=S|132=21.11|133=21.11|10=086|"
"8=FIX.4.2|9=61|35=S|55=PTX|60=20151204-14:30:00.000|117=S|132=3.16|133=3.16|10=183|"
"8=FIX.4.2|9=64|35=S|55=WYNN|60=20151204-14:30:00.000|117=S|132=55.84|133=55.84|10=130|"
"8=FIX.4.2|9=62|35=S|55=ARWR|60=20151204-14:30:00.000|117=S|132=6.96|133=6.96|10=014|"
"8=FIX.4.2|9=64|35=S|55=PCAR|60=20151204-14:30:00.000|117=S|132=52.92|133=52.92|10=084|"
"8=FIX.4.2|9=63|35=S|55=HON|60=20151204-14:30:00.000|117=S|132=93.69|133=93.69|10=036|"
"8=FIX.4.2|9=64|35=S|55=CRUS|60=20151204-14:30:00.000|117=S|132=31.46|133=31.46|10=099|"
"8=FIX.4.2|9=63|35=S|55=RCL|60=20151204-14:30:00.000|117=S|132=88.34|133=88.34|10=024|"
"8=FIX.4.2|9=63|35=S|55=BRX|60=20151204-14:30:00.000|117=S|132=23.23|133=23.23|10=009|"
"8=FIX.4.2|9=63|35=S|55=PPL|60=20151204-14:30:00.000|117=S|132=32.56|133=32.56|10=021|"
"8=FIX.4.2|9=64|35=S|55=DXCM|60=20151204-14:30:00.000|117=S|132=87.05|133=87.05|10=094|"
"8=FIX.4.2|9=62|35=S|55=KR|60=20151204-14:30:00.000|117=S|132=36.63|133=36.63|10=201|"
"8=FIX.4.2|9=63|35=S|55=APC|60=20151204-14:30:00.000|117=S|132=61.33|133=61.33|10=247|"
"8=FIX.4.2|9=64|35=S|55=SNDK|60=20151204-14:30:00.000|117=S|132=49.38|133=49.38|10=106|"
"8=FIX.4.2|9=62|35=S|55=PCAR|60=20151204-14:30:00.000|117=S|132=53.1|133=53.1|10=224|"
"8=FIX.4.2|9=61|35=S|55=TRN|60=20151204-14:30:00.001|117=S|132=23.4|133=23.4|10=174|"
"8=FIX.4.2|9=63|35=S|55=ANF|60=20151204-14:30:00.001|117=S|132=21.03|133=21.03|10=235|"
"8=FIX.4.2|9=64|35=S|55=INCY|60=20151204-14:30:00.001|117=S|132=98.14|133=98.14|10=106|"
"8=FIX.4.2|9=63|35=S|55=NWL|60=20151204-14:30:00.001|117=S|132=40.36|133=40.36|10=021|"
"8=FIX.4.2|9=62|35=S|55=PX|60=20151204-14:30:00.001|117=S|132=99.74|133=99.74|10=235|"
"8=FIX.4.2|9=63|35=S|55=CBI|60=20151204-14:30:00.001|117=S|132=37.63|133=37.63|10=254|"
"8=FIX.4.2|9=64|35=S|55=ALLY|60=20151204-14:30:00.001|117=S|132=21.08|133=21.08|10=083|"
"8=FIX.4.2|9=63|35=S|55=MUR|60=20151204-14:30:00.001|117=S|132=24.29|133=24.29|10=032|"
"8=FIX.4.2|9=63|35=S|55=STI|60=20151204-14:30:00.001|117=S|132=38.73|133=38.73|10=036|"
"8=FIX.4.2|9=62|35=S|55=GLOG|60=20151204-14:30:00.001|117=S|132=9.64|133=9.64|10=248|"
"8=FIX.4.2|9=63|35=S|55=PAH|60=20151204-14:30:00.001|117=S|132=13.26|133=13.26|10=251|"
"8=FIX.4.2|9=64|35=S|55=PAYX|60=20151204-14:30:00.001|117=S|132=46.16|133=46.16|10=111|"
"8=FIX.4.2|9=63|35=S|55=DVN|60=20151204-14:30:00.001|117=S|132=37.91|133=37.91|10=026|"
"8=FIX.4.2|9=63|35=S|55=STI|60=20151204-14:30:00.001|117=S|132=38.43|133=38.43|10=030|"
"8=FIX.4.2|9=60|35=S|55=PLUG|60=20151204-14:30:00.001|117=S|132=2.5|133=2.5|10=141|"
"8=FIX.4.2|9=62|35=S|55=SNTA|60=20151204-14:30:00.001|117=S|132=1.97|133=1.97|10=001|"
"8=FIX.4.2|9=63|35=S|55=ADM|60=20151204-14:30:00.001|117=S|132=42.33|133=42.33|10=244|"
"8=FIX.4.2|9=64|35=S|55=BA|60=20151204-14:30:00.001|117=S|132=130.14|133=130.14|10=000|"
"8=FIX.4.2|9=63|35=S|55=WBA|60=20151204-14:30:00.001|117=S|132=84.44|133=84.44|10=012|"
"8=FIX.4.2|9=63|35=S|55=TSO|60=20151204-14:30:00.001|117=S|132=99.44|133=99.44|10=052|"
"8=FIX.4.2|9=64|35=S|55=NYCB|60=20151204-14:30:00.001|117=S|132=18.07|133=18.07|10=087|"
"8=FIX.4.2|9=63|35=S|55=CNP|60=20151204-14:30:00.001|117=S|132=17.86|133=17.86|10=023|"
"8=FIX.4.2|9=64|35=S|55=SNDK|60=20151204-14:30:00.001|117=S|132=49.91|133=49.91|10=105|"
"8=FIX.4.2|9=61|35=S|55=LOW|60=20151204-14:30:00.001|117=S|132=68.7|133=68.7|10=196|"
"8=FIX.4.2|9=63|35=S|55=BHI|60=20151204-14:30:00.001|117=S|132=51.91|133=51.91|10=253|"
"8=FIX.4.2|9=62|35=S|55=BK|60=20151204-14:30:00.001|117=S|132=39.61|133=39.61|10=188|"
"8=FIX.4.2|9=64|35=S|55=BRCM|60=20151204-14:30:00.001|117=S|132=52.15|133=52.15|10=073|"
"8=FIX.4.2|9=63|35=S|55=RCL|60=20151204-14:30:00.001|117=S|132=88.36|133=88.36|10=029|"
"8=FIX.4.2|9=62|35=S|55=CL|60=20151204-14:30:00.001|117=S|132=63.73|133=63.73|10=190|"
"8=FIX.4.2|9=63|35=S|55=NFX|60=20151204-14:30:00.001|117=S|132=32.69|133=32.69|10=030|"
"8=FIX.4.2|9=64|35=S|55=CLDX|60=20151204-14:30:00.001|117=S|132=12.26|133=12.26|10=076|"
"8=FIX.4.2|9=63|35=S|55=PAH|60=20151204-14:30:00.001|117=S|132=13.68|133=13.68|10=007|"
"8=FIX.4.2|9=66|35=S|55=PRGO|60=20151204-14:30:00.001|117=S|132=153.97|133=153.97|10=215|"
"8=FIX.4.2|9=63|35=S|55=IPG|60=20151204-14:30:00.001|117=S|132=19.01|133=19.01|10=000|"
"8=FIX.4.2|9=63|35=S|55=RCL|60=20151204-14:30:00.001|117=S|132=87.88|133=87.88|10=041|"
"8=FIX.4.2|9=61|35=S|55=PAY|60=20151204-14:30:00.001|117=S|132=27.7|133=27.7|10=178|"
"8=FIX.4.2|9=62|35=S|55=GNTX|60=20151204-14:30:00.001|117=S|132=14.9|133=14.9|10=006|"
"8=FIX.4.2|9=63|35=S|55=BMR|60=20151204-14:30:00.001|117=S|132=21.09|133=21.09|10=003|"
"8=FIX.4.2|9=60|35=S|55=DO|60=20151204-14:30:00.001|117=S|132=18.3|133=18.3|10=082|"
"8=FIX.4.2|9=61|35=S|55=MFA|60=20151204-14:30:00.001|117=S|132=7.67|133=7.67|10=164|"
"8=FIX.4.2|9=61|35=S|55=M|60=20151204-14:30:00.001|117=S|132=51.29|133=51.29|10=119|"
"8=FIX.4.2|9=63|35=S|55=HCP|60=20151204-14:30:00.001|117=S|132=37.06|133=37.06|10=005|"
"8=FIX.4.2|9=63|35=S|55=COG|60=20151204-14:30:00.001|117=S|132=24.19|133=24.19|10=003|"
"8=FIX.4.2|9=62|35=S|55=HRTX|60=20151204-14:30:00.001|117=S|132=25.3|133=25.3|10=003|"
"8=FIX.4.2|9=63|35=S|55=CPN|60=20151204-14:30:00.001|117=S|132=15.12|133=15.12|10=253|"
"8=FIX.4.2|9=63|35=S|55=DDD|60=20151204-14:30:00.001|117=S|132=12.35|133=12.35|10=236|"
"8=FIX.4.2|9=64|35=S|55=AGNC|60=20151204-14:30:00.001|117=S|132=19.18|133=19.18|10=074|"
"8=FIX.4.2|9=62|35=S|55=ACHN|60=20151204-14:30:00.001|117=S|132=8.04|133=8.04|10=219|"
"8=FIX.4.2|9=62|35=S|55=PLUG|60=20151204-14:30:00.001|117=S|132=2.19|133=2.19|10=249|"
"8=FIX.4.2|9=63|35=S|55=ETN|60=20151204-14:30:00.001|117=S|132=51.42|133=51.42|10=009|"
