"8=FIX.4.2|9=55|35=S|55=BTU|60=20151204-14:30:00.015|117=S|132=2|133=2|10=131|"
"8=FIX.4.2|9=128|35=D|1=CLIENT57|11=HMtWvd|21=3|37=1234|38=1337900|40=2|44=0.74749102461495|54=1|55=BTU|60=20151204-14:30:00.000|107=Peabody Energy Corp|10=039|"
"8=FIX.4.2|9=127|35=D|1=CLIENT57|11=xZgsNH|21=3|37=1234|38=6082300|40=2|44=1.64412407530347|54=1|55=BTU|60=20151204-14:30:00.002|107=Peabody Energy Corp|10=234|"
