"8=FIX.4.2|9=64|35=S|55=VLO|60=20151204-14:30:00.000|117=S|132=16.64|133=16.64|10=098|"
"8=FIX.4.2|9=61|35=S|55=LNG|60=20151204-14:30:00.000|117=S|132=9.39|133=9.40|10=203|"
"8=FIX.4.2|9=63|35=S|55=BTU|60=20151204-14:30:00.000|117=S|132=83.48|133=84.48|10=033|"
