"8=FIX.4.2|9=128|35=D|1=CLIENT57|11=HMtWvd|21=3|38=1337900|40=2|44=0.74749102461495|54=1|55=BTU|60=20151204-14:30:00.000|107=Peabody Energy Corp|10=039|"
"8=FIX.4.2|9=124|35=D|1=CLIENT249|11=I8Feqd|21=3|38=20900|40=2|44=47.96475794714856|54=1|55=LNG|60=20151204-14:30:00.000|107=Cheniere Energy|10=160|"
"8=FIX.4.2|9=127|35=D|1=CLIENT10|11=DGzYvS|21=3|38=170900|40=2|44=58.53182121828298|54=1|55=VLO|60=20151204-14:30:00.000|107=Valero Energy Corp|10=183|"
